{
  "_format": "hh-sol-artifact-1",
  "contractName": "SmartChallengeUpgradeable",
  "sourceName": "contracts/SmartChallengeUpgradeable.sol",
  "abi": [
    {
      "inputs": [],
      "stateMutability": "nonpayable",
      "type": "constructor"
    },
    {
      "anonymous": false,
      "inputs": [
        {
          "indexed": false,
          "internalType": "address",
          "name": "previousAdmin",
          "type": "address"
        },
        {
          "indexed": false,
          "internalType": "address",
          "name": "newAdmin",
          "type": "address"
        }
      ],
      "name": "AdminChanged",
      "type": "event"
    },
    {
      "anonymous": false,
      "inputs": [
        {
          "indexed": true,
          "internalType": "address",
          "name": "beacon",
          "type": "address"
        }
      ],
      "name": "BeaconUpgraded",
      "type": "event"
    },
    {
      "anonymous": false,
      "inputs": [
        {
          "indexed": true,
          "internalType": "uint256",
          "name": "challengeId",
          "type": "uint256"
        },
        {
          "indexed": false,
          "internalType": "bytes32",
          "name": "flagHash",
          "type": "bytes32"
        },
        {
          "indexed": false,
          "internalType": "uint256",
          "name": "reward",
          "type": "uint256"
        },
        {
          "indexed": false,
          "internalType": "string",
          "name": "ipfsHash",
          "type": "string"
        },
        {
          "indexed": false,
          "internalType": "uint8",
          "name": "difficulty",
          "type": "uint8"
        }
      ],
      "name": "ChallengeAdded",
      "type": "event"
    },
    {
      "anonymous": false,
      "inputs": [
        {
          "indexed": true,
          "internalType": "address",
          "name": "player",
          "type": "address"
        },
        {
          "indexed": false,
          "internalType": "uint256",
          "name": "challengeId",
          "type": "uint256"
        },
        {
          "indexed": false,
          "internalType": "bool",
          "name": "correct",
          "type": "bool"
        }
      ],
      "name": "ChallengeSubmitted",
      "type": "event"
    },
    {
      "anonymous": false,
      "inputs": [
        {
          "indexed": false,
          "internalType": "uint8",
          "name": "version",
          "type": "uint8"
        }
      ],
      "name": "Initialized",
      "type": "event"
    },
    {
      "anonymous": false,
      "inputs": [
        {
          "indexed": true,
          "internalType": "address",
          "name": "previousOwner",
          "type": "address"
        },
        {
          "indexed": true,
          "internalType": "address",
          "name": "newOwner",
          "type": "address"
        }
      ],
      "name": "OwnershipTransferred",
      "type": "event"
    },
    {
      "anonymous": false,
      "inputs": [
        {
          "indexed": false,
          "internalType": "address",
          "name": "account",
          "type": "address"
        }
      ],
      "name": "Paused",
      "type": "event"
    },
    {
      "anonymous": false,
      "inputs": [
        {
          "indexed": true,
          "internalType": "address",
          "name": "player",
          "type": "address"
        },
        {
          "indexed": false,
          "internalType": "string",
          "name": "profileHash",
          "type": "string"
        }
      ],
      "name": "PlayerUpdated",
      "type": "event"
    },
    {
      "anonymous": false,
      "inputs": [
        {
          "indexed": false,
          "internalType": "address",
          "name": "account",
          "type": "address"
        }
      ],
      "name": "Unpaused",
      "type": "event"
    },
    {
      "anonymous": false,
      "inputs": [
        {
          "indexed": true,
          "internalType": "address",
          "name": "implementation",
          "type": "address"
        }
      ],
      "name": "Upgraded",
      "type": "event"
    },
    {
      "inputs": [
        {
          "internalType": "bytes32",
          "name": "_flagHash",
          "type": "bytes32"
        },
        {
          "internalType": "uint256",
          "name": "_reward",
          "type": "uint256"
        },
        {
          "internalType": "string",
          "name": "_ipfsHash",
          "type": "string"
        },
        {
          "internalType": "uint8",
          "name": "_difficulty",
          "type": "uint8"
        },
        {
          "internalType": "uint256",
          "name": "_submissionFee",
          "type": "uint256"
        }
      ],
      "name": "addChallenge",
      "outputs": [],
      "stateMutability": "nonpayable",
      "type": "function"
    },
    {
      "inputs": [],
      "name": "challengeCounter",
      "outputs": [
        {
          "internalType": "uint256",
          "name": "",
          "type": "uint256"
        }
      ],
      "stateMutability": "view",
      "type": "function"
    },
    {
      "inputs": [
        {
          "internalType": "uint256",
          "name": "",
          "type": "uint256"
        }
      ],
      "name": "challenges",
      "outputs": [
        {
          "internalType": "uint256",
          "name": "challengeId",
          "type": "uint256"
        },
        {
          "internalType": "bytes32",
          "name": "flagHash",
          "type": "bytes32"
        },
        {
          "internalType": "uint256",
          "name": "reward",
          "type": "uint256"
        },
        {
          "internalType": "string",
          "name": "ipfsHash",
          "type": "string"
        },
        {
          "internalType": "uint8",
          "name": "difficulty",
          "type": "uint8"
        },
        {
          "internalType": "uint256",
          "name": "submissionFee",
          "type": "uint256"
        }
      ],
      "stateMutability": "view",
      "type": "function"
    },
    {
      "inputs": [],
      "name": "getChallenges",
      "outputs": [
        {
          "components": [
            {
              "internalType": "uint256",
              "name": "challengeId",
              "type": "uint256"
            },
            {
              "internalType": "bytes32",
              "name": "flagHash",
              "type": "bytes32"
            },
            {
              "internalType": "uint256",
              "name": "reward",
              "type": "uint256"
            },
            {
              "internalType": "string",
              "name": "ipfsHash",
              "type": "string"
            },
            {
              "internalType": "uint8",
              "name": "difficulty",
              "type": "uint8"
            },
            {
              "internalType": "uint256",
              "name": "submissionFee",
              "type": "uint256"
            }
          ],
          "internalType": "struct SmartChallengeUpgradeable.Challenge[]",
          "name": "",
          "type": "tuple[]"
        }
      ],
      "stateMutability": "view",
      "type": "function"
    },
    {
      "inputs": [
        {
          "internalType": "address",
          "name": "_player",
          "type": "address"
        }
      ],
      "name": "getPlayer",
      "outputs": [
        {
          "internalType": "uint256",
          "name": "score",
          "type": "uint256"
        },
        {
          "internalType": "string",
          "name": "profileHash",
          "type": "string"
        }
      ],
      "stateMutability": "view",
      "type": "function"
    },
    {
      "inputs": [],
      "name": "getScores",
      "outputs": [
        {
          "internalType": "address[]",
          "name": "",
          "type": "address[]"
        },
        {
          "internalType": "uint256[]",
          "name": "",
          "type": "uint256[]"
        }
      ],
      "stateMutability": "view",
      "type": "function"
    },
    {
      "inputs": [],
      "name": "initialize",
      "outputs": [],
      "stateMutability": "nonpayable",
      "type": "function"
    },
    {
      "inputs": [
        {
          "internalType": "address",
          "name": "_player",
          "type": "address"
        },
        {
          "internalType": "uint256",
          "name": "_challengeId",
          "type": "uint256"
        }
      ],
      "name": "isChallengeSolved",
      "outputs": [
        {
          "internalType": "bool",
          "name": "",
          "type": "bool"
        }
      ],
      "stateMutability": "view",
      "type": "function"
    },
    {
      "inputs": [],
      "name": "owner",
      "outputs": [
        {
          "internalType": "address",
          "name": "",
          "type": "address"
        }
      ],
      "stateMutability": "view",
      "type": "function"
    },
    {
      "inputs": [],
      "name": "pause",
      "outputs": [],
      "stateMutability": "nonpayable",
      "type": "function"
    },
    {
      "inputs": [],
      "name": "paused",
      "outputs": [
        {
          "internalType": "bool",
          "name": "",
          "type": "bool"
        }
      ],
      "stateMutability": "view",
      "type": "function"
    },
    {
      "inputs": [
        {
          "internalType": "uint256",
          "name": "",
          "type": "uint256"
        }
      ],
      "name": "playerAddresses",
      "outputs": [
        {
          "internalType": "address",
          "name": "",
          "type": "address"
        }
      ],
      "stateMutability": "view",
      "type": "function"
    },
    {
      "inputs": [],
      "name": "proxiableUUID",
      "outputs": [
        {
          "internalType": "bytes32",
          "name": "",
          "type": "bytes32"
        }
      ],
      "stateMutability": "view",
      "type": "function"
    },
    {
      "inputs": [],
      "name": "renounceOwnership",
      "outputs": [],
      "stateMutability": "nonpayable",
      "type": "function"
    },
    {
      "inputs": [
        {
          "internalType": "uint256",
          "name": "_challengeId",
          "type": "uint256"
        },
        {
          "internalType": "string",
          "name": "_flag",
          "type": "string"
        }
      ],
      "name": "submitFlag",
      "outputs": [],
      "stateMutability": "payable",
      "type": "function"
    },
    {
      "inputs": [
        {
          "internalType": "address",
          "name": "newOwner",
          "type": "address"
        }
      ],
      "name": "transferOwnership",
      "outputs": [],
      "stateMutability": "nonpayable",
      "type": "function"
    },
    {
      "inputs": [],
      "name": "unpause",
      "outputs": [],
      "stateMutability": "nonpayable",
      "type": "function"
    },
    {
      "inputs": [
        {
          "internalType": "string",
          "name": "_profileHash",
          "type": "string"
        }
      ],
      "name": "updatePlayerProfile",
      "outputs": [],
      "stateMutability": "nonpayable",
      "type": "function"
    },
    {
      "inputs": [
        {
          "internalType": "address",
          "name": "newImplementation",
          "type": "address"
        }
      ],
      "name": "upgradeTo",
      "outputs": [],
      "stateMutability": "nonpayable",
      "type": "function"
    },
    {
      "inputs": [
        {
          "internalType": "address",
          "name": "newImplementation",
          "type": "address"
        },
        {
          "internalType": "bytes",
          "name": "data",
          "type": "bytes"
        }
      ],
      "name": "upgradeToAndCall",
      "outputs": [],
      "stateMutability": "payable",
      "type": "function"
    },
    {
      "inputs": [],
      "name": "withdraw",
      "outputs": [],
      "stateMutability": "nonpayable",
      "type": "function"
    }
  ],
  "bytecode": "0x60a06040523073ffffffffffffffffffffffffffffffffffffffff1660809073ffffffffffffffffffffffffffffffffffffffff168152503480156200004457600080fd5b50620000556200005b60201b60201c565b62000205565b600060019054906101000a900460ff1615620000ae576040517f08c379a0000000000000000000000000000000000000000000000000000000008152600401620000a590620001a8565b60405180910390fd5b60ff801660008054906101000a900460ff1660ff16146200011f5760ff6000806101000a81548160ff021916908360ff1602179055507f7f26b83ff96e1f2b6a682f133852f6798a09c465da95921460cefb384740249860ff604051620001169190620001e8565b60405180910390a15b565b600082825260208201905092915050565b7f496e697469616c697a61626c653a20636f6e747261637420697320696e69746960008201527f616c697a696e6700000000000000000000000000000000000000000000000000602082015250565b60006200019060278362000121565b91506200019d8262000132565b604082019050919050565b60006020820190508181036000830152620001c38162000181565b9050919050565b600060ff82169050919050565b620001e281620001ca565b82525050565b6000602082019050620001ff6000830184620001d7565b92915050565b608051613d3f6200023d60003960008181610716015281816107a401528181610aeb01528181610b790152610c290152613d3f6000f3fe60806040526004361061012a5760003560e01c80635c975abb116100ab5780638456cb591161006f5780638456cb591461037a5780638da5cb5b146103915780638f1d3776146103bc578063f25a6ed7146103fe578063f2fde38b14610427578063f7fed02c146104505761012a565b80635c975abb146102c8578063715018a6146102f357806371cc14801461030a5780637f1a1a4e146103475780638129fc1c146103635761012a565b80633f4ba83a116100f25780633f4ba83a1461020157806346c7c126146102185780634f1ef2861461024357806352d1902d1461025f5780635c12cd4b1461028a5761012a565b8063147851b31461012f57806315c6aee2146101585780631ea1380c146101955780633659cfe6146101c15780633ccfd60b146101ea575b600080fd5b34801561013b57600080fd5b506101566004803603810190610151919061227d565b61047b565b005b34801561016457600080fd5b5061017f600480360381019061017a9190612300565b610522565b60405161018c919061236e565b60405180910390f35b3480156101a157600080fd5b506101aa610562565b6040516101b8929190612505565b60405180910390f35b3480156101cd57600080fd5b506101e860048036038101906101e39190612568565b610714565b005b3480156101f657600080fd5b506101ff61089c565b005b34801561020d57600080fd5b5061021661093d565b005b34801561022457600080fd5b5061022d61094f565b60405161023a91906127a5565b60405180910390f35b61025d600480360381019061025891906128f7565b610ae9565b005b34801561026b57600080fd5b50610274610c25565b6040516102819190612962565b60405180910390f35b34801561029657600080fd5b506102b160048036038101906102ac9190612568565b610cde565b6040516102bf9291906129d6565b60405180910390f35b3480156102d457600080fd5b506102dd610dfe565b6040516102ea9190612a21565b60405180910390f35b3480156102ff57600080fd5b50610308610e15565b005b34801561031657600080fd5b50610331600480360381019061032c9190612a3c565b610e29565b60405161033e9190612a21565b60405180910390f35b610361600480360381019061035c9190612a7c565b610e95565b005b34801561036f57600080fd5b506103786112b1565b005b34801561038657600080fd5b5061038f611407565b005b34801561039d57600080fd5b506103a6611419565b6040516103b3919061236e565b60405180910390f35b3480156103c857600080fd5b506103e360048036038101906103de9190612300565b611443565b6040516103f596959493929190612aeb565b60405180910390f35b34801561040a57600080fd5b5061042560048036038101906104209190612bab565b611515565b005b34801561043357600080fd5b5061044e60048036038101906104499190612568565b61170b565b005b34801561045c57600080fd5b5061046561178e565b6040516104729190612c45565b60405180910390f35b818161012f60003373ffffffffffffffffffffffffffffffffffffffff1673ffffffffffffffffffffffffffffffffffffffff16815260200190815260200160002060030191826104cd929190612e77565b503373ffffffffffffffffffffffffffffffffffffffff167f4065fa66156ee33e13397293f7c2fd228a7a5106fc5d5663b1b14014f09d04058383604051610516929190612f74565b60405180910390a25050565b610130818154811061053357600080fd5b906000526020600020016000915054906101000a900473ffffffffffffffffffffffffffffffffffffffff1681565b60608060006101308054905067ffffffffffffffff811115610587576105866127cc565b5b6040519080825280602002602001820160405280156105b55781602001602082028036833780820191505090505b50905060005b6101308054905081101561067e5761012f600061013083815481106105e3576105e2612f98565b5b9060005260206000200160009054906101000a900473ffffffffffffffffffffffffffffffffffffffff1673ffffffffffffffffffffffffffffffffffffffff1673ffffffffffffffffffffffffffffffffffffffff1681526020019081526020016000206001015482828151811061065f5761065e612f98565b5b602002602001018181525050808061067690612ff6565b9150506105bb565b50610130818180548060200260200160405190810160405280929190818152602001828054801561070457602002820191906000526020600020905b8160009054906101000a900473ffffffffffffffffffffffffffffffffffffffff1673ffffffffffffffffffffffffffffffffffffffff16815260200190600101908083116106ba575b5050505050915092509250509091565b7f000000000000000000000000000000000000000000000000000000000000000073ffffffffffffffffffffffffffffffffffffffff163073ffffffffffffffffffffffffffffffffffffffff16036107a2576040517f08c379a0000000000000000000000000000000000000000000000000000000008152600401610799906130b0565b60405180910390fd5b7f000000000000000000000000000000000000000000000000000000000000000073ffffffffffffffffffffffffffffffffffffffff166107e1611795565b73ffffffffffffffffffffffffffffffffffffffff1614610837576040517f08c379a000000000000000000000000000000000000000000000000000000000815260040161082e90613142565b60405180910390fd5b610840816117ec565b61089981600067ffffffffffffffff81111561085f5761085e6127cc565b5b6040519080825280601f01601f1916602001820160405280156108915781602001600182028036833780820191505090505b5060006117f7565b50565b6108a4611965565b6000479050600081116108ec576040517f08c379a00000000000000000000000000000000000000000000000000000000081526004016108e3906131ae565b60405180910390fd5b6108f4611419565b73ffffffffffffffffffffffffffffffffffffffff166108fc829081150290604051600060405180830381858888f19350505050158015610939573d6000803e3d6000fd5b5050565b610945611965565b61094d6119e3565b565b6060600061012d5467ffffffffffffffff8111156109705761096f6127cc565b5b6040519080825280602002602001820160405280156109a957816020015b6109966121c8565b81526020019060019003908161098e5790505b50905060005b61012d54811015610ae15761012e60008281526020019081526020016000206040518060c0016040529081600082015481526020016001820154815260200160028201548152602001600382018054610a0790612c9a565b80601f0160208091040260200160405190810160405280929190818152602001828054610a3390612c9a565b8015610a805780601f10610a5557610100808354040283529160200191610a80565b820191906000526020600020905b815481529060010190602001808311610a6357829003601f168201915b505050505081526020016004820160009054906101000a900460ff1660ff1660ff168152602001600582015481525050828281518110610ac357610ac2612f98565b5b60200260200101819052508080610ad990612ff6565b9150506109af565b508091505090565b7f000000000000000000000000000000000000000000000000000000000000000073ffffffffffffffffffffffffffffffffffffffff163073ffffffffffffffffffffffffffffffffffffffff1603610b77576040517f08c379a0000000000000000000000000000000000000000000000000000000008152600401610b6e906130b0565b60405180910390fd5b7f000000000000000000000000000000000000000000000000000000000000000073ffffffffffffffffffffffffffffffffffffffff16610bb6611795565b73ffffffffffffffffffffffffffffffffffffffff1614610c0c576040517f08c379a0000000000000000000000000000000000000000000000000000000008152600401610c0390613142565b60405180910390fd5b610c15826117ec565b610c21828260016117f7565b5050565b60007f000000000000000000000000000000000000000000000000000000000000000073ffffffffffffffffffffffffffffffffffffffff163073ffffffffffffffffffffffffffffffffffffffff1614610cb5576040517f08c379a0000000000000000000000000000000000000000000000000000000008152600401610cac90613240565b60405180910390fd5b7f360894a13ba1a3210667c828492db98dca3e2076cc3735a920a3ca505d382bbc60001b905090565b6000606061012f60008473ffffffffffffffffffffffffffffffffffffffff1673ffffffffffffffffffffffffffffffffffffffff1681526020019081526020016000206001015461012f60008573ffffffffffffffffffffffffffffffffffffffff1673ffffffffffffffffffffffffffffffffffffffff168152602001908152602001600020600301808054610d7590612c9a565b80601f0160208091040260200160405190810160405280929190818152602001828054610da190612c9a565b8015610dee5780601f10610dc357610100808354040283529160200191610dee565b820191906000526020600020905b815481529060010190602001808311610dd157829003601f168201915b5050505050905091509150915091565b600060c960009054906101000a900460ff16905090565b610e1d611965565b610e276000611a46565b565b600061012f60008473ffffffffffffffffffffffffffffffffffffffff1673ffffffffffffffffffffffffffffffffffffffff168152602001908152602001600020600201600083815260200190815260200160002060009054906101000a900460ff16905092915050565b610e9d611b0c565b610ea5611b56565b600061012e600085815260200190815260200160002090508060050154341015610f04576040517f08c379a0000000000000000000000000000000000000000000000000000000008152600401610efb906132ac565b60405180910390fd5b60008383905011610f4a576040517f08c379a0000000000000000000000000000000000000000000000000000000008152600401610f4190613318565b60405180910390fd5b61012f60003373ffffffffffffffffffffffffffffffffffffffff1673ffffffffffffffffffffffffffffffffffffffff168152602001908152602001600020600201600085815260200190815260200160002060009054906101000a900460ff1615610fec576040517f08c379a0000000000000000000000000000000000000000000000000000000008152600401610fe390613384565b60405180910390fd5b6000816001015484846040516020016110069291906133d4565b6040516020818303038152906040528051906020012014905080156112525761012f60003373ffffffffffffffffffffffffffffffffffffffff1673ffffffffffffffffffffffffffffffffffffffff16815260200190815260200160002060000160009054906101000a900460ff1661113b57600161012f60003373ffffffffffffffffffffffffffffffffffffffff1673ffffffffffffffffffffffffffffffffffffffff16815260200190815260200160002060000160006101000a81548160ff021916908315150217905550610130339080600181540180825580915050600190039060005260206000200160009091909190916101000a81548173ffffffffffffffffffffffffffffffffffffffff021916908373ffffffffffffffffffffffffffffffffffffffff1602179055505b600161012f60003373ffffffffffffffffffffffffffffffffffffffff1673ffffffffffffffffffffffffffffffffffffffff168152602001908152602001600020600201600087815260200190815260200160002060006101000a81548160ff021916908315150217905550816002015461012f60003373ffffffffffffffffffffffffffffffffffffffff1673ffffffffffffffffffffffffffffffffffffffff16815260200190815260200160002060010160008282546111ff91906133ed565b925050819055503373ffffffffffffffffffffffffffffffffffffffff166108fc83600201549081150290604051600060405180830381858888f19350505050158015611250573d6000803e3d6000fd5b505b3373ffffffffffffffffffffffffffffffffffffffff167f99ff60502ac5007f259fabfd2c017ecb4fce1819ff4ea41c339a03a6534b9193868360405161129a929190613421565b60405180910390a250506112ac611ba5565b505050565b60008060019054906101000a900460ff161590508080156112e25750600160008054906101000a900460ff1660ff16105b8061130f57506112f130611baf565b15801561130e5750600160008054906101000a900460ff1660ff16145b5b61134e576040517f08c379a0000000000000000000000000000000000000000000000000000000008152600401611345906134bc565b60405180910390fd5b60016000806101000a81548160ff021916908360ff160217905550801561138b576001600060016101000a81548160ff0219169083151502179055505b611393611bd2565b61139b611c2b565b6113a3611c7c565b6113ab611cd5565b80156114045760008060016101000a81548160ff0219169083151502179055507f7f26b83ff96e1f2b6a682f133852f6798a09c465da95921460cefb384740249860016040516113fb9190613517565b60405180910390a15b50565b61140f611965565b611417611d2e565b565b6000603360009054906101000a900473ffffffffffffffffffffffffffffffffffffffff16905090565b61012e60205280600052604060002060009150905080600001549080600101549080600201549080600301805461147990612c9a565b80601f01602080910402602001604051908101604052809291908181526020018280546114a590612c9a565b80156114f25780601f106114c7576101008083540402835291602001916114f2565b820191906000526020600020905b8154815290600101906020018083116114d557829003601f168201915b5050505050908060040160009054906101000a900460ff16908060050154905086565b61151d611965565b60008511611560576040517f08c379a00000000000000000000000000000000000000000000000000000000081526004016115579061357e565b60405180910390fd5b60018260ff1610158015611578575060058260ff1611155b6115b7576040517f08c379a00000000000000000000000000000000000000000000000000000000081526004016115ae906135ea565b60405180910390fd5b6040518060c0016040528061012d54815260200187815260200186815260200185858080601f016020809104026020016040519081016040528093929190818152602001838380828437600081840152601f19601f8201169050808301925050505050505081526020018360ff1681526020018281525061012e600061012d5481526020019081526020016000206000820151816000015560208201518160010155604082015181600201556060820151816003019081611678919061360a565b5060808201518160040160006101000a81548160ff021916908360ff16021790555060a0820151816005015590505061012d547f767b04b6d502be6af8ac3efa8f208829cad714a56ed13f0e2c518f09f68dfe8487878787876040516116e29594939291906136dc565b60405180910390a261012d60008154809291906116fe90612ff6565b9190505550505050505050565b611713611965565b600073ffffffffffffffffffffffffffffffffffffffff168173ffffffffffffffffffffffffffffffffffffffff1603611782576040517f08c379a00000000000000000000000000000000000000000000000000000000081526004016117799061379c565b60405180910390fd5b61178b81611a46565b50565b61012d5481565b60006117c37f360894a13ba1a3210667c828492db98dca3e2076cc3735a920a3ca505d382bbc60001b611d91565b60000160009054906101000a900473ffffffffffffffffffffffffffffffffffffffff16905090565b6117f4611965565b50565b6118237f4910fdfa16fed3260ed0e7147f7cc6da11a60208b5b9406d12a635614ffd914360001b611d9b565b60000160009054906101000a900460ff16156118475761184283611da5565b611960565b8273ffffffffffffffffffffffffffffffffffffffff166352d1902d6040518163ffffffff1660e01b8152600401602060405180830381865afa9250505080156118af57506040513d601f19601f820116820180604052508101906118ac91906137d1565b60015b6118ee576040517f08c379a00000000000000000000000000000000000000000000000000000000081526004016118e590613870565b60405180910390fd5b7f360894a13ba1a3210667c828492db98dca3e2076cc3735a920a3ca505d382bbc60001b8114611953576040517f08c379a000000000000000000000000000000000000000000000000000000000815260040161194a90613902565b60405180910390fd5b5061195f838383611e5e565b5b505050565b61196d611e8a565b73ffffffffffffffffffffffffffffffffffffffff1661198b611419565b73ffffffffffffffffffffffffffffffffffffffff16146119e1576040517f08c379a00000000000000000000000000000000000000000000000000000000081526004016119d89061396e565b60405180910390fd5b565b6119eb611e92565b600060c960006101000a81548160ff0219169083151502179055507f5db9ee0a495bf2e6ff9c91a7834c1ba4fdd244a5e8aa4e537bd38aeae4b073aa611a2f611e8a565b604051611a3c919061236e565b60405180910390a1565b6000603360009054906101000a900473ffffffffffffffffffffffffffffffffffffffff16905081603360006101000a81548173ffffffffffffffffffffffffffffffffffffffff021916908373ffffffffffffffffffffffffffffffffffffffff1602179055508173ffffffffffffffffffffffffffffffffffffffff168173ffffffffffffffffffffffffffffffffffffffff167f8be0079c531659141344cd1fd0a4f28419497f9722a3daafe3b4186f6b6457e060405160405180910390a35050565b611b14610dfe565b15611b54576040517f08c379a0000000000000000000000000000000000000000000000000000000008152600401611b4b906139da565b60405180910390fd5b565b600260fb5403611b9b576040517f08c379a0000000000000000000000000000000000000000000000000000000008152600401611b9290613a46565b60405180910390fd5b600260fb81905550565b600160fb81905550565b6000808273ffffffffffffffffffffffffffffffffffffffff163b119050919050565b600060019054906101000a900460ff16611c21576040517f08c379a0000000000000000000000000000000000000000000000000000000008152600401611c1890613ad8565b60405180910390fd5b611c29611edb565b565b600060019054906101000a900460ff16611c7a576040517f08c379a0000000000000000000000000000000000000000000000000000000008152600401611c7190613ad8565b60405180910390fd5b565b600060019054906101000a900460ff16611ccb576040517f08c379a0000000000000000000000000000000000000000000000000000000008152600401611cc290613ad8565b60405180910390fd5b611cd3611f3c565b565b600060019054906101000a900460ff16611d24576040517f08c379a0000000000000000000000000000000000000000000000000000000008152600401611d1b90613ad8565b60405180910390fd5b611d2c611fa8565b565b611d36611b0c565b600160c960006101000a81548160ff0219169083151502179055507f62e78cea01bee320cd4e420270b5ea74000d11b0c9f74754ebdbfc544b05a258611d7a611e8a565b604051611d87919061236e565b60405180910390a1565b6000819050919050565b6000819050919050565b611dae81611baf565b611ded576040517f08c379a0000000000000000000000000000000000000000000000000000000008152600401611de490613b6a565b60405180910390fd5b80611e1a7f360894a13ba1a3210667c828492db98dca3e2076cc3735a920a3ca505d382bbc60001b611d91565b60000160006101000a81548173ffffffffffffffffffffffffffffffffffffffff021916908373ffffffffffffffffffffffffffffffffffffffff16021790555050565b611e6783612001565b600082511180611e745750805b15611e8557611e838383612050565b505b505050565b600033905090565b611e9a610dfe565b611ed9576040517f08c379a0000000000000000000000000000000000000000000000000000000008152600401611ed090613bd6565b60405180910390fd5b565b600060019054906101000a900460ff16611f2a576040517f08c379a0000000000000000000000000000000000000000000000000000000008152600401611f2190613ad8565b60405180910390fd5b611f3a611f35611e8a565b611a46565b565b600060019054906101000a900460ff16611f8b576040517f08c379a0000000000000000000000000000000000000000000000000000000008152600401611f8290613ad8565b60405180910390fd5b600060c960006101000a81548160ff021916908315150217905550565b600060019054906101000a900460ff16611ff7576040517f08c379a0000000000000000000000000000000000000000000000000000000008152600401611fee90613ad8565b60405180910390fd5b600160fb81905550565b61200a81611da5565b8073ffffffffffffffffffffffffffffffffffffffff167fbc7cd75a20ee27fd9adebab32041f755214dbc6bffa90cc0225b39da2e5c2d3b60405160405180910390a250565b60606120758383604051806060016040528060278152602001613ce36027913961207d565b905092915050565b60606000808573ffffffffffffffffffffffffffffffffffffffff16856040516120a79190613c3d565b600060405180830381855af49150503d80600081146120e2576040519150601f19603f3d011682016040523d82523d6000602084013e6120e7565b606091505b50915091506120f886838387612103565b925050509392505050565b6060831561216557600083510361215d5761211d85611baf565b61215c576040517f08c379a000000000000000000000000000000000000000000000000000000000815260040161215390613ca0565b60405180910390fd5b5b829050612170565b61216f8383612178565b5b949350505050565b60008251111561218b5781518083602001fd5b806040517f08c379a00000000000000000000000000000000000000000000000000000000081526004016121bf9190613cc0565b60405180910390fd5b6040518060c0016040528060008152602001600080191681526020016000815260200160608152602001600060ff168152602001600081525090565b6000604051905090565b600080fd5b600080fd5b600080fd5b600080fd5b600080fd5b60008083601f84011261223d5761223c612218565b5b8235905067ffffffffffffffff81111561225a5761225961221d565b5b60208301915083600182028301111561227657612275612222565b5b9250929050565b600080602083850312156122945761229361220e565b5b600083013567ffffffffffffffff8111156122b2576122b1612213565b5b6122be85828601612227565b92509250509250929050565b6000819050919050565b6122dd816122ca565b81146122e857600080fd5b50565b6000813590506122fa816122d4565b92915050565b6000602082840312156123165761231561220e565b5b6000612324848285016122eb565b91505092915050565b600073ffffffffffffffffffffffffffffffffffffffff82169050919050565b60006123588261232d565b9050919050565b6123688161234d565b82525050565b6000602082019050612383600083018461235f565b92915050565b600081519050919050565b600082825260208201905092915050565b6000819050602082019050919050565b6123be8161234d565b82525050565b60006123d083836123b5565b60208301905092915050565b6000602082019050919050565b60006123f482612389565b6123fe8185612394565b9350612409836123a5565b8060005b8381101561243a57815161242188826123c4565b975061242c836123dc565b92505060018101905061240d565b5085935050505092915050565b600081519050919050565b600082825260208201905092915050565b6000819050602082019050919050565b61247c816122ca565b82525050565b600061248e8383612473565b60208301905092915050565b6000602082019050919050565b60006124b282612447565b6124bc8185612452565b93506124c783612463565b8060005b838110156124f85781516124df8882612482565b97506124ea8361249a565b9250506001810190506124cb565b5085935050505092915050565b6000604082019050818103600083015261251f81856123e9565b9050818103602083015261253381846124a7565b90509392505050565b6125458161234d565b811461255057600080fd5b50565b6000813590506125628161253c565b92915050565b60006020828403121561257e5761257d61220e565b5b600061258c84828501612553565b91505092915050565b600081519050919050565b600082825260208201905092915050565b6000819050602082019050919050565b6000819050919050565b6125d4816125c1565b82525050565b600081519050919050565b600082825260208201905092915050565b60005b838110156126145780820151818401526020810190506125f9565b60008484015250505050565b6000601f19601f8301169050919050565b600061263c826125da565b61264681856125e5565b93506126568185602086016125f6565b61265f81612620565b840191505092915050565b600060ff82169050919050565b6126808161266a565b82525050565b600060c08301600083015161269e6000860182612473565b5060208301516126b160208601826125cb565b5060408301516126c46040860182612473565b50606083015184820360608601526126dc8282612631565b91505060808301516126f16080860182612677565b5060a083015161270460a0860182612473565b508091505092915050565b600061271b8383612686565b905092915050565b6000602082019050919050565b600061273b82612595565b61274581856125a0565b935083602082028501612757856125b1565b8060005b858110156127935784840389528151612774858261270f565b945061277f83612723565b925060208a0199505060018101905061275b565b50829750879550505050505092915050565b600060208201905081810360008301526127bf8184612730565b905092915050565b600080fd5b7f4e487b7100000000000000000000000000000000000000000000000000000000600052604160045260246000fd5b61280482612620565b810181811067ffffffffffffffff82111715612823576128226127cc565b5b80604052505050565b6000612836612204565b905061284282826127fb565b919050565b600067ffffffffffffffff821115612862576128616127cc565b5b61286b82612620565b9050602081019050919050565b82818337600083830152505050565b600061289a61289584612847565b61282c565b9050828152602081018484840111156128b6576128b56127c7565b5b6128c1848285612878565b509392505050565b600082601f8301126128de576128dd612218565b5b81356128ee848260208601612887565b91505092915050565b6000806040838503121561290e5761290d61220e565b5b600061291c85828601612553565b925050602083013567ffffffffffffffff81111561293d5761293c612213565b5b612949858286016128c9565b9150509250929050565b61295c816125c1565b82525050565b60006020820190506129776000830184612953565b92915050565b612986816122ca565b82525050565b600082825260208201905092915050565b60006129a8826125da565b6129b2818561298c565b93506129c28185602086016125f6565b6129cb81612620565b840191505092915050565b60006040820190506129eb600083018561297d565b81810360208301526129fd818461299d565b90509392505050565b60008115159050919050565b612a1b81612a06565b82525050565b6000602082019050612a366000830184612a12565b92915050565b60008060408385031215612a5357612a5261220e565b5b6000612a6185828601612553565b9250506020612a72858286016122eb565b9150509250929050565b600080600060408486031215612a9557612a9461220e565b5b6000612aa3868287016122eb565b935050602084013567ffffffffffffffff811115612ac457612ac3612213565b5b612ad086828701612227565b92509250509250925092565b612ae58161266a565b82525050565b600060c082019050612b00600083018961297d565b612b0d6020830188612953565b612b1a604083018761297d565b8181036060830152612b2c818661299d565b9050612b3b6080830185612adc565b612b4860a083018461297d565b979650505050505050565b612b5c816125c1565b8114612b6757600080fd5b50565b600081359050612b7981612b53565b92915050565b612b888161266a565b8114612b9357600080fd5b50565b600081359050612ba581612b7f565b92915050565b60008060008060008060a08789031215612bc857612bc761220e565b5b6000612bd689828a01612b6a565b9650506020612be789828a016122eb565b955050604087013567ffffffffffffffff811115612c0857612c07612213565b5b612c1489828a01612227565b94509450506060612c2789828a01612b96565b9250506080612c3889828a016122eb565b9150509295509295509295565b6000602082019050612c5a600083018461297d565b92915050565b600082905092915050565b7f4e487b7100000000000000000000000000000000000000000000000000000000600052602260045260246000fd5b60006002820490506001821680612cb257607f821691505b602082108103612cc557612cc4612c6b565b5b50919050565b60008190508160005260206000209050919050565b60006020601f8301049050919050565b600082821b905092915050565b600060088302612d2d7fffffffffffffffffffffffffffffffffffffffffffffffffffffffffffffffff82612cf0565b612d378683612cf0565b95508019841693508086168417925050509392505050565b6000819050919050565b6000612d74612d6f612d6a846122ca565b612d4f565b6122ca565b9050919050565b6000819050919050565b612d8e83612d59565b612da2612d9a82612d7b565b848454612cfd565b825550505050565b600090565b612db7612daa565b612dc2818484612d85565b505050565b5b81811015612de657612ddb600082612daf565b600181019050612dc8565b5050565b601f821115612e2b57612dfc81612ccb565b612e0584612ce0565b81016020851015612e14578190505b612e28612e2085612ce0565b830182612dc7565b50505b505050565b600082821c905092915050565b6000612e4e60001984600802612e30565b1980831691505092915050565b6000612e678383612e3d565b9150826002028217905092915050565b612e818383612c60565b67ffffffffffffffff811115612e9a57612e996127cc565b5b612ea48254612c9a565b612eaf828285612dea565b6000601f831160018114612ede5760008415612ecc578287013590505b612ed68582612e5b565b865550612f3e565b601f198416612eec86612ccb565b60005b82811015612f1457848901358255600182019150602085019450602081019050612eef565b86831015612f315784890135612f2d601f891682612e3d565b8355505b6001600288020188555050505b50505050505050565b6000612f53838561298c565b9350612f60838584612878565b612f6983612620565b840190509392505050565b60006020820190508181036000830152612f8f818486612f47565b90509392505050565b7f4e487b7100000000000000000000000000000000000000000000000000000000600052603260045260246000fd5b7f4e487b7100000000000000000000000000000000000000000000000000000000600052601160045260246000fd5b6000613001826122ca565b91507fffffffffffffffffffffffffffffffffffffffffffffffffffffffffffffffff820361303357613032612fc7565b5b600182019050919050565b7f46756e6374696f6e206d7573742062652063616c6c6564207468726f7567682060008201527f64656c656761746563616c6c0000000000000000000000000000000000000000602082015250565b600061309a602c8361298c565b91506130a58261303e565b604082019050919050565b600060208201905081810360008301526130c98161308d565b9050919050565b7f46756e6374696f6e206d7573742062652063616c6c6564207468726f7567682060008201527f6163746976652070726f78790000000000000000000000000000000000000000602082015250565b600061312c602c8361298c565b9150613137826130d0565b604082019050919050565b6000602082019050818103600083015261315b8161311f565b9050919050565b7f4e6f2062616c616e636520746f20776974686472617700000000000000000000600082015250565b600061319860168361298c565b91506131a382613162565b602082019050919050565b600060208201905081810360008301526131c78161318b565b9050919050565b7f555550535570677261646561626c653a206d757374206e6f742062652063616c60008201527f6c6564207468726f7567682064656c656761746563616c6c0000000000000000602082015250565b600061322a60388361298c565b9150613235826131ce565b604082019050919050565b600060208201905081810360008301526132598161321d565b9050919050565b7f496e73756666696369656e742066656500000000000000000000000000000000600082015250565b600061329660108361298c565b91506132a182613260565b602082019050919050565b600060208201905081810360008301526132c581613289565b9050919050565b7f466c616720697320656d70747900000000000000000000000000000000000000600082015250565b6000613302600d8361298c565b915061330d826132cc565b602082019050919050565b60006020820190508181036000830152613331816132f5565b9050919050565b7f416c726561647920736f6c766564000000000000000000000000000000000000600082015250565b600061336e600e8361298c565b915061337982613338565b602082019050919050565b6000602082019050818103600083015261339d81613361565b9050919050565b600081905092915050565b60006133bb83856133a4565b93506133c8838584612878565b82840190509392505050565b60006133e18284866133af565b91508190509392505050565b60006133f8826122ca565b9150613403836122ca565b925082820190508082111561341b5761341a612fc7565b5b92915050565b6000604082019050613436600083018561297d565b6134436020830184612a12565b9392505050565b7f496e697469616c697a61626c653a20636f6e747261637420697320616c72656160008201527f647920696e697469616c697a6564000000000000000000000000000000000000602082015250565b60006134a6602e8361298c565b91506134b18261344a565b604082019050919050565b600060208201905081810360008301526134d581613499565b9050919050565b6000819050919050565b60006135016134fc6134f7846134dc565b612d4f565b61266a565b9050919050565b613511816134e6565b82525050565b600060208201905061352c6000830184613508565b92915050565b7f526577617264206d757374206265203e20300000000000000000000000000000600082015250565b600061356860128361298c565b915061357382613532565b602082019050919050565b600060208201905081810360008301526135978161355b565b9050919050565b7f496e76616c696420646966666963756c74790000000000000000000000000000600082015250565b60006135d460128361298c565b91506135df8261359e565b602082019050919050565b60006020820190508181036000830152613603816135c7565b9050919050565b613613826125da565b67ffffffffffffffff81111561362c5761362b6127cc565b5b6136368254612c9a565b613641828285612dea565b600060209050601f8311600181146136745760008415613662578287015190505b61366c8582612e5b565b8655506136d4565b601f19841661368286612ccb565b60005b828110156136aa57848901518255600182019150602085019450602081019050613685565b868310156136c757848901516136c3601f891682612e3d565b8355505b6001600288020188555050505b505050505050565b60006080820190506136f16000830188612953565b6136fe602083018761297d565b8181036040830152613711818587612f47565b90506137206060830184612adc565b9695505050505050565b7f4f776e61626c653a206e6577206f776e657220697320746865207a65726f206160008201527f6464726573730000000000000000000000000000000000000000000000000000602082015250565b600061378660268361298c565b91506137918261372a565b604082019050919050565b600060208201905081810360008301526137b581613779565b9050919050565b6000815190506137cb81612b53565b92915050565b6000602082840312156137e7576137e661220e565b5b60006137f5848285016137bc565b91505092915050565b7f45524331393637557067726164653a206e657720696d706c656d656e7461746960008201527f6f6e206973206e6f742055555053000000000000000000000000000000000000602082015250565b600061385a602e8361298c565b9150613865826137fe565b604082019050919050565b600060208201905081810360008301526138898161384d565b9050919050565b7f45524331393637557067726164653a20756e737570706f727465642070726f7860008201527f6961626c65555549440000000000000000000000000000000000000000000000602082015250565b60006138ec60298361298c565b91506138f782613890565b604082019050919050565b6000602082019050818103600083015261391b816138df565b9050919050565b7f4f776e61626c653a2063616c6c6572206973206e6f7420746865206f776e6572600082015250565b600061395860208361298c565b915061396382613922565b602082019050919050565b600060208201905081810360008301526139878161394b565b9050919050565b7f5061757361626c653a2070617573656400000000000000000000000000000000600082015250565b60006139c460108361298c565b91506139cf8261398e565b602082019050919050565b600060208201905081810360008301526139f3816139b7565b9050919050565b7f5265656e7472616e637947756172643a207265656e7472616e742063616c6c00600082015250565b6000613a30601f8361298c565b9150613a3b826139fa565b602082019050919050565b60006020820190508181036000830152613a5f81613a23565b9050919050565b7f496e697469616c697a61626c653a20636f6e7472616374206973206e6f74206960008201527f6e697469616c697a696e67000000000000000000000000000000000000000000602082015250565b6000613ac2602b8361298c565b9150613acd82613a66565b604082019050919050565b60006020820190508181036000830152613af181613ab5565b9050919050565b7f455243313936373a206e657720696d706c656d656e746174696f6e206973206e60008201527f6f74206120636f6e747261637400000000000000000000000000000000000000602082015250565b6000613b54602d8361298c565b9150613b5f82613af8565b604082019050919050565b60006020820190508181036000830152613b8381613b47565b9050919050565b7f5061757361626c653a206e6f7420706175736564000000000000000000000000600082015250565b6000613bc060148361298c565b9150613bcb82613b8a565b602082019050919050565b60006020820190508181036000830152613bef81613bb3565b9050919050565b600081519050919050565b600081905092915050565b6000613c1782613bf6565b613c218185613c01565b9350613c318185602086016125f6565b80840191505092915050565b6000613c498284613c0c565b915081905092915050565b7f416464726573733a2063616c6c20746f206e6f6e2d636f6e7472616374000000600082015250565b6000613c8a601d8361298c565b9150613c9582613c54565b602082019050919050565b60006020820190508181036000830152613cb981613c7d565b9050919050565b60006020820190508181036000830152613cda818461299d565b90509291505056fe416464726573733a206c6f772d6c6576656c2064656c65676174652063616c6c206661696c6564a26469706673582212208c74429efca23cbf97490612c6f57049a0be15d598a751c2b19e45e6321b117164736f6c63430008140033",
  "linkReferences": {},
  "deployedLinkReferences": {}
}