{
  "_format": "hh-sol-artifact-1",
  "contractName": "SmartChallengeUpgradeable",
  "sourceName": "contracts/SmartChallengeUpgradeable.sol",
  "abi": [
    {
      "inputs": [],
      "stateMutability": "nonpayable",
      "type": "constructor"
    },
    {
      "anonymous": false,
      "inputs": [
        {
          "indexed": false,
          "internalType": "address",
          "name": "previousAdmin",
          "type": "address"
        },
        {
          "indexed": false,
          "internalType": "address",
          "name": "newAdmin",
          "type": "address"
        }
      ],
      "name": "AdminChanged",
      "type": "event"
    },
    {
      "anonymous": false,
      "inputs": [
        {
          "indexed": true,
          "internalType": "address",
          "name": "beacon",
          "type": "address"
        }
      ],
      "name": "BeaconUpgraded",
      "type": "event"
    },
    {
      "anonymous": false,
      "inputs": [
        {
          "indexed": true,
          "internalType": "uint256",
          "name": "challengeId",
          "type": "uint256"
        },
        {
          "indexed": false,
          "internalType": "bytes32",
          "name": "flagHash",
          "type": "bytes32"
        },
        {
          "indexed": false,
          "internalType": "uint256",
          "name": "reward",
          "type": "uint256"
        },
        {
          "indexed": false,
          "internalType": "string",
          "name": "ipfsHash",
          "type": "string"
        },
        {
          "indexed": false,
          "internalType": "uint8",
          "name": "difficulty",
          "type": "uint8"
        }
      ],
      "name": "ChallengeAdded",
      "type": "event"
    },
    {
      "anonymous": false,
      "inputs": [
        {
          "indexed": true,
          "internalType": "address",
          "name": "player",
          "type": "address"
        },
        {
          "indexed": false,
          "internalType": "uint256",
          "name": "challengeId",
          "type": "uint256"
        },
        {
          "indexed": false,
          "internalType": "bool",
          "name": "correct",
          "type": "bool"
        }
      ],
      "name": "ChallengeSubmitted",
      "type": "event"
    },
    {
      "anonymous": false,
      "inputs": [
        {
          "indexed": false,
          "internalType": "uint8",
          "name": "version",
          "type": "uint8"
        }
      ],
      "name": "Initialized",
      "type": "event"
    },
    {
      "anonymous": false,
      "inputs": [
        {
          "indexed": true,
          "internalType": "address",
          "name": "previousOwner",
          "type": "address"
        },
        {
          "indexed": true,
          "internalType": "address",
          "name": "newOwner",
          "type": "address"
        }
      ],
      "name": "OwnershipTransferred",
      "type": "event"
    },
    {
      "anonymous": false,
      "inputs": [
        {
          "indexed": false,
          "internalType": "address",
          "name": "account",
          "type": "address"
        }
      ],
      "name": "Paused",
      "type": "event"
    },
    {
      "anonymous": false,
      "inputs": [
        {
          "indexed": true,
          "internalType": "address",
          "name": "player",
          "type": "address"
        },
        {
          "indexed": false,
          "internalType": "string",
          "name": "profileHash",
          "type": "string"
        }
      ],
      "name": "PlayerUpdated",
      "type": "event"
    },
    {
      "anonymous": false,
      "inputs": [
        {
          "indexed": false,
          "internalType": "address",
          "name": "account",
          "type": "address"
        }
      ],
      "name": "Unpaused",
      "type": "event"
    },
    {
      "anonymous": false,
      "inputs": [
        {
          "indexed": true,
          "internalType": "address",
          "name": "implementation",
          "type": "address"
        }
      ],
      "name": "Upgraded",
      "type": "event"
    },
    {
      "inputs": [
        {
          "internalType": "bytes32",
          "name": "_flagHash",
          "type": "bytes32"
        },
        {
          "internalType": "uint256",
          "name": "_reward",
          "type": "uint256"
        },
        {
          "internalType": "string",
          "name": "_ipfsHash",
          "type": "string"
        },
        {
          "internalType": "uint8",
          "name": "_difficulty",
          "type": "uint8"
        },
        {
          "internalType": "uint256",
          "name": "_submissionFee",
          "type": "uint256"
        }
      ],
      "name": "addChallenge",
      "outputs": [],
      "stateMutability": "nonpayable",
      "type": "function"
    },
    {
      "inputs": [],
      "name": "challengeCounter",
      "outputs": [
        {
          "internalType": "uint256",
          "name": "",
          "type": "uint256"
        }
      ],
      "stateMutability": "view",
      "type": "function"
    },
    {
      "inputs": [
        {
          "internalType": "uint256",
          "name": "",
          "type": "uint256"
        }
      ],
      "name": "challenges",
      "outputs": [
        {
          "internalType": "uint256",
          "name": "challengeId",
          "type": "uint256"
        },
        {
          "internalType": "bytes32",
          "name": "flagHash",
          "type": "bytes32"
        },
        {
          "internalType": "uint256",
          "name": "reward",
          "type": "uint256"
        },
        {
          "internalType": "string",
          "name": "ipfsHash",
          "type": "string"
        },
        {
          "internalType": "uint8",
          "name": "difficulty",
          "type": "uint8"
        },
        {
          "internalType": "uint256",
          "name": "submissionFee",
          "type": "uint256"
        }
      ],
      "stateMutability": "view",
      "type": "function"
    },
    {
      "inputs": [
        {
          "internalType": "uint256",
          "name": "challengeId",
          "type": "uint256"
        }
      ],
      "name": "deleteChallenge",
      "outputs": [],
      "stateMutability": "nonpayable",
      "type": "function"
    },
    {
      "inputs": [],
      "name": "getChallenges",
      "outputs": [
        {
          "components": [
            {
              "internalType": "uint256",
              "name": "challengeId",
              "type": "uint256"
            },
            {
              "internalType": "bytes32",
              "name": "flagHash",
              "type": "bytes32"
            },
            {
              "internalType": "uint256",
              "name": "reward",
              "type": "uint256"
            },
            {
              "internalType": "string",
              "name": "ipfsHash",
              "type": "string"
            },
            {
              "internalType": "uint8",
              "name": "difficulty",
              "type": "uint8"
            },
            {
              "internalType": "uint256",
              "name": "submissionFee",
              "type": "uint256"
            }
          ],
          "internalType": "struct SmartChallengeUpgradeable.Challenge[]",
          "name": "",
          "type": "tuple[]"
        }
      ],
      "stateMutability": "view",
      "type": "function"
    },
    {
      "inputs": [
        {
          "internalType": "address",
          "name": "_player",
          "type": "address"
        }
      ],
      "name": "getPlayer",
      "outputs": [
        {
          "internalType": "uint256",
          "name": "score",
          "type": "uint256"
        },
        {
          "internalType": "string",
          "name": "profileHash",
          "type": "string"
        }
      ],
      "stateMutability": "view",
      "type": "function"
    },
    {
      "inputs": [],
      "name": "getScores",
      "outputs": [
        {
          "internalType": "address[]",
          "name": "",
          "type": "address[]"
        },
        {
          "internalType": "uint256[]",
          "name": "",
          "type": "uint256[]"
        }
      ],
      "stateMutability": "view",
      "type": "function"
    },
    {
      "inputs": [],
      "name": "initialize",
      "outputs": [],
      "stateMutability": "nonpayable",
      "type": "function"
    },
    {
      "inputs": [
        {
          "internalType": "address",
          "name": "_player",
          "type": "address"
        },
        {
          "internalType": "uint256",
          "name": "_challengeId",
          "type": "uint256"
        }
      ],
      "name": "isChallengeSolved",
      "outputs": [
        {
          "internalType": "bool",
          "name": "",
          "type": "bool"
        }
      ],
      "stateMutability": "view",
      "type": "function"
    },
    {
      "inputs": [],
      "name": "owner",
      "outputs": [
        {
          "internalType": "address",
          "name": "",
          "type": "address"
        }
      ],
      "stateMutability": "view",
      "type": "function"
    },
    {
      "inputs": [],
      "name": "pause",
      "outputs": [],
      "stateMutability": "nonpayable",
      "type": "function"
    },
    {
      "inputs": [],
      "name": "paused",
      "outputs": [
        {
          "internalType": "bool",
          "name": "",
          "type": "bool"
        }
      ],
      "stateMutability": "view",
      "type": "function"
    },
    {
      "inputs": [
        {
          "internalType": "uint256",
          "name": "",
          "type": "uint256"
        }
      ],
      "name": "playerAddresses",
      "outputs": [
        {
          "internalType": "address",
          "name": "",
          "type": "address"
        }
      ],
      "stateMutability": "view",
      "type": "function"
    },
    {
      "inputs": [],
      "name": "proxiableUUID",
      "outputs": [
        {
          "internalType": "bytes32",
          "name": "",
          "type": "bytes32"
        }
      ],
      "stateMutability": "view",
      "type": "function"
    },
    {
      "inputs": [],
      "name": "renounceOwnership",
      "outputs": [],
      "stateMutability": "nonpayable",
      "type": "function"
    },
    {
      "inputs": [
        {
          "internalType": "uint256",
          "name": "_challengeId",
          "type": "uint256"
        },
        {
          "internalType": "string",
          "name": "_flag",
          "type": "string"
        }
      ],
      "name": "submitFlag",
      "outputs": [],
      "stateMutability": "payable",
      "type": "function"
    },
    {
      "inputs": [
        {
          "internalType": "address",
          "name": "newOwner",
          "type": "address"
        }
      ],
      "name": "transferOwnership",
      "outputs": [],
      "stateMutability": "nonpayable",
      "type": "function"
    },
    {
      "inputs": [],
      "name": "unpause",
      "outputs": [],
      "stateMutability": "nonpayable",
      "type": "function"
    },
    {
      "inputs": [
        {
          "internalType": "uint256",
          "name": "challengeId",
          "type": "uint256"
        },
        {
          "internalType": "bytes32",
          "name": "newFlagHash",
          "type": "bytes32"
        },
        {
          "internalType": "uint256",
          "name": "newReward",
          "type": "uint256"
        },
        {
          "internalType": "string",
          "name": "newIpfsHash",
          "type": "string"
        },
        {
          "internalType": "uint8",
          "name": "newDifficulty",
          "type": "uint8"
        },
        {
          "internalType": "uint256",
          "name": "newSubmissionFee",
          "type": "uint256"
        }
      ],
      "name": "updateChallenge",
      "outputs": [],
      "stateMutability": "nonpayable",
      "type": "function"
    },
    {
      "inputs": [
        {
          "internalType": "string",
          "name": "_profileHash",
          "type": "string"
        }
      ],
      "name": "updatePlayerProfile",
      "outputs": [],
      "stateMutability": "nonpayable",
      "type": "function"
    },
    {
      "inputs": [
        {
          "internalType": "address",
          "name": "newImplementation",
          "type": "address"
        }
      ],
      "name": "upgradeTo",
      "outputs": [],
      "stateMutability": "nonpayable",
      "type": "function"
    },
    {
      "inputs": [
        {
          "internalType": "address",
          "name": "newImplementation",
          "type": "address"
        },
        {
          "internalType": "bytes",
          "name": "data",
          "type": "bytes"
        }
      ],
      "name": "upgradeToAndCall",
      "outputs": [],
      "stateMutability": "payable",
      "type": "function"
    },
    {
      "inputs": [],
      "name": "withdraw",
      "outputs": [],
      "stateMutability": "nonpayable",
      "type": "function"
    }
  ],
  "bytecode": "0x60a06040523073ffffffffffffffffffffffffffffffffffffffff1660809073ffffffffffffffffffffffffffffffffffffffff168152503480156200004457600080fd5b50620000556200005b60201b60201c565b62000205565b600060019054906101000a900460ff1615620000ae576040517f08c379a0000000000000000000000000000000000000000000000000000000008152600401620000a590620001a8565b60405180910390fd5b60ff801660008054906101000a900460ff1660ff16146200011f5760ff6000806101000a81548160ff021916908360ff1602179055507f7f26b83ff96e1f2b6a682f133852f6798a09c465da95921460cefb384740249860ff604051620001169190620001e8565b60405180910390a15b565b600082825260208201905092915050565b7f496e697469616c697a61626c653a20636f6e747261637420697320696e69746960008201527f616c697a696e6700000000000000000000000000000000000000000000000000602082015250565b60006200019060278362000121565b91506200019d8262000132565b604082019050919050565b60006020820190508181036000830152620001c38162000181565b9050919050565b600060ff82169050919050565b620001e281620001ca565b82525050565b6000602082019050620001ff6000830184620001d7565b92915050565b6080516141366200023d6000396000818161083e015281816108cc01528181610c1301528181610ca10152610d5101526141366000f3fe6080604052600436106101405760003560e01c80635c975abb116100b65780638da5cb5b1161006f5780638da5cb5b146103d05780638f1d3776146103fb578063c98c399a1461043d578063f25a6ed714610466578063f2fde38b1461048f578063f7fed02c146104b857610140565b80635c975abb14610307578063715018a61461033257806371cc1480146103495780637f1a1a4e146103865780638129fc1c146103a25780638456cb59146103b957610140565b80633ccfd60b116101085780633ccfd60b146102295780633f4ba83a1461024057806346c7c126146102575780634f1ef2861461028257806352d1902d1461029e5780635c12cd4b146102c957610140565b806311a5800d14610145578063147851b31461016e57806315c6aee2146101975780631ea1380c146101d45780633659cfe614610200575b600080fd5b34801561015157600080fd5b5061016c6004803603810190610167919061252a565b6104e3565b005b34801561017a57600080fd5b50610195600480360381019061019091906125bc565b6105a3565b005b3480156101a357600080fd5b506101be60048036038101906101b9919061252a565b61064a565b6040516101cb919061264a565b60405180910390f35b3480156101e057600080fd5b506101e961068a565b6040516101f79291906127e1565b60405180910390f35b34801561020c57600080fd5b5061022760048036038101906102229190612844565b61083c565b005b34801561023557600080fd5b5061023e6109c4565b005b34801561024c57600080fd5b50610255610a65565b005b34801561026357600080fd5b5061026c610a77565b6040516102799190612a81565b60405180910390f35b61029c60048036038101906102979190612bd3565b610c11565b005b3480156102aa57600080fd5b506102b3610d4d565b6040516102c09190612c3e565b60405180910390f35b3480156102d557600080fd5b506102f060048036038101906102eb9190612844565b610e06565b6040516102fe929190612cb2565b60405180910390f35b34801561031357600080fd5b5061031c610f26565b6040516103299190612cfd565b60405180910390f35b34801561033e57600080fd5b50610347610f3d565b005b34801561035557600080fd5b50610370600480360381019061036b9190612d18565b610f51565b60405161037d9190612cfd565b60405180910390f35b6103a0600480360381019061039b9190612d58565b610fbd565b005b3480156103ae57600080fd5b506103b76113d9565b005b3480156103c557600080fd5b506103ce61152f565b005b3480156103dc57600080fd5b506103e5611541565b6040516103f2919061264a565b60405180910390f35b34801561040757600080fd5b50610422600480360381019061041d919061252a565b61156b565b60405161043496959493929190612dc7565b60405180910390f35b34801561044957600080fd5b50610464600480360381019061045f9190612e87565b61163d565b005b34801561047257600080fd5b5061048d60048036038101906104889190612f36565b611794565b005b34801561049b57600080fd5b506104b660048036038101906104b19190612844565b61198a565b005b3480156104c457600080fd5b506104cd611a0d565b6040516104da9190612fd0565b60405180910390f35b6104eb611a14565b600061012e60008381526020019081526020016000206002015411610545576040517f08c379a000000000000000000000000000000000000000000000000000000000815260040161053c90613037565b60405180910390fd5b61012e6000828152602001908152602001600020600080820160009055600182016000905560028201600090556003820160006105829190612447565b6004820160006101000a81549060ff02191690556005820160009055505050565b818161012f60003373ffffffffffffffffffffffffffffffffffffffff1673ffffffffffffffffffffffffffffffffffffffff16815260200190815260200160002060030191826105f592919061326e565b503373ffffffffffffffffffffffffffffffffffffffff167f4065fa66156ee33e13397293f7c2fd228a7a5106fc5d5663b1b14014f09d0405838360405161063e92919061336b565b60405180910390a25050565b610130818154811061065b57600080fd5b906000526020600020016000915054906101000a900473ffffffffffffffffffffffffffffffffffffffff1681565b60608060006101308054905067ffffffffffffffff8111156106af576106ae612aa8565b5b6040519080825280602002602001820160405280156106dd5781602001602082028036833780820191505090505b50905060005b610130805490508110156107a65761012f6000610130838154811061070b5761070a61338f565b5b9060005260206000200160009054906101000a900473ffffffffffffffffffffffffffffffffffffffff1673ffffffffffffffffffffffffffffffffffffffff1673ffffffffffffffffffffffffffffffffffffffff168152602001908152602001600020600101548282815181106107875761078661338f565b5b602002602001018181525050808061079e906133ed565b9150506106e3565b50610130818180548060200260200160405190810160405280929190818152602001828054801561082c57602002820191906000526020600020905b8160009054906101000a900473ffffffffffffffffffffffffffffffffffffffff1673ffffffffffffffffffffffffffffffffffffffff16815260200190600101908083116107e2575b5050505050915092509250509091565b7f000000000000000000000000000000000000000000000000000000000000000073ffffffffffffffffffffffffffffffffffffffff163073ffffffffffffffffffffffffffffffffffffffff16036108ca576040517f08c379a00000000000000000000000000000000000000000000000000000000081526004016108c1906134a7565b60405180910390fd5b7f000000000000000000000000000000000000000000000000000000000000000073ffffffffffffffffffffffffffffffffffffffff16610909611a92565b73ffffffffffffffffffffffffffffffffffffffff161461095f576040517f08c379a000000000000000000000000000000000000000000000000000000000815260040161095690613539565b60405180910390fd5b61096881611ae9565b6109c181600067ffffffffffffffff81111561098757610986612aa8565b5b6040519080825280601f01601f1916602001820160405280156109b95781602001600182028036833780820191505090505b506000611af4565b50565b6109cc611a14565b600047905060008111610a14576040517f08c379a0000000000000000000000000000000000000000000000000000000008152600401610a0b906135a5565b60405180910390fd5b610a1c611541565b73ffffffffffffffffffffffffffffffffffffffff166108fc829081150290604051600060405180830381858888f19350505050158015610a61573d6000803e3d6000fd5b5050565b610a6d611a14565b610a75611c62565b565b6060600061012d5467ffffffffffffffff811115610a9857610a97612aa8565b5b604051908082528060200260200182016040528015610ad157816020015b610abe612487565b815260200190600190039081610ab65790505b50905060005b61012d54811015610c095761012e60008281526020019081526020016000206040518060c0016040529081600082015481526020016001820154815260200160028201548152602001600382018054610b2f90613091565b80601f0160208091040260200160405190810160405280929190818152602001828054610b5b90613091565b8015610ba85780601f10610b7d57610100808354040283529160200191610ba8565b820191906000526020600020905b815481529060010190602001808311610b8b57829003601f168201915b505050505081526020016004820160009054906101000a900460ff1660ff1660ff168152602001600582015481525050828281518110610beb57610bea61338f565b5b60200260200101819052508080610c01906133ed565b915050610ad7565b508091505090565b7f000000000000000000000000000000000000000000000000000000000000000073ffffffffffffffffffffffffffffffffffffffff163073ffffffffffffffffffffffffffffffffffffffff1603610c9f576040517f08c379a0000000000000000000000000000000000000000000000000000000008152600401610c96906134a7565b60405180910390fd5b7f000000000000000000000000000000000000000000000000000000000000000073ffffffffffffffffffffffffffffffffffffffff16610cde611a92565b73ffffffffffffffffffffffffffffffffffffffff1614610d34576040517f08c379a0000000000000000000000000000000000000000000000000000000008152600401610d2b90613539565b60405180910390fd5b610d3d82611ae9565b610d4982826001611af4565b5050565b60007f000000000000000000000000000000000000000000000000000000000000000073ffffffffffffffffffffffffffffffffffffffff163073ffffffffffffffffffffffffffffffffffffffff1614610ddd576040517f08c379a0000000000000000000000000000000000000000000000000000000008152600401610dd490613637565b60405180910390fd5b7f360894a13ba1a3210667c828492db98dca3e2076cc3735a920a3ca505d382bbc60001b905090565b6000606061012f60008473ffffffffffffffffffffffffffffffffffffffff1673ffffffffffffffffffffffffffffffffffffffff1681526020019081526020016000206001015461012f60008573ffffffffffffffffffffffffffffffffffffffff1673ffffffffffffffffffffffffffffffffffffffff168152602001908152602001600020600301808054610e9d90613091565b80601f0160208091040260200160405190810160405280929190818152602001828054610ec990613091565b8015610f165780601f10610eeb57610100808354040283529160200191610f16565b820191906000526020600020905b815481529060010190602001808311610ef957829003601f168201915b5050505050905091509150915091565b600060c960009054906101000a900460ff16905090565b610f45611a14565b610f4f6000611cc5565b565b600061012f60008473ffffffffffffffffffffffffffffffffffffffff1673ffffffffffffffffffffffffffffffffffffffff168152602001908152602001600020600201600083815260200190815260200160002060009054906101000a900460ff16905092915050565b610fc5611d8b565b610fcd611dd5565b600061012e60008581526020019081526020016000209050806005015434101561102c576040517f08c379a0000000000000000000000000000000000000000000000000000000008152600401611023906136a3565b60405180910390fd5b60008383905011611072576040517f08c379a00000000000000000000000000000000000000000000000000000000081526004016110699061370f565b60405180910390fd5b61012f60003373ffffffffffffffffffffffffffffffffffffffff1673ffffffffffffffffffffffffffffffffffffffff168152602001908152602001600020600201600085815260200190815260200160002060009054906101000a900460ff1615611114576040517f08c379a000000000000000000000000000000000000000000000000000000000815260040161110b9061377b565b60405180910390fd5b60008160010154848460405160200161112e9291906137cb565b60405160208183030381529060405280519060200120149050801561137a5761012f60003373ffffffffffffffffffffffffffffffffffffffff1673ffffffffffffffffffffffffffffffffffffffff16815260200190815260200160002060000160009054906101000a900460ff1661126357600161012f60003373ffffffffffffffffffffffffffffffffffffffff1673ffffffffffffffffffffffffffffffffffffffff16815260200190815260200160002060000160006101000a81548160ff021916908315150217905550610130339080600181540180825580915050600190039060005260206000200160009091909190916101000a81548173ffffffffffffffffffffffffffffffffffffffff021916908373ffffffffffffffffffffffffffffffffffffffff1602179055505b600161012f60003373ffffffffffffffffffffffffffffffffffffffff1673ffffffffffffffffffffffffffffffffffffffff168152602001908152602001600020600201600087815260200190815260200160002060006101000a81548160ff021916908315150217905550816002015461012f60003373ffffffffffffffffffffffffffffffffffffffff1673ffffffffffffffffffffffffffffffffffffffff168152602001908152602001600020600101600082825461132791906137e4565b925050819055503373ffffffffffffffffffffffffffffffffffffffff166108fc83600201549081150290604051600060405180830381858888f19350505050158015611378573d6000803e3d6000fd5b505b3373ffffffffffffffffffffffffffffffffffffffff167f99ff60502ac5007f259fabfd2c017ecb4fce1819ff4ea41c339a03a6534b919386836040516113c2929190613818565b60405180910390a250506113d4611e24565b505050565b60008060019054906101000a900460ff1615905080801561140a5750600160008054906101000a900460ff1660ff16105b80611437575061141930611e2e565b1580156114365750600160008054906101000a900460ff1660ff16145b5b611476576040517f08c379a000000000000000000000000000000000000000000000000000000000815260040161146d906138b3565b60405180910390fd5b60016000806101000a81548160ff021916908360ff16021790555080156114b3576001600060016101000a81548160ff0219169083151502179055505b6114bb611e51565b6114c3611eaa565b6114cb611efb565b6114d3611f54565b801561152c5760008060016101000a81548160ff0219169083151502179055507f7f26b83ff96e1f2b6a682f133852f6798a09c465da95921460cefb38474024986001604051611523919061390e565b60405180910390a15b50565b611537611a14565b61153f611fad565b565b6000603360009054906101000a900473ffffffffffffffffffffffffffffffffffffffff16905090565b61012e6020528060005260406000206000915090508060000154908060010154908060020154908060030180546115a190613091565b80601f01602080910402602001604051908101604052809291908181526020018280546115cd90613091565b801561161a5780601f106115ef5761010080835404028352916020019161161a565b820191906000526020600020905b8154815290600101906020018083116115fd57829003601f168201915b5050505050908060040160009054906101000a900460ff16908060050154905086565b611645611a14565b60008511611688576040517f08c379a000000000000000000000000000000000000000000000000000000000815260040161167f90613975565b60405180910390fd5b60018260ff16101580156116a0575060058260ff1611155b6116df576040517f08c379a00000000000000000000000000000000000000000000000000000000081526004016116d6906139e1565b60405180910390fd5b600061012e60008981526020019081526020016000209050600081600201541161173e576040517f08c379a000000000000000000000000000000000000000000000000000000000815260040161173590613037565b60405180910390fd5b868160010181905550858160020181905550848482600301918261176392919061326e565b50828160040160006101000a81548160ff021916908360ff1602179055508181600501819055505050505050505050565b61179c611a14565b600085116117df576040517f08c379a00000000000000000000000000000000000000000000000000000000081526004016117d690613975565b60405180910390fd5b60018260ff16101580156117f7575060058260ff1611155b611836576040517f08c379a000000000000000000000000000000000000000000000000000000000815260040161182d906139e1565b60405180910390fd5b6040518060c0016040528061012d54815260200187815260200186815260200185858080601f016020809104026020016040519081016040528093929190818152602001838380828437600081840152601f19601f8201169050808301925050505050505081526020018360ff1681526020018281525061012e600061012d54815260200190815260200160002060008201518160000155602082015181600101556040820151816002015560608201518160030190816118f79190613a01565b5060808201518160040160006101000a81548160ff021916908360ff16021790555060a0820151816005015590505061012d547f767b04b6d502be6af8ac3efa8f208829cad714a56ed13f0e2c518f09f68dfe848787878787604051611961959493929190613ad3565b60405180910390a261012d600081548092919061197d906133ed565b9190505550505050505050565b611992611a14565b600073ffffffffffffffffffffffffffffffffffffffff168173ffffffffffffffffffffffffffffffffffffffff1603611a01576040517f08c379a00000000000000000000000000000000000000000000000000000000081526004016119f890613b93565b60405180910390fd5b611a0a81611cc5565b50565b61012d5481565b611a1c612010565b73ffffffffffffffffffffffffffffffffffffffff16611a3a611541565b73ffffffffffffffffffffffffffffffffffffffff1614611a90576040517f08c379a0000000000000000000000000000000000000000000000000000000008152600401611a8790613bff565b60405180910390fd5b565b6000611ac07f360894a13ba1a3210667c828492db98dca3e2076cc3735a920a3ca505d382bbc60001b612018565b60000160009054906101000a900473ffffffffffffffffffffffffffffffffffffffff16905090565b611af1611a14565b50565b611b207f4910fdfa16fed3260ed0e7147f7cc6da11a60208b5b9406d12a635614ffd914360001b612022565b60000160009054906101000a900460ff1615611b4457611b3f8361202c565b611c5d565b8273ffffffffffffffffffffffffffffffffffffffff166352d1902d6040518163ffffffff1660e01b8152600401602060405180830381865afa925050508015611bac57506040513d601f19601f82011682018060405250810190611ba99190613c34565b60015b611beb576040517f08c379a0000000000000000000000000000000000000000000000000000000008152600401611be290613cd3565b60405180910390fd5b7f360894a13ba1a3210667c828492db98dca3e2076cc3735a920a3ca505d382bbc60001b8114611c50576040517f08c379a0000000000000000000000000000000000000000000000000000000008152600401611c4790613d65565b60405180910390fd5b50611c5c8383836120e5565b5b505050565b611c6a612111565b600060c960006101000a81548160ff0219169083151502179055507f5db9ee0a495bf2e6ff9c91a7834c1ba4fdd244a5e8aa4e537bd38aeae4b073aa611cae612010565b604051611cbb919061264a565b60405180910390a1565b6000603360009054906101000a900473ffffffffffffffffffffffffffffffffffffffff16905081603360006101000a81548173ffffffffffffffffffffffffffffffffffffffff021916908373ffffffffffffffffffffffffffffffffffffffff1602179055508173ffffffffffffffffffffffffffffffffffffffff168173ffffffffffffffffffffffffffffffffffffffff167f8be0079c531659141344cd1fd0a4f28419497f9722a3daafe3b4186f6b6457e060405160405180910390a35050565b611d93610f26565b15611dd3576040517f08c379a0000000000000000000000000000000000000000000000000000000008152600401611dca90613dd1565b60405180910390fd5b565b600260fb5403611e1a576040517f08c379a0000000000000000000000000000000000000000000000000000000008152600401611e1190613e3d565b60405180910390fd5b600260fb81905550565b600160fb81905550565b6000808273ffffffffffffffffffffffffffffffffffffffff163b119050919050565b600060019054906101000a900460ff16611ea0576040517f08c379a0000000000000000000000000000000000000000000000000000000008152600401611e9790613ecf565b60405180910390fd5b611ea861215a565b565b600060019054906101000a900460ff16611ef9576040517f08c379a0000000000000000000000000000000000000000000000000000000008152600401611ef090613ecf565b60405180910390fd5b565b600060019054906101000a900460ff16611f4a576040517f08c379a0000000000000000000000000000000000000000000000000000000008152600401611f4190613ecf565b60405180910390fd5b611f526121bb565b565b600060019054906101000a900460ff16611fa3576040517f08c379a0000000000000000000000000000000000000000000000000000000008152600401611f9a90613ecf565b60405180910390fd5b611fab612227565b565b611fb5611d8b565b600160c960006101000a81548160ff0219169083151502179055507f62e78cea01bee320cd4e420270b5ea74000d11b0c9f74754ebdbfc544b05a258611ff9612010565b604051612006919061264a565b60405180910390a1565b600033905090565b6000819050919050565b6000819050919050565b61203581611e2e565b612074576040517f08c379a000000000000000000000000000000000000000000000000000000000815260040161206b90613f61565b60405180910390fd5b806120a17f360894a13ba1a3210667c828492db98dca3e2076cc3735a920a3ca505d382bbc60001b612018565b60000160006101000a81548173ffffffffffffffffffffffffffffffffffffffff021916908373ffffffffffffffffffffffffffffffffffffffff16021790555050565b6120ee83612280565b6000825111806120fb5750805b1561210c5761210a83836122cf565b505b505050565b612119610f26565b612158576040517f08c379a000000000000000000000000000000000000000000000000000000000815260040161214f90613fcd565b60405180910390fd5b565b600060019054906101000a900460ff166121a9576040517f08c379a00000000000000000000000000000000000000000000000000000000081526004016121a090613ecf565b60405180910390fd5b6121b96121b4612010565b611cc5565b565b600060019054906101000a900460ff1661220a576040517f08c379a000000000000000000000000000000000000000000000000000000000815260040161220190613ecf565b60405180910390fd5b600060c960006101000a81548160ff021916908315150217905550565b600060019054906101000a900460ff16612276576040517f08c379a000000000000000000000000000000000000000000000000000000000815260040161226d90613ecf565b60405180910390fd5b600160fb81905550565b6122898161202c565b8073ffffffffffffffffffffffffffffffffffffffff167fbc7cd75a20ee27fd9adebab32041f755214dbc6bffa90cc0225b39da2e5c2d3b60405160405180910390a250565b60606122f483836040518060600160405280602781526020016140da602791396122fc565b905092915050565b60606000808573ffffffffffffffffffffffffffffffffffffffff16856040516123269190614034565b600060405180830381855af49150503d8060008114612361576040519150601f19603f3d011682016040523d82523d6000602084013e612366565b606091505b509150915061237786838387612382565b925050509392505050565b606083156123e45760008351036123dc5761239c85611e2e565b6123db576040517f08c379a00000000000000000000000000000000000000000000000000000000081526004016123d290614097565b60405180910390fd5b5b8290506123ef565b6123ee83836123f7565b5b949350505050565b60008251111561240a5781518083602001fd5b806040517f08c379a000000000000000000000000000000000000000000000000000000000815260040161243e91906140b7565b60405180910390fd5b50805461245390613091565b6000825580601f106124655750612484565b601f01602090049060005260206000209081019061248391906124c3565b5b50565b6040518060c0016040528060008152602001600080191681526020016000815260200160608152602001600060ff168152602001600081525090565b5b808211156124dc5760008160009055506001016124c4565b5090565b6000604051905090565b600080fd5b600080fd5b6000819050919050565b612507816124f4565b811461251257600080fd5b50565b600081359050612524816124fe565b92915050565b6000602082840312156125405761253f6124ea565b5b600061254e84828501612515565b91505092915050565b600080fd5b600080fd5b600080fd5b60008083601f84011261257c5761257b612557565b5b8235905067ffffffffffffffff8111156125995761259861255c565b5b6020830191508360018202830111156125b5576125b4612561565b5b9250929050565b600080602083850312156125d3576125d26124ea565b5b600083013567ffffffffffffffff8111156125f1576125f06124ef565b5b6125fd85828601612566565b92509250509250929050565b600073ffffffffffffffffffffffffffffffffffffffff82169050919050565b600061263482612609565b9050919050565b61264481612629565b82525050565b600060208201905061265f600083018461263b565b92915050565b600081519050919050565b600082825260208201905092915050565b6000819050602082019050919050565b61269a81612629565b82525050565b60006126ac8383612691565b60208301905092915050565b6000602082019050919050565b60006126d082612665565b6126da8185612670565b93506126e583612681565b8060005b838110156127165781516126fd88826126a0565b9750612708836126b8565b9250506001810190506126e9565b5085935050505092915050565b600081519050919050565b600082825260208201905092915050565b6000819050602082019050919050565b612758816124f4565b82525050565b600061276a838361274f565b60208301905092915050565b6000602082019050919050565b600061278e82612723565b612798818561272e565b93506127a38361273f565b8060005b838110156127d45781516127bb888261275e565b97506127c683612776565b9250506001810190506127a7565b5085935050505092915050565b600060408201905081810360008301526127fb81856126c5565b9050818103602083015261280f8184612783565b90509392505050565b61282181612629565b811461282c57600080fd5b50565b60008135905061283e81612818565b92915050565b60006020828403121561285a576128596124ea565b5b60006128688482850161282f565b91505092915050565b600081519050919050565b600082825260208201905092915050565b6000819050602082019050919050565b6000819050919050565b6128b08161289d565b82525050565b600081519050919050565b600082825260208201905092915050565b60005b838110156128f05780820151818401526020810190506128d5565b60008484015250505050565b6000601f19601f8301169050919050565b6000612918826128b6565b61292281856128c1565b93506129328185602086016128d2565b61293b816128fc565b840191505092915050565b600060ff82169050919050565b61295c81612946565b82525050565b600060c08301600083015161297a600086018261274f565b50602083015161298d60208601826128a7565b5060408301516129a0604086018261274f565b50606083015184820360608601526129b8828261290d565b91505060808301516129cd6080860182612953565b5060a08301516129e060a086018261274f565b508091505092915050565b60006129f78383612962565b905092915050565b6000602082019050919050565b6000612a1782612871565b612a21818561287c565b935083602082028501612a338561288d565b8060005b85811015612a6f5784840389528151612a5085826129eb565b9450612a5b836129ff565b925060208a01995050600181019050612a37565b50829750879550505050505092915050565b60006020820190508181036000830152612a9b8184612a0c565b905092915050565b600080fd5b7f4e487b7100000000000000000000000000000000000000000000000000000000600052604160045260246000fd5b612ae0826128fc565b810181811067ffffffffffffffff82111715612aff57612afe612aa8565b5b80604052505050565b6000612b126124e0565b9050612b1e8282612ad7565b919050565b600067ffffffffffffffff821115612b3e57612b3d612aa8565b5b612b47826128fc565b9050602081019050919050565b82818337600083830152505050565b6000612b76612b7184612b23565b612b08565b905082815260208101848484011115612b9257612b91612aa3565b5b612b9d848285612b54565b509392505050565b600082601f830112612bba57612bb9612557565b5b8135612bca848260208601612b63565b91505092915050565b60008060408385031215612bea57612be96124ea565b5b6000612bf88582860161282f565b925050602083013567ffffffffffffffff811115612c1957612c186124ef565b5b612c2585828601612ba5565b9150509250929050565b612c388161289d565b82525050565b6000602082019050612c536000830184612c2f565b92915050565b612c62816124f4565b82525050565b600082825260208201905092915050565b6000612c84826128b6565b612c8e8185612c68565b9350612c9e8185602086016128d2565b612ca7816128fc565b840191505092915050565b6000604082019050612cc76000830185612c59565b8181036020830152612cd98184612c79565b90509392505050565b60008115159050919050565b612cf781612ce2565b82525050565b6000602082019050612d126000830184612cee565b92915050565b60008060408385031215612d2f57612d2e6124ea565b5b6000612d3d8582860161282f565b9250506020612d4e85828601612515565b9150509250929050565b600080600060408486031215612d7157612d706124ea565b5b6000612d7f86828701612515565b935050602084013567ffffffffffffffff811115612da057612d9f6124ef565b5b612dac86828701612566565b92509250509250925092565b612dc181612946565b82525050565b600060c082019050612ddc6000830189612c59565b612de96020830188612c2f565b612df66040830187612c59565b8181036060830152612e088186612c79565b9050612e176080830185612db8565b612e2460a0830184612c59565b979650505050505050565b612e388161289d565b8114612e4357600080fd5b50565b600081359050612e5581612e2f565b92915050565b612e6481612946565b8114612e6f57600080fd5b50565b600081359050612e8181612e5b565b92915050565b600080600080600080600060c0888a031215612ea657612ea56124ea565b5b6000612eb48a828b01612515565b9750506020612ec58a828b01612e46565b9650506040612ed68a828b01612515565b955050606088013567ffffffffffffffff811115612ef757612ef66124ef565b5b612f038a828b01612566565b94509450506080612f168a828b01612e72565b92505060a0612f278a828b01612515565b91505092959891949750929550565b60008060008060008060a08789031215612f5357612f526124ea565b5b6000612f6189828a01612e46565b9650506020612f7289828a01612515565b955050604087013567ffffffffffffffff811115612f9357612f926124ef565b5b612f9f89828a01612566565b94509450506060612fb289828a01612e72565b9250506080612fc389828a01612515565b9150509295509295509295565b6000602082019050612fe56000830184612c59565b92915050565b7f4368616c6c656e676520646f6573206e6f742065786973740000000000000000600082015250565b6000613021601883612c68565b915061302c82612feb565b602082019050919050565b6000602082019050818103600083015261305081613014565b9050919050565b600082905092915050565b7f4e487b7100000000000000000000000000000000000000000000000000000000600052602260045260246000fd5b600060028204905060018216806130a957607f821691505b6020821081036130bc576130bb613062565b5b50919050565b60008190508160005260206000209050919050565b60006020601f8301049050919050565b600082821b905092915050565b6000600883026131247fffffffffffffffffffffffffffffffffffffffffffffffffffffffffffffffff826130e7565b61312e86836130e7565b95508019841693508086168417925050509392505050565b6000819050919050565b600061316b613166613161846124f4565b613146565b6124f4565b9050919050565b6000819050919050565b61318583613150565b61319961319182613172565b8484546130f4565b825550505050565b600090565b6131ae6131a1565b6131b981848461317c565b505050565b5b818110156131dd576131d26000826131a6565b6001810190506131bf565b5050565b601f821115613222576131f3816130c2565b6131fc846130d7565b8101602085101561320b578190505b61321f613217856130d7565b8301826131be565b50505b505050565b600082821c905092915050565b600061324560001984600802613227565b1980831691505092915050565b600061325e8383613234565b9150826002028217905092915050565b6132788383613057565b67ffffffffffffffff81111561329157613290612aa8565b5b61329b8254613091565b6132a68282856131e1565b6000601f8311600181146132d557600084156132c3578287013590505b6132cd8582613252565b865550613335565b601f1984166132e3866130c2565b60005b8281101561330b578489013582556001820191506020850194506020810190506132e6565b868310156133285784890135613324601f891682613234565b8355505b6001600288020188555050505b50505050505050565b600061334a8385612c68565b9350613357838584612b54565b613360836128fc565b840190509392505050565b6000602082019050818103600083015261338681848661333e565b90509392505050565b7f4e487b7100000000000000000000000000000000000000000000000000000000600052603260045260246000fd5b7f4e487b7100000000000000000000000000000000000000000000000000000000600052601160045260246000fd5b60006133f8826124f4565b91507fffffffffffffffffffffffffffffffffffffffffffffffffffffffffffffffff820361342a576134296133be565b5b600182019050919050565b7f46756e6374696f6e206d7573742062652063616c6c6564207468726f7567682060008201527f64656c656761746563616c6c0000000000000000000000000000000000000000602082015250565b6000613491602c83612c68565b915061349c82613435565b604082019050919050565b600060208201905081810360008301526134c081613484565b9050919050565b7f46756e6374696f6e206d7573742062652063616c6c6564207468726f7567682060008201527f6163746976652070726f78790000000000000000000000000000000000000000602082015250565b6000613523602c83612c68565b915061352e826134c7565b604082019050919050565b6000602082019050818103600083015261355281613516565b9050919050565b7f4e6f2062616c616e636520746f20776974686472617700000000000000000000600082015250565b600061358f601683612c68565b915061359a82613559565b602082019050919050565b600060208201905081810360008301526135be81613582565b9050919050565b7f555550535570677261646561626c653a206d757374206e6f742062652063616c60008201527f6c6564207468726f7567682064656c656761746563616c6c0000000000000000602082015250565b6000613621603883612c68565b915061362c826135c5565b604082019050919050565b6000602082019050818103600083015261365081613614565b9050919050565b7f496e73756666696369656e742066656500000000000000000000000000000000600082015250565b600061368d601083612c68565b915061369882613657565b602082019050919050565b600060208201905081810360008301526136bc81613680565b9050919050565b7f466c616720697320656d70747900000000000000000000000000000000000000600082015250565b60006136f9600d83612c68565b9150613704826136c3565b602082019050919050565b60006020820190508181036000830152613728816136ec565b9050919050565b7f416c726561647920736f6c766564000000000000000000000000000000000000600082015250565b6000613765600e83612c68565b91506137708261372f565b602082019050919050565b6000602082019050818103600083015261379481613758565b9050919050565b600081905092915050565b60006137b2838561379b565b93506137bf838584612b54565b82840190509392505050565b60006137d88284866137a6565b91508190509392505050565b60006137ef826124f4565b91506137fa836124f4565b9250828201905080821115613812576138116133be565b5b92915050565b600060408201905061382d6000830185612c59565b61383a6020830184612cee565b9392505050565b7f496e697469616c697a61626c653a20636f6e747261637420697320616c72656160008201527f647920696e697469616c697a6564000000000000000000000000000000000000602082015250565b600061389d602e83612c68565b91506138a882613841565b604082019050919050565b600060208201905081810360008301526138cc81613890565b9050919050565b6000819050919050565b60006138f86138f36138ee846138d3565b613146565b612946565b9050919050565b613908816138dd565b82525050565b600060208201905061392360008301846138ff565b92915050565b7f526577617264206d757374206265203e20300000000000000000000000000000600082015250565b600061395f601283612c68565b915061396a82613929565b602082019050919050565b6000602082019050818103600083015261398e81613952565b9050919050565b7f496e76616c696420646966666963756c74790000000000000000000000000000600082015250565b60006139cb601283612c68565b91506139d682613995565b602082019050919050565b600060208201905081810360008301526139fa816139be565b9050919050565b613a0a826128b6565b67ffffffffffffffff811115613a2357613a22612aa8565b5b613a2d8254613091565b613a388282856131e1565b600060209050601f831160018114613a6b5760008415613a59578287015190505b613a638582613252565b865550613acb565b601f198416613a79866130c2565b60005b82811015613aa157848901518255600182019150602085019450602081019050613a7c565b86831015613abe5784890151613aba601f891682613234565b8355505b6001600288020188555050505b505050505050565b6000608082019050613ae86000830188612c2f565b613af56020830187612c59565b8181036040830152613b0881858761333e565b9050613b176060830184612db8565b9695505050505050565b7f4f776e61626c653a206e6577206f776e657220697320746865207a65726f206160008201527f6464726573730000000000000000000000000000000000000000000000000000602082015250565b6000613b7d602683612c68565b9150613b8882613b21565b604082019050919050565b60006020820190508181036000830152613bac81613b70565b9050919050565b7f4f776e61626c653a2063616c6c6572206973206e6f7420746865206f776e6572600082015250565b6000613be9602083612c68565b9150613bf482613bb3565b602082019050919050565b60006020820190508181036000830152613c1881613bdc565b9050919050565b600081519050613c2e81612e2f565b92915050565b600060208284031215613c4a57613c496124ea565b5b6000613c5884828501613c1f565b91505092915050565b7f45524331393637557067726164653a206e657720696d706c656d656e7461746960008201527f6f6e206973206e6f742055555053000000000000000000000000000000000000602082015250565b6000613cbd602e83612c68565b9150613cc882613c61565b604082019050919050565b60006020820190508181036000830152613cec81613cb0565b9050919050565b7f45524331393637557067726164653a20756e737570706f727465642070726f7860008201527f6961626c65555549440000000000000000000000000000000000000000000000602082015250565b6000613d4f602983612c68565b9150613d5a82613cf3565b604082019050919050565b60006020820190508181036000830152613d7e81613d42565b9050919050565b7f5061757361626c653a2070617573656400000000000000000000000000000000600082015250565b6000613dbb601083612c68565b9150613dc682613d85565b602082019050919050565b60006020820190508181036000830152613dea81613dae565b9050919050565b7f5265656e7472616e637947756172643a207265656e7472616e742063616c6c00600082015250565b6000613e27601f83612c68565b9150613e3282613df1565b602082019050919050565b60006020820190508181036000830152613e5681613e1a565b9050919050565b7f496e697469616c697a61626c653a20636f6e7472616374206973206e6f74206960008201527f6e697469616c697a696e67000000000000000000000000000000000000000000602082015250565b6000613eb9602b83612c68565b9150613ec482613e5d565b604082019050919050565b60006020820190508181036000830152613ee881613eac565b9050919050565b7f455243313936373a206e657720696d706c656d656e746174696f6e206973206e60008201527f6f74206120636f6e747261637400000000000000000000000000000000000000602082015250565b6000613f4b602d83612c68565b9150613f5682613eef565b604082019050919050565b60006020820190508181036000830152613f7a81613f3e565b9050919050565b7f5061757361626c653a206e6f7420706175736564000000000000000000000000600082015250565b6000613fb7601483612c68565b9150613fc282613f81565b602082019050919050565b60006020820190508181036000830152613fe681613faa565b9050919050565b600081519050919050565b600081905092915050565b600061400e82613fed565b6140188185613ff8565b93506140288185602086016128d2565b80840191505092915050565b60006140408284614003565b915081905092915050565b7f416464726573733a2063616c6c20746f206e6f6e2d636f6e7472616374000000600082015250565b6000614081601d83612c68565b915061408c8261404b565b602082019050919050565b600060208201905081810360008301526140b081614074565b9050919050565b600060208201905081810360008301526140d18184612c79565b90509291505056fe416464726573733a206c6f772d6c6576656c2064656c65676174652063616c6c206661696c6564a2646970667358221220ee8c12557c2c9e9e5d7658686d2d16f11db52b98467c4cca9e18a6de39deef2864736f6c63430008140033",
  "linkReferences": {},
  "deployedLinkReferences": {}
}