{
  "_format": "hh-sol-artifact-1",
  "contractName": "SmartChallengeUpgradeable",
  "sourceName": "contracts/SmartChallengeUpgradeable.sol",
  "abi": [
    {
      "inputs": [],
      "stateMutability": "nonpayable",
      "type": "constructor"
    },
    {
      "anonymous": false,
      "inputs": [
        {
          "indexed": false,
          "internalType": "address",
          "name": "previousAdmin",
          "type": "address"
        },
        {
          "indexed": false,
          "internalType": "address",
          "name": "newAdmin",
          "type": "address"
        }
      ],
      "name": "AdminChanged",
      "type": "event"
    },
    {
      "anonymous": false,
      "inputs": [
        {
          "indexed": true,
          "internalType": "address",
          "name": "beacon",
          "type": "address"
        }
      ],
      "name": "BeaconUpgraded",
      "type": "event"
    },
    {
      "anonymous": false,
      "inputs": [
        {
          "indexed": true,
          "internalType": "uint256",
          "name": "challengeId",
          "type": "uint256"
        },
        {
          "indexed": false,
          "internalType": "bytes32",
          "name": "flagHash",
          "type": "bytes32"
        },
        {
          "indexed": false,
          "internalType": "uint256",
          "name": "reward",
          "type": "uint256"
        },
        {
          "indexed": false,
          "internalType": "string",
          "name": "ipfsHash",
          "type": "string"
        },
        {
          "indexed": false,
          "internalType": "uint8",
          "name": "difficulty",
          "type": "uint8"
        }
      ],
      "name": "ChallengeAdded",
      "type": "event"
    },
    {
      "anonymous": false,
      "inputs": [
        {
          "indexed": true,
          "internalType": "address",
          "name": "player",
          "type": "address"
        },
        {
          "indexed": false,
          "internalType": "uint256",
          "name": "challengeId",
          "type": "uint256"
        },
        {
          "indexed": false,
          "internalType": "bool",
          "name": "correct",
          "type": "bool"
        }
      ],
      "name": "ChallengeSubmitted",
      "type": "event"
    },
    {
      "anonymous": false,
      "inputs": [
        {
          "indexed": false,
          "internalType": "uint8",
          "name": "version",
          "type": "uint8"
        }
      ],
      "name": "Initialized",
      "type": "event"
    },
    {
      "anonymous": false,
      "inputs": [
        {
          "indexed": true,
          "internalType": "address",
          "name": "previousOwner",
          "type": "address"
        },
        {
          "indexed": true,
          "internalType": "address",
          "name": "newOwner",
          "type": "address"
        }
      ],
      "name": "OwnershipTransferred",
      "type": "event"
    },
    {
      "anonymous": false,
      "inputs": [
        {
          "indexed": false,
          "internalType": "address",
          "name": "account",
          "type": "address"
        }
      ],
      "name": "Paused",
      "type": "event"
    },
    {
      "anonymous": false,
      "inputs": [
        {
          "indexed": true,
          "internalType": "address",
          "name": "player",
          "type": "address"
        },
        {
          "indexed": false,
          "internalType": "string",
          "name": "profileHash",
          "type": "string"
        }
      ],
      "name": "PlayerUpdated",
      "type": "event"
    },
    {
      "anonymous": false,
      "inputs": [
        {
          "indexed": false,
          "internalType": "address",
          "name": "account",
          "type": "address"
        }
      ],
      "name": "Unpaused",
      "type": "event"
    },
    {
      "anonymous": false,
      "inputs": [
        {
          "indexed": true,
          "internalType": "address",
          "name": "implementation",
          "type": "address"
        }
      ],
      "name": "Upgraded",
      "type": "event"
    },
    {
      "inputs": [],
      "name": "COST_FLAG_SEND",
      "outputs": [
        {
          "internalType": "uint256",
          "name": "",
          "type": "uint256"
        }
      ],
      "stateMutability": "view",
      "type": "function"
    },
    {
      "inputs": [
        {
          "internalType": "bytes32",
          "name": "_flagHash",
          "type": "bytes32"
        },
        {
          "internalType": "uint256",
          "name": "_reward",
          "type": "uint256"
        },
        {
          "internalType": "string",
          "name": "_ipfsHash",
          "type": "string"
        },
        {
          "internalType": "uint8",
          "name": "_difficulty",
          "type": "uint8"
        }
      ],
      "name": "addChallenge",
      "outputs": [],
      "stateMutability": "nonpayable",
      "type": "function"
    },
    {
      "inputs": [],
      "name": "challengeCounter",
      "outputs": [
        {
          "internalType": "uint256",
          "name": "",
          "type": "uint256"
        }
      ],
      "stateMutability": "view",
      "type": "function"
    },
    {
      "inputs": [
        {
          "internalType": "uint256",
          "name": "",
          "type": "uint256"
        }
      ],
      "name": "challenges",
      "outputs": [
        {
          "internalType": "uint256",
          "name": "challengeId",
          "type": "uint256"
        },
        {
          "internalType": "bytes32",
          "name": "flagHash",
          "type": "bytes32"
        },
        {
          "internalType": "uint256",
          "name": "reward",
          "type": "uint256"
        },
        {
          "internalType": "string",
          "name": "ipfsHash",
          "type": "string"
        },
        {
          "internalType": "uint8",
          "name": "difficulty",
          "type": "uint8"
        }
      ],
      "stateMutability": "view",
      "type": "function"
    },
    {
      "inputs": [],
      "name": "getChallenges",
      "outputs": [
        {
          "components": [
            {
              "internalType": "uint256",
              "name": "challengeId",
              "type": "uint256"
            },
            {
              "internalType": "bytes32",
              "name": "flagHash",
              "type": "bytes32"
            },
            {
              "internalType": "uint256",
              "name": "reward",
              "type": "uint256"
            },
            {
              "internalType": "string",
              "name": "ipfsHash",
              "type": "string"
            },
            {
              "internalType": "uint8",
              "name": "difficulty",
              "type": "uint8"
            }
          ],
          "internalType": "struct SmartChallengeUpgradeable.Challenge[]",
          "name": "",
          "type": "tuple[]"
        }
      ],
      "stateMutability": "view",
      "type": "function"
    },
    {
      "inputs": [
        {
          "internalType": "address",
          "name": "_player",
          "type": "address"
        }
      ],
      "name": "getPlayer",
      "outputs": [
        {
          "internalType": "uint256",
          "name": "score",
          "type": "uint256"
        },
        {
          "internalType": "string",
          "name": "profileHash",
          "type": "string"
        }
      ],
      "stateMutability": "view",
      "type": "function"
    },
    {
      "inputs": [],
      "name": "getScores",
      "outputs": [
        {
          "internalType": "address[]",
          "name": "",
          "type": "address[]"
        },
        {
          "internalType": "uint256[]",
          "name": "",
          "type": "uint256[]"
        }
      ],
      "stateMutability": "view",
      "type": "function"
    },
    {
      "inputs": [],
      "name": "initialize",
      "outputs": [],
      "stateMutability": "nonpayable",
      "type": "function"
    },
    {
      "inputs": [
        {
          "internalType": "address",
          "name": "_player",
          "type": "address"
        },
        {
          "internalType": "uint256",
          "name": "_challengeId",
          "type": "uint256"
        }
      ],
      "name": "isChallengeSolved",
      "outputs": [
        {
          "internalType": "bool",
          "name": "",
          "type": "bool"
        }
      ],
      "stateMutability": "view",
      "type": "function"
    },
    {
      "inputs": [],
      "name": "owner",
      "outputs": [
        {
          "internalType": "address",
          "name": "",
          "type": "address"
        }
      ],
      "stateMutability": "view",
      "type": "function"
    },
    {
      "inputs": [],
      "name": "pause",
      "outputs": [],
      "stateMutability": "nonpayable",
      "type": "function"
    },
    {
      "inputs": [],
      "name": "paused",
      "outputs": [
        {
          "internalType": "bool",
          "name": "",
          "type": "bool"
        }
      ],
      "stateMutability": "view",
      "type": "function"
    },
    {
      "inputs": [
        {
          "internalType": "uint256",
          "name": "",
          "type": "uint256"
        }
      ],
      "name": "playerAddresses",
      "outputs": [
        {
          "internalType": "address",
          "name": "",
          "type": "address"
        }
      ],
      "stateMutability": "view",
      "type": "function"
    },
    {
      "inputs": [],
      "name": "proxiableUUID",
      "outputs": [
        {
          "internalType": "bytes32",
          "name": "",
          "type": "bytes32"
        }
      ],
      "stateMutability": "view",
      "type": "function"
    },
    {
      "inputs": [],
      "name": "renounceOwnership",
      "outputs": [],
      "stateMutability": "nonpayable",
      "type": "function"
    },
    {
      "inputs": [
        {
          "internalType": "uint256",
          "name": "_challengeId",
          "type": "uint256"
        },
        {
          "internalType": "string",
          "name": "_flag",
          "type": "string"
        }
      ],
      "name": "submitFlag",
      "outputs": [],
      "stateMutability": "payable",
      "type": "function"
    },
    {
      "inputs": [
        {
          "internalType": "address",
          "name": "newOwner",
          "type": "address"
        }
      ],
      "name": "transferOwnership",
      "outputs": [],
      "stateMutability": "nonpayable",
      "type": "function"
    },
    {
      "inputs": [],
      "name": "unpause",
      "outputs": [],
      "stateMutability": "nonpayable",
      "type": "function"
    },
    {
      "inputs": [
        {
          "internalType": "string",
          "name": "_profileHash",
          "type": "string"
        }
      ],
      "name": "updatePlayerProfile",
      "outputs": [],
      "stateMutability": "nonpayable",
      "type": "function"
    },
    {
      "inputs": [
        {
          "internalType": "address",
          "name": "newImplementation",
          "type": "address"
        }
      ],
      "name": "upgradeTo",
      "outputs": [],
      "stateMutability": "nonpayable",
      "type": "function"
    },
    {
      "inputs": [
        {
          "internalType": "address",
          "name": "newImplementation",
          "type": "address"
        },
        {
          "internalType": "bytes",
          "name": "data",
          "type": "bytes"
        }
      ],
      "name": "upgradeToAndCall",
      "outputs": [],
      "stateMutability": "payable",
      "type": "function"
    },
    {
      "inputs": [],
      "name": "withdraw",
      "outputs": [],
      "stateMutability": "nonpayable",
      "type": "function"
    }
  ],
  "bytecode": "0x60a06040523073ffffffffffffffffffffffffffffffffffffffff1660809073ffffffffffffffffffffffffffffffffffffffff168152503480156200004457600080fd5b50620000556200005b60201b60201c565b62000205565b600060019054906101000a900460ff1615620000ae576040517f08c379a0000000000000000000000000000000000000000000000000000000008152600401620000a590620001a8565b60405180910390fd5b60ff801660008054906101000a900460ff1660ff16146200011f5760ff6000806101000a81548160ff021916908360ff1602179055507f7f26b83ff96e1f2b6a682f133852f6798a09c465da95921460cefb384740249860ff604051620001169190620001e8565b60405180910390a15b565b600082825260208201905092915050565b7f496e697469616c697a61626c653a20636f6e747261637420697320696e69746960008201527f616c697a696e6700000000000000000000000000000000000000000000000000602082015250565b60006200019060278362000121565b91506200019d8262000132565b604082019050919050565b60006020820190508181036000830152620001c38162000181565b9050919050565b600060ff82169050919050565b620001e281620001ca565b82525050565b6000602082019050620001ff6000830184620001d7565b92915050565b608051613d1b6200023d6000396000818161074b015281816107d901528181610cfb01528181610d890152610e390152613d1b6000f3fe6080604052600436106101355760003560e01c80635c975abb116100ab5780638129fc1c1161006f5780638129fc1c146103c25780638456cb59146103d95780638da5cb5b146103f05780638f1d37761461041b578063f2fde38b1461045c578063f7fed02c1461048557610135565b80635c975abb146102fc578063695bd78714610327578063715018a61461035257806371cc1480146103695780637f1a1a4e146103a657610135565b80633f4ba83a116100fd5780633f4ba83a1461020c578063427a6dbd1461022357806346c7c1261461024c5780634f1ef2861461027757806352d1902d146102935780635c12cd4b146102be57610135565b8063147851b31461013a57806315c6aee2146101635780631ea1380c146101a05780633659cfe6146101cc5780633ccfd60b146101f5575b600080fd5b34801561014657600080fd5b50610161600480360381019061015c919061228c565b6104b0565b005b34801561016f57600080fd5b5061018a6004803603810190610185919061230f565b610557565b604051610197919061237d565b60405180910390f35b3480156101ac57600080fd5b506101b5610597565b6040516101c3929190612514565b60405180910390f35b3480156101d857600080fd5b506101f360048036038101906101ee9190612577565b610749565b005b34801561020157600080fd5b5061020a6108d1565b005b34801561021857600080fd5b50610221610972565b005b34801561022f57600080fd5b5061024a60048036038101906102459190612613565b610984565b005b34801561025857600080fd5b50610261610b69565b60405161026e9190612881565b60405180910390f35b610291600480360381019061028c91906129d3565b610cf9565b005b34801561029f57600080fd5b506102a8610e35565b6040516102b59190612a3e565b60405180910390f35b3480156102ca57600080fd5b506102e560048036038101906102e09190612577565b610eee565b6040516102f3929190612ab2565b60405180910390f35b34801561030857600080fd5b5061031161100e565b60405161031e9190612afd565b60405180910390f35b34801561033357600080fd5b5061033c611025565b6040516103499190612b18565b60405180910390f35b34801561035e57600080fd5b5061036761102a565b005b34801561037557600080fd5b50610390600480360381019061038b9190612b33565b61103e565b60405161039d9190612afd565b60405180910390f35b6103c060048036038101906103bb9190612b73565b6110aa565b005b3480156103ce57600080fd5b506103d76114c3565b005b3480156103e557600080fd5b506103ee611619565b005b3480156103fc57600080fd5b5061040561162b565b604051610412919061237d565b60405180910390f35b34801561042757600080fd5b50610442600480360381019061043d919061230f565b611655565b604051610453959493929190612be2565b60405180910390f35b34801561046857600080fd5b50610483600480360381019061047e9190612577565b611721565b005b34801561049157600080fd5b5061049a6117a4565b6040516104a79190612b18565b60405180910390f35b818161012f60003373ffffffffffffffffffffffffffffffffffffffff1673ffffffffffffffffffffffffffffffffffffffff1681526020019081526020016000206003019182610502929190612e53565b503373ffffffffffffffffffffffffffffffffffffffff167f4065fa66156ee33e13397293f7c2fd228a7a5106fc5d5663b1b14014f09d0405838360405161054b929190612f50565b60405180910390a25050565b610130818154811061056857600080fd5b906000526020600020016000915054906101000a900473ffffffffffffffffffffffffffffffffffffffff1681565b60608060006101308054905067ffffffffffffffff8111156105bc576105bb6128a8565b5b6040519080825280602002602001820160405280156105ea5781602001602082028036833780820191505090505b50905060005b610130805490508110156106b35761012f6000610130838154811061061857610617612f74565b5b9060005260206000200160009054906101000a900473ffffffffffffffffffffffffffffffffffffffff1673ffffffffffffffffffffffffffffffffffffffff1673ffffffffffffffffffffffffffffffffffffffff1681526020019081526020016000206001015482828151811061069457610693612f74565b5b60200260200101818152505080806106ab90612fd2565b9150506105f0565b50610130818180548060200260200160405190810160405280929190818152602001828054801561073957602002820191906000526020600020905b8160009054906101000a900473ffffffffffffffffffffffffffffffffffffffff1673ffffffffffffffffffffffffffffffffffffffff16815260200190600101908083116106ef575b5050505050915092509250509091565b7f000000000000000000000000000000000000000000000000000000000000000073ffffffffffffffffffffffffffffffffffffffff163073ffffffffffffffffffffffffffffffffffffffff16036107d7576040517f08c379a00000000000000000000000000000000000000000000000000000000081526004016107ce9061308c565b60405180910390fd5b7f000000000000000000000000000000000000000000000000000000000000000073ffffffffffffffffffffffffffffffffffffffff166108166117ab565b73ffffffffffffffffffffffffffffffffffffffff161461086c576040517f08c379a00000000000000000000000000000000000000000000000000000000081526004016108639061311e565b60405180910390fd5b61087581611802565b6108ce81600067ffffffffffffffff811115610894576108936128a8565b5b6040519080825280601f01601f1916602001820160405280156108c65781602001600182028036833780820191505090505b50600061180d565b50565b6108d961197b565b600047905060008111610921576040517f08c379a00000000000000000000000000000000000000000000000000000000081526004016109189061318a565b60405180910390fd5b61092961162b565b73ffffffffffffffffffffffffffffffffffffffff166108fc829081150290604051600060405180830381858888f1935050505015801561096e573d6000803e3d6000fd5b5050565b61097a61197b565b6109826119f9565b565b61098c61197b565b600084116109cf576040517f08c379a00000000000000000000000000000000000000000000000000000000081526004016109c6906131f6565b60405180910390fd5b60018160ff16101580156109e7575060058160ff1611155b610a26576040517f08c379a0000000000000000000000000000000000000000000000000000000008152600401610a1d90613262565b60405180910390fd5b6040518060a0016040528061012d54815260200186815260200185815260200184848080601f016020809104026020016040519081016040528093929190818152602001838380828437600081840152601f19601f8201169050808301925050505050505081526020018260ff1681525061012e600061012d5481526020019081526020016000206000820151816000015560208201518160010155604082015181600201556060820151816003019081610ae19190613282565b5060808201518160040160006101000a81548160ff021916908360ff16021790555090505061012d547f767b04b6d502be6af8ac3efa8f208829cad714a56ed13f0e2c518f09f68dfe848686868686604051610b41959493929190613354565b60405180910390a261012d6000815480929190610b5d90612fd2565b91905055505050505050565b6060600061012d5467ffffffffffffffff811115610b8a57610b896128a8565b5b604051908082528060200260200182016040528015610bc357816020015b610bb06121de565b815260200190600190039081610ba85790505b50905060005b61012d54811015610cf15761012e60008281526020019081526020016000206040518060a0016040529081600082015481526020016001820154815260200160028201548152602001600382018054610c2190612c76565b80601f0160208091040260200160405190810160405280929190818152602001828054610c4d90612c76565b8015610c9a5780601f10610c6f57610100808354040283529160200191610c9a565b820191906000526020600020905b815481529060010190602001808311610c7d57829003601f168201915b505050505081526020016004820160009054906101000a900460ff1660ff1660ff1681525050828281518110610cd357610cd2612f74565b5b60200260200101819052508080610ce990612fd2565b915050610bc9565b508091505090565b7f000000000000000000000000000000000000000000000000000000000000000073ffffffffffffffffffffffffffffffffffffffff163073ffffffffffffffffffffffffffffffffffffffff1603610d87576040517f08c379a0000000000000000000000000000000000000000000000000000000008152600401610d7e9061308c565b60405180910390fd5b7f000000000000000000000000000000000000000000000000000000000000000073ffffffffffffffffffffffffffffffffffffffff16610dc66117ab565b73ffffffffffffffffffffffffffffffffffffffff1614610e1c576040517f08c379a0000000000000000000000000000000000000000000000000000000008152600401610e139061311e565b60405180910390fd5b610e2582611802565b610e318282600161180d565b5050565b60007f000000000000000000000000000000000000000000000000000000000000000073ffffffffffffffffffffffffffffffffffffffff163073ffffffffffffffffffffffffffffffffffffffff1614610ec5576040517f08c379a0000000000000000000000000000000000000000000000000000000008152600401610ebc90613414565b60405180910390fd5b7f360894a13ba1a3210667c828492db98dca3e2076cc3735a920a3ca505d382bbc60001b905090565b6000606061012f60008473ffffffffffffffffffffffffffffffffffffffff1673ffffffffffffffffffffffffffffffffffffffff1681526020019081526020016000206001015461012f60008573ffffffffffffffffffffffffffffffffffffffff1673ffffffffffffffffffffffffffffffffffffffff168152602001908152602001600020600301808054610f8590612c76565b80601f0160208091040260200160405190810160405280929190818152602001828054610fb190612c76565b8015610ffe5780601f10610fd357610100808354040283529160200191610ffe565b820191906000526020600020905b815481529060010190602001808311610fe157829003601f168201915b5050505050905091509150915091565b600060c960009054906101000a900460ff16905090565b600181565b61103261197b565b61103c6000611a5c565b565b600061012f60008473ffffffffffffffffffffffffffffffffffffffff1673ffffffffffffffffffffffffffffffffffffffff168152602001908152602001600020600201600083815260200190815260200160002060009054906101000a900460ff16905092915050565b6110b2611b22565b6110ba611b6c565b60013410156110fe576040517f08c379a00000000000000000000000000000000000000000000000000000000081526004016110f590613480565b60405180910390fd5b600061012e600085815260200190815260200160002090506000838390501161115c576040517f08c379a0000000000000000000000000000000000000000000000000000000008152600401611153906134ec565b60405180910390fd5b61012f60003373ffffffffffffffffffffffffffffffffffffffff1673ffffffffffffffffffffffffffffffffffffffff168152602001908152602001600020600201600085815260200190815260200160002060009054906101000a900460ff16156111fe576040517f08c379a00000000000000000000000000000000000000000000000000000000081526004016111f590613558565b60405180910390fd5b6000816001015484846040516020016112189291906135a8565b6040516020818303038152906040528051906020012014905080156114645761012f60003373ffffffffffffffffffffffffffffffffffffffff1673ffffffffffffffffffffffffffffffffffffffff16815260200190815260200160002060000160009054906101000a900460ff1661134d57600161012f60003373ffffffffffffffffffffffffffffffffffffffff1673ffffffffffffffffffffffffffffffffffffffff16815260200190815260200160002060000160006101000a81548160ff021916908315150217905550610130339080600181540180825580915050600190039060005260206000200160009091909190916101000a81548173ffffffffffffffffffffffffffffffffffffffff021916908373ffffffffffffffffffffffffffffffffffffffff1602179055505b600161012f60003373ffffffffffffffffffffffffffffffffffffffff1673ffffffffffffffffffffffffffffffffffffffff168152602001908152602001600020600201600087815260200190815260200160002060006101000a81548160ff021916908315150217905550816002015461012f60003373ffffffffffffffffffffffffffffffffffffffff1673ffffffffffffffffffffffffffffffffffffffff168152602001908152602001600020600101600082825461141191906135c1565b925050819055503373ffffffffffffffffffffffffffffffffffffffff166108fc83600201549081150290604051600060405180830381858888f19350505050158015611462573d6000803e3d6000fd5b505b3373ffffffffffffffffffffffffffffffffffffffff167f99ff60502ac5007f259fabfd2c017ecb4fce1819ff4ea41c339a03a6534b919386836040516114ac9291906135f5565b60405180910390a250506114be611bbb565b505050565b60008060019054906101000a900460ff161590508080156114f45750600160008054906101000a900460ff1660ff16105b80611521575061150330611bc5565b1580156115205750600160008054906101000a900460ff1660ff16145b5b611560576040517f08c379a000000000000000000000000000000000000000000000000000000000815260040161155790613690565b60405180910390fd5b60016000806101000a81548160ff021916908360ff160217905550801561159d576001600060016101000a81548160ff0219169083151502179055505b6115a5611be8565b6115ad611c41565b6115b5611c92565b6115bd611ceb565b80156116165760008060016101000a81548160ff0219169083151502179055507f7f26b83ff96e1f2b6a682f133852f6798a09c465da95921460cefb3847402498600160405161160d91906136eb565b60405180910390a15b50565b61162161197b565b611629611d44565b565b6000603360009054906101000a900473ffffffffffffffffffffffffffffffffffffffff16905090565b61012e60205280600052604060002060009150905080600001549080600101549080600201549080600301805461168b90612c76565b80601f01602080910402602001604051908101604052809291908181526020018280546116b790612c76565b80156117045780601f106116d957610100808354040283529160200191611704565b820191906000526020600020905b8154815290600101906020018083116116e757829003601f168201915b5050505050908060040160009054906101000a900460ff16905085565b61172961197b565b600073ffffffffffffffffffffffffffffffffffffffff168173ffffffffffffffffffffffffffffffffffffffff1603611798576040517f08c379a000000000000000000000000000000000000000000000000000000000815260040161178f90613778565b60405180910390fd5b6117a181611a5c565b50565b61012d5481565b60006117d97f360894a13ba1a3210667c828492db98dca3e2076cc3735a920a3ca505d382bbc60001b611da7565b60000160009054906101000a900473ffffffffffffffffffffffffffffffffffffffff16905090565b61180a61197b565b50565b6118397f4910fdfa16fed3260ed0e7147f7cc6da11a60208b5b9406d12a635614ffd914360001b611db1565b60000160009054906101000a900460ff161561185d5761185883611dbb565b611976565b8273ffffffffffffffffffffffffffffffffffffffff166352d1902d6040518163ffffffff1660e01b8152600401602060405180830381865afa9250505080156118c557506040513d601f19601f820116820180604052508101906118c291906137ad565b60015b611904576040517f08c379a00000000000000000000000000000000000000000000000000000000081526004016118fb9061384c565b60405180910390fd5b7f360894a13ba1a3210667c828492db98dca3e2076cc3735a920a3ca505d382bbc60001b8114611969576040517f08c379a0000000000000000000000000000000000000000000000000000000008152600401611960906138de565b60405180910390fd5b50611975838383611e74565b5b505050565b611983611ea0565b73ffffffffffffffffffffffffffffffffffffffff166119a161162b565b73ffffffffffffffffffffffffffffffffffffffff16146119f7576040517f08c379a00000000000000000000000000000000000000000000000000000000081526004016119ee9061394a565b60405180910390fd5b565b611a01611ea8565b600060c960006101000a81548160ff0219169083151502179055507f5db9ee0a495bf2e6ff9c91a7834c1ba4fdd244a5e8aa4e537bd38aeae4b073aa611a45611ea0565b604051611a52919061237d565b60405180910390a1565b6000603360009054906101000a900473ffffffffffffffffffffffffffffffffffffffff16905081603360006101000a81548173ffffffffffffffffffffffffffffffffffffffff021916908373ffffffffffffffffffffffffffffffffffffffff1602179055508173ffffffffffffffffffffffffffffffffffffffff168173ffffffffffffffffffffffffffffffffffffffff167f8be0079c531659141344cd1fd0a4f28419497f9722a3daafe3b4186f6b6457e060405160405180910390a35050565b611b2a61100e565b15611b6a576040517f08c379a0000000000000000000000000000000000000000000000000000000008152600401611b61906139b6565b60405180910390fd5b565b600260fb5403611bb1576040517f08c379a0000000000000000000000000000000000000000000000000000000008152600401611ba890613a22565b60405180910390fd5b600260fb81905550565b600160fb81905550565b6000808273ffffffffffffffffffffffffffffffffffffffff163b119050919050565b600060019054906101000a900460ff16611c37576040517f08c379a0000000000000000000000000000000000000000000000000000000008152600401611c2e90613ab4565b60405180910390fd5b611c3f611ef1565b565b600060019054906101000a900460ff16611c90576040517f08c379a0000000000000000000000000000000000000000000000000000000008152600401611c8790613ab4565b60405180910390fd5b565b600060019054906101000a900460ff16611ce1576040517f08c379a0000000000000000000000000000000000000000000000000000000008152600401611cd890613ab4565b60405180910390fd5b611ce9611f52565b565b600060019054906101000a900460ff16611d3a576040517f08c379a0000000000000000000000000000000000000000000000000000000008152600401611d3190613ab4565b60405180910390fd5b611d42611fbe565b565b611d4c611b22565b600160c960006101000a81548160ff0219169083151502179055507f62e78cea01bee320cd4e420270b5ea74000d11b0c9f74754ebdbfc544b05a258611d90611ea0565b604051611d9d919061237d565b60405180910390a1565b6000819050919050565b6000819050919050565b611dc481611bc5565b611e03576040517f08c379a0000000000000000000000000000000000000000000000000000000008152600401611dfa90613b46565b60405180910390fd5b80611e307f360894a13ba1a3210667c828492db98dca3e2076cc3735a920a3ca505d382bbc60001b611da7565b60000160006101000a81548173ffffffffffffffffffffffffffffffffffffffff021916908373ffffffffffffffffffffffffffffffffffffffff16021790555050565b611e7d83612017565b600082511180611e8a5750805b15611e9b57611e998383612066565b505b505050565b600033905090565b611eb061100e565b611eef576040517f08c379a0000000000000000000000000000000000000000000000000000000008152600401611ee690613bb2565b60405180910390fd5b565b600060019054906101000a900460ff16611f40576040517f08c379a0000000000000000000000000000000000000000000000000000000008152600401611f3790613ab4565b60405180910390fd5b611f50611f4b611ea0565b611a5c565b565b600060019054906101000a900460ff16611fa1576040517f08c379a0000000000000000000000000000000000000000000000000000000008152600401611f9890613ab4565b60405180910390fd5b600060c960006101000a81548160ff021916908315150217905550565b600060019054906101000a900460ff1661200d576040517f08c379a000000000000000000000000000000000000000000000000000000000815260040161200490613ab4565b60405180910390fd5b600160fb81905550565b61202081611dbb565b8073ffffffffffffffffffffffffffffffffffffffff167fbc7cd75a20ee27fd9adebab32041f755214dbc6bffa90cc0225b39da2e5c2d3b60405160405180910390a250565b606061208b8383604051806060016040528060278152602001613cbf60279139612093565b905092915050565b60606000808573ffffffffffffffffffffffffffffffffffffffff16856040516120bd9190613c19565b600060405180830381855af49150503d80600081146120f8576040519150601f19603f3d011682016040523d82523d6000602084013e6120fd565b606091505b509150915061210e86838387612119565b925050509392505050565b6060831561217b5760008351036121735761213385611bc5565b612172576040517f08c379a000000000000000000000000000000000000000000000000000000000815260040161216990613c7c565b60405180910390fd5b5b829050612186565b612185838361218e565b5b949350505050565b6000825111156121a15781518083602001fd5b806040517f08c379a00000000000000000000000000000000000000000000000000000000081526004016121d59190613c9c565b60405180910390fd5b6040518060a0016040528060008152602001600080191681526020016000815260200160608152602001600060ff1681525090565b6000604051905090565b600080fd5b600080fd5b600080fd5b600080fd5b600080fd5b60008083601f84011261224c5761224b612227565b5b8235905067ffffffffffffffff8111156122695761226861222c565b5b60208301915083600182028301111561228557612284612231565b5b9250929050565b600080602083850312156122a3576122a261221d565b5b600083013567ffffffffffffffff8111156122c1576122c0612222565b5b6122cd85828601612236565b92509250509250929050565b6000819050919050565b6122ec816122d9565b81146122f757600080fd5b50565b600081359050612309816122e3565b92915050565b6000602082840312156123255761232461221d565b5b6000612333848285016122fa565b91505092915050565b600073ffffffffffffffffffffffffffffffffffffffff82169050919050565b60006123678261233c565b9050919050565b6123778161235c565b82525050565b6000602082019050612392600083018461236e565b92915050565b600081519050919050565b600082825260208201905092915050565b6000819050602082019050919050565b6123cd8161235c565b82525050565b60006123df83836123c4565b60208301905092915050565b6000602082019050919050565b600061240382612398565b61240d81856123a3565b9350612418836123b4565b8060005b8381101561244957815161243088826123d3565b975061243b836123eb565b92505060018101905061241c565b5085935050505092915050565b600081519050919050565b600082825260208201905092915050565b6000819050602082019050919050565b61248b816122d9565b82525050565b600061249d8383612482565b60208301905092915050565b6000602082019050919050565b60006124c182612456565b6124cb8185612461565b93506124d683612472565b8060005b838110156125075781516124ee8882612491565b97506124f9836124a9565b9250506001810190506124da565b5085935050505092915050565b6000604082019050818103600083015261252e81856123f8565b9050818103602083015261254281846124b6565b90509392505050565b6125548161235c565b811461255f57600080fd5b50565b6000813590506125718161254b565b92915050565b60006020828403121561258d5761258c61221d565b5b600061259b84828501612562565b91505092915050565b6000819050919050565b6125b7816125a4565b81146125c257600080fd5b50565b6000813590506125d4816125ae565b92915050565b600060ff82169050919050565b6125f0816125da565b81146125fb57600080fd5b50565b60008135905061260d816125e7565b92915050565b60008060008060006080868803121561262f5761262e61221d565b5b600061263d888289016125c5565b955050602061264e888289016122fa565b945050604086013567ffffffffffffffff81111561266f5761266e612222565b5b61267b88828901612236565b9350935050606061268e888289016125fe565b9150509295509295909350565b600081519050919050565b600082825260208201905092915050565b6000819050602082019050919050565b6126d0816125a4565b82525050565b600081519050919050565b600082825260208201905092915050565b60005b838110156127105780820151818401526020810190506126f5565b60008484015250505050565b6000601f19601f8301169050919050565b6000612738826126d6565b61274281856126e1565b93506127528185602086016126f2565b61275b8161271c565b840191505092915050565b61276f816125da565b82525050565b600060a08301600083015161278d6000860182612482565b5060208301516127a060208601826126c7565b5060408301516127b36040860182612482565b50606083015184820360608601526127cb828261272d565b91505060808301516127e06080860182612766565b508091505092915050565b60006127f78383612775565b905092915050565b6000602082019050919050565b60006128178261269b565b61282181856126a6565b935083602082028501612833856126b7565b8060005b8581101561286f578484038952815161285085826127eb565b945061285b836127ff565b925060208a01995050600181019050612837565b50829750879550505050505092915050565b6000602082019050818103600083015261289b818461280c565b905092915050565b600080fd5b7f4e487b7100000000000000000000000000000000000000000000000000000000600052604160045260246000fd5b6128e08261271c565b810181811067ffffffffffffffff821117156128ff576128fe6128a8565b5b80604052505050565b6000612912612213565b905061291e82826128d7565b919050565b600067ffffffffffffffff82111561293e5761293d6128a8565b5b6129478261271c565b9050602081019050919050565b82818337600083830152505050565b600061297661297184612923565b612908565b905082815260208101848484011115612992576129916128a3565b5b61299d848285612954565b509392505050565b600082601f8301126129ba576129b9612227565b5b81356129ca848260208601612963565b91505092915050565b600080604083850312156129ea576129e961221d565b5b60006129f885828601612562565b925050602083013567ffffffffffffffff811115612a1957612a18612222565b5b612a25858286016129a5565b9150509250929050565b612a38816125a4565b82525050565b6000602082019050612a536000830184612a2f565b92915050565b612a62816122d9565b82525050565b600082825260208201905092915050565b6000612a84826126d6565b612a8e8185612a68565b9350612a9e8185602086016126f2565b612aa78161271c565b840191505092915050565b6000604082019050612ac76000830185612a59565b8181036020830152612ad98184612a79565b90509392505050565b60008115159050919050565b612af781612ae2565b82525050565b6000602082019050612b126000830184612aee565b92915050565b6000602082019050612b2d6000830184612a59565b92915050565b60008060408385031215612b4a57612b4961221d565b5b6000612b5885828601612562565b9250506020612b69858286016122fa565b9150509250929050565b600080600060408486031215612b8c57612b8b61221d565b5b6000612b9a868287016122fa565b935050602084013567ffffffffffffffff811115612bbb57612bba612222565b5b612bc786828701612236565b92509250509250925092565b612bdc816125da565b82525050565b600060a082019050612bf76000830188612a59565b612c046020830187612a2f565b612c116040830186612a59565b8181036060830152612c238185612a79565b9050612c326080830184612bd3565b9695505050505050565b600082905092915050565b7f4e487b7100000000000000000000000000000000000000000000000000000000600052602260045260246000fd5b60006002820490506001821680612c8e57607f821691505b602082108103612ca157612ca0612c47565b5b50919050565b60008190508160005260206000209050919050565b60006020601f8301049050919050565b600082821b905092915050565b600060088302612d097fffffffffffffffffffffffffffffffffffffffffffffffffffffffffffffffff82612ccc565b612d138683612ccc565b95508019841693508086168417925050509392505050565b6000819050919050565b6000612d50612d4b612d46846122d9565b612d2b565b6122d9565b9050919050565b6000819050919050565b612d6a83612d35565b612d7e612d7682612d57565b848454612cd9565b825550505050565b600090565b612d93612d86565b612d9e818484612d61565b505050565b5b81811015612dc257612db7600082612d8b565b600181019050612da4565b5050565b601f821115612e0757612dd881612ca7565b612de184612cbc565b81016020851015612df0578190505b612e04612dfc85612cbc565b830182612da3565b50505b505050565b600082821c905092915050565b6000612e2a60001984600802612e0c565b1980831691505092915050565b6000612e438383612e19565b9150826002028217905092915050565b612e5d8383612c3c565b67ffffffffffffffff811115612e7657612e756128a8565b5b612e808254612c76565b612e8b828285612dc6565b6000601f831160018114612eba5760008415612ea8578287013590505b612eb28582612e37565b865550612f1a565b601f198416612ec886612ca7565b60005b82811015612ef057848901358255600182019150602085019450602081019050612ecb565b86831015612f0d5784890135612f09601f891682612e19565b8355505b6001600288020188555050505b50505050505050565b6000612f2f8385612a68565b9350612f3c838584612954565b612f458361271c565b840190509392505050565b60006020820190508181036000830152612f6b818486612f23565b90509392505050565b7f4e487b7100000000000000000000000000000000000000000000000000000000600052603260045260246000fd5b7f4e487b7100000000000000000000000000000000000000000000000000000000600052601160045260246000fd5b6000612fdd826122d9565b91507fffffffffffffffffffffffffffffffffffffffffffffffffffffffffffffffff820361300f5761300e612fa3565b5b600182019050919050565b7f46756e6374696f6e206d7573742062652063616c6c6564207468726f7567682060008201527f64656c656761746563616c6c0000000000000000000000000000000000000000602082015250565b6000613076602c83612a68565b91506130818261301a565b604082019050919050565b600060208201905081810360008301526130a581613069565b9050919050565b7f46756e6374696f6e206d7573742062652063616c6c6564207468726f7567682060008201527f6163746976652070726f78790000000000000000000000000000000000000000602082015250565b6000613108602c83612a68565b9150613113826130ac565b604082019050919050565b60006020820190508181036000830152613137816130fb565b9050919050565b7f4e6f2062616c616e636520746f20776974686472617700000000000000000000600082015250565b6000613174601683612a68565b915061317f8261313e565b602082019050919050565b600060208201905081810360008301526131a381613167565b9050919050565b7f526577617264206d757374206265203e20300000000000000000000000000000600082015250565b60006131e0601283612a68565b91506131eb826131aa565b602082019050919050565b6000602082019050818103600083015261320f816131d3565b9050919050565b7f496e76616c696420646966666963756c74790000000000000000000000000000600082015250565b600061324c601283612a68565b915061325782613216565b602082019050919050565b6000602082019050818103600083015261327b8161323f565b9050919050565b61328b826126d6565b67ffffffffffffffff8111156132a4576132a36128a8565b5b6132ae8254612c76565b6132b9828285612dc6565b600060209050601f8311600181146132ec57600084156132da578287015190505b6132e48582612e37565b86555061334c565b601f1984166132fa86612ca7565b60005b82811015613322578489015182556001820191506020850194506020810190506132fd565b8683101561333f578489015161333b601f891682612e19565b8355505b6001600288020188555050505b505050505050565b60006080820190506133696000830188612a2f565b6133766020830187612a59565b8181036040830152613389818587612f23565b90506133986060830184612bd3565b9695505050505050565b7f555550535570677261646561626c653a206d757374206e6f742062652063616c60008201527f6c6564207468726f7567682064656c656761746563616c6c0000000000000000602082015250565b60006133fe603883612a68565b9150613409826133a2565b604082019050919050565b6000602082019050818103600083015261342d816133f1565b9050919050565b7f496e73756666696369656e742066656500000000000000000000000000000000600082015250565b600061346a601083612a68565b915061347582613434565b602082019050919050565b600060208201905081810360008301526134998161345d565b9050919050565b7f466c616720697320656d70747900000000000000000000000000000000000000600082015250565b60006134d6600d83612a68565b91506134e1826134a0565b602082019050919050565b60006020820190508181036000830152613505816134c9565b9050919050565b7f416c726561647920736f6c766564000000000000000000000000000000000000600082015250565b6000613542600e83612a68565b915061354d8261350c565b602082019050919050565b6000602082019050818103600083015261357181613535565b9050919050565b600081905092915050565b600061358f8385613578565b935061359c838584612954565b82840190509392505050565b60006135b5828486613583565b91508190509392505050565b60006135cc826122d9565b91506135d7836122d9565b92508282019050808211156135ef576135ee612fa3565b5b92915050565b600060408201905061360a6000830185612a59565b6136176020830184612aee565b9392505050565b7f496e697469616c697a61626c653a20636f6e747261637420697320616c72656160008201527f647920696e697469616c697a6564000000000000000000000000000000000000602082015250565b600061367a602e83612a68565b91506136858261361e565b604082019050919050565b600060208201905081810360008301526136a98161366d565b9050919050565b6000819050919050565b60006136d56136d06136cb846136b0565b612d2b565b6125da565b9050919050565b6136e5816136ba565b82525050565b600060208201905061370060008301846136dc565b92915050565b7f4f776e61626c653a206e6577206f776e657220697320746865207a65726f206160008201527f6464726573730000000000000000000000000000000000000000000000000000602082015250565b6000613762602683612a68565b915061376d82613706565b604082019050919050565b6000602082019050818103600083015261379181613755565b9050919050565b6000815190506137a7816125ae565b92915050565b6000602082840312156137c3576137c261221d565b5b60006137d184828501613798565b91505092915050565b7f45524331393637557067726164653a206e657720696d706c656d656e7461746960008201527f6f6e206973206e6f742055555053000000000000000000000000000000000000602082015250565b6000613836602e83612a68565b9150613841826137da565b604082019050919050565b6000602082019050818103600083015261386581613829565b9050919050565b7f45524331393637557067726164653a20756e737570706f727465642070726f7860008201527f6961626c65555549440000000000000000000000000000000000000000000000602082015250565b60006138c8602983612a68565b91506138d38261386c565b604082019050919050565b600060208201905081810360008301526138f7816138bb565b9050919050565b7f4f776e61626c653a2063616c6c6572206973206e6f7420746865206f776e6572600082015250565b6000613934602083612a68565b915061393f826138fe565b602082019050919050565b6000602082019050818103600083015261396381613927565b9050919050565b7f5061757361626c653a2070617573656400000000000000000000000000000000600082015250565b60006139a0601083612a68565b91506139ab8261396a565b602082019050919050565b600060208201905081810360008301526139cf81613993565b9050919050565b7f5265656e7472616e637947756172643a207265656e7472616e742063616c6c00600082015250565b6000613a0c601f83612a68565b9150613a17826139d6565b602082019050919050565b60006020820190508181036000830152613a3b816139ff565b9050919050565b7f496e697469616c697a61626c653a20636f6e7472616374206973206e6f74206960008201527f6e697469616c697a696e67000000000000000000000000000000000000000000602082015250565b6000613a9e602b83612a68565b9150613aa982613a42565b604082019050919050565b60006020820190508181036000830152613acd81613a91565b9050919050565b7f455243313936373a206e657720696d706c656d656e746174696f6e206973206e60008201527f6f74206120636f6e747261637400000000000000000000000000000000000000602082015250565b6000613b30602d83612a68565b9150613b3b82613ad4565b604082019050919050565b60006020820190508181036000830152613b5f81613b23565b9050919050565b7f5061757361626c653a206e6f7420706175736564000000000000000000000000600082015250565b6000613b9c601483612a68565b9150613ba782613b66565b602082019050919050565b60006020820190508181036000830152613bcb81613b8f565b9050919050565b600081519050919050565b600081905092915050565b6000613bf382613bd2565b613bfd8185613bdd565b9350613c0d8185602086016126f2565b80840191505092915050565b6000613c258284613be8565b915081905092915050565b7f416464726573733a2063616c6c20746f206e6f6e2d636f6e7472616374000000600082015250565b6000613c66601d83612a68565b9150613c7182613c30565b602082019050919050565b60006020820190508181036000830152613c9581613c59565b9050919050565b60006020820190508181036000830152613cb68184612a79565b90509291505056fe416464726573733a206c6f772d6c6576656c2064656c65676174652063616c6c206661696c6564a26469706673582212202bdc8353fb4880a501a3794b5035d76ff32b6a488ffe9fa159fd97525d3ebf6264736f6c63430008140033",
  "linkReferences": {},
  "deployedLinkReferences": {}
}