{
  "_format": "hh-sol-artifact-1",
  "contractName": "SmartChallengeUpgradeable",
  "sourceName": "contracts/SmartChallengeUpgradeable.sol",
  "abi": [
    {
      "inputs": [],
      "stateMutability": "nonpayable",
      "type": "constructor"
    },
    {
      "anonymous": false,
      "inputs": [
        {
          "indexed": false,
          "internalType": "address",
          "name": "previousAdmin",
          "type": "address"
        },
        {
          "indexed": false,
          "internalType": "address",
          "name": "newAdmin",
          "type": "address"
        }
      ],
      "name": "AdminChanged",
      "type": "event"
    },
    {
      "anonymous": false,
      "inputs": [
        {
          "indexed": true,
          "internalType": "address",
          "name": "beacon",
          "type": "address"
        }
      ],
      "name": "BeaconUpgraded",
      "type": "event"
    },
    {
      "anonymous": false,
      "inputs": [
        {
          "indexed": true,
          "internalType": "uint256",
          "name": "challengeId",
          "type": "uint256"
        },
        {
          "indexed": false,
          "internalType": "bytes32",
          "name": "flagHash",
          "type": "bytes32"
        },
        {
          "indexed": false,
          "internalType": "uint256",
          "name": "reward",
          "type": "uint256"
        },
        {
          "indexed": false,
          "internalType": "string",
          "name": "ipfsHash",
          "type": "string"
        },
        {
          "indexed": false,
          "internalType": "uint8",
          "name": "difficulty",
          "type": "uint8"
        }
      ],
      "name": "ChallengeAdded",
      "type": "event"
    },
    {
      "anonymous": false,
      "inputs": [
        {
          "indexed": true,
          "internalType": "address",
          "name": "player",
          "type": "address"
        },
        {
          "indexed": false,
          "internalType": "uint256",
          "name": "challengeId",
          "type": "uint256"
        },
        {
          "indexed": false,
          "internalType": "bool",
          "name": "correct",
          "type": "bool"
        }
      ],
      "name": "ChallengeSubmitted",
      "type": "event"
    },
    {
      "anonymous": false,
      "inputs": [
        {
          "indexed": false,
          "internalType": "uint8",
          "name": "version",
          "type": "uint8"
        }
      ],
      "name": "Initialized",
      "type": "event"
    },
    {
      "anonymous": false,
      "inputs": [
        {
          "indexed": true,
          "internalType": "address",
          "name": "previousOwner",
          "type": "address"
        },
        {
          "indexed": true,
          "internalType": "address",
          "name": "newOwner",
          "type": "address"
        }
      ],
      "name": "OwnershipTransferred",
      "type": "event"
    },
    {
      "anonymous": false,
      "inputs": [
        {
          "indexed": false,
          "internalType": "address",
          "name": "account",
          "type": "address"
        }
      ],
      "name": "Paused",
      "type": "event"
    },
    {
      "anonymous": false,
      "inputs": [
        {
          "indexed": true,
          "internalType": "address",
          "name": "player",
          "type": "address"
        },
        {
          "indexed": false,
          "internalType": "string",
          "name": "profileHash",
          "type": "string"
        }
      ],
      "name": "PlayerUpdated",
      "type": "event"
    },
    {
      "anonymous": false,
      "inputs": [
        {
          "indexed": false,
          "internalType": "address",
          "name": "account",
          "type": "address"
        }
      ],
      "name": "Unpaused",
      "type": "event"
    },
    {
      "anonymous": false,
      "inputs": [
        {
          "indexed": true,
          "internalType": "address",
          "name": "implementation",
          "type": "address"
        }
      ],
      "name": "Upgraded",
      "type": "event"
    },
    {
      "inputs": [
        {
          "internalType": "bytes32",
          "name": "_flagHash",
          "type": "bytes32"
        },
        {
          "internalType": "uint256",
          "name": "_reward",
          "type": "uint256"
        },
        {
          "internalType": "string",
          "name": "_ipfsHash",
          "type": "string"
        },
        {
          "internalType": "uint8",
          "name": "_difficulty",
          "type": "uint8"
        },
        {
          "internalType": "uint256",
          "name": "_submissionFee",
          "type": "uint256"
        }
      ],
      "name": "addChallenge",
      "outputs": [],
      "stateMutability": "nonpayable",
      "type": "function"
    },
    {
      "inputs": [],
      "name": "challengeCounter",
      "outputs": [
        {
          "internalType": "uint256",
          "name": "",
          "type": "uint256"
        }
      ],
      "stateMutability": "view",
      "type": "function"
    },
    {
      "inputs": [
        {
          "internalType": "uint256",
          "name": "",
          "type": "uint256"
        }
      ],
      "name": "challenges",
      "outputs": [
        {
          "internalType": "uint256",
          "name": "challengeId",
          "type": "uint256"
        },
        {
          "internalType": "bytes32",
          "name": "flagHash",
          "type": "bytes32"
        },
        {
          "internalType": "uint256",
          "name": "reward",
          "type": "uint256"
        },
        {
          "internalType": "string",
          "name": "ipfsHash",
          "type": "string"
        },
        {
          "internalType": "uint8",
          "name": "difficulty",
          "type": "uint8"
        },
        {
          "internalType": "uint256",
          "name": "submissionFee",
          "type": "uint256"
        }
      ],
      "stateMutability": "view",
      "type": "function"
    },
    {
      "inputs": [
        {
          "internalType": "uint256",
          "name": "challengeId",
          "type": "uint256"
        }
      ],
      "name": "deleteChallenge",
      "outputs": [],
      "stateMutability": "nonpayable",
      "type": "function"
    },
    {
      "inputs": [],
      "name": "getChallenges",
      "outputs": [
        {
          "components": [
            {
              "internalType": "uint256",
              "name": "challengeId",
              "type": "uint256"
            },
            {
              "internalType": "bytes32",
              "name": "flagHash",
              "type": "bytes32"
            },
            {
              "internalType": "uint256",
              "name": "reward",
              "type": "uint256"
            },
            {
              "internalType": "string",
              "name": "ipfsHash",
              "type": "string"
            },
            {
              "internalType": "uint8",
              "name": "difficulty",
              "type": "uint8"
            },
            {
              "internalType": "uint256",
              "name": "submissionFee",
              "type": "uint256"
            }
          ],
          "internalType": "struct SmartChallengeUpgradeable.Challenge[]",
          "name": "",
          "type": "tuple[]"
        }
      ],
      "stateMutability": "view",
      "type": "function"
    },
    {
      "inputs": [
        {
          "internalType": "address",
          "name": "_player",
          "type": "address"
        }
      ],
      "name": "getPlayer",
      "outputs": [
        {
          "internalType": "uint256",
          "name": "score",
          "type": "uint256"
        },
        {
          "internalType": "string",
          "name": "profileHash",
          "type": "string"
        }
      ],
      "stateMutability": "view",
      "type": "function"
    },
    {
      "inputs": [],
      "name": "getScores",
      "outputs": [
        {
          "internalType": "address[]",
          "name": "",
          "type": "address[]"
        },
        {
          "internalType": "uint256[]",
          "name": "",
          "type": "uint256[]"
        }
      ],
      "stateMutability": "view",
      "type": "function"
    },
    {
      "inputs": [],
      "name": "initialize",
      "outputs": [],
      "stateMutability": "nonpayable",
      "type": "function"
    },
    {
      "inputs": [
        {
          "internalType": "address",
          "name": "_player",
          "type": "address"
        },
        {
          "internalType": "uint256",
          "name": "_challengeId",
          "type": "uint256"
        }
      ],
      "name": "isChallengeSolved",
      "outputs": [
        {
          "internalType": "bool",
          "name": "",
          "type": "bool"
        }
      ],
      "stateMutability": "view",
      "type": "function"
    },
    {
      "inputs": [],
      "name": "owner",
      "outputs": [
        {
          "internalType": "address",
          "name": "",
          "type": "address"
        }
      ],
      "stateMutability": "view",
      "type": "function"
    },
    {
      "inputs": [],
      "name": "pause",
      "outputs": [],
      "stateMutability": "nonpayable",
      "type": "function"
    },
    {
      "inputs": [],
      "name": "paused",
      "outputs": [
        {
          "internalType": "bool",
          "name": "",
          "type": "bool"
        }
      ],
      "stateMutability": "view",
      "type": "function"
    },
    {
      "inputs": [
        {
          "internalType": "uint256",
          "name": "",
          "type": "uint256"
        }
      ],
      "name": "playerAddresses",
      "outputs": [
        {
          "internalType": "address",
          "name": "",
          "type": "address"
        }
      ],
      "stateMutability": "view",
      "type": "function"
    },
    {
      "inputs": [],
      "name": "proxiableUUID",
      "outputs": [
        {
          "internalType": "bytes32",
          "name": "",
          "type": "bytes32"
        }
      ],
      "stateMutability": "view",
      "type": "function"
    },
    {
      "inputs": [],
      "name": "renounceOwnership",
      "outputs": [],
      "stateMutability": "nonpayable",
      "type": "function"
    },
    {
      "inputs": [
        {
          "internalType": "uint256",
          "name": "_challengeId",
          "type": "uint256"
        },
        {
          "internalType": "string",
          "name": "_flag",
          "type": "string"
        }
      ],
      "name": "submitFlag",
      "outputs": [],
      "stateMutability": "payable",
      "type": "function"
    },
    {
      "inputs": [
        {
          "internalType": "address",
          "name": "newOwner",
          "type": "address"
        }
      ],
      "name": "transferOwnership",
      "outputs": [],
      "stateMutability": "nonpayable",
      "type": "function"
    },
    {
      "inputs": [],
      "name": "unpause",
      "outputs": [],
      "stateMutability": "nonpayable",
      "type": "function"
    },
    {
      "inputs": [
        {
          "internalType": "string",
          "name": "_profileHash",
          "type": "string"
        }
      ],
      "name": "updatePlayerProfile",
      "outputs": [],
      "stateMutability": "nonpayable",
      "type": "function"
    },
    {
      "inputs": [
        {
          "internalType": "address",
          "name": "newImplementation",
          "type": "address"
        }
      ],
      "name": "upgradeTo",
      "outputs": [],
      "stateMutability": "nonpayable",
      "type": "function"
    },
    {
      "inputs": [
        {
          "internalType": "address",
          "name": "newImplementation",
          "type": "address"
        },
        {
          "internalType": "bytes",
          "name": "data",
          "type": "bytes"
        }
      ],
      "name": "upgradeToAndCall",
      "outputs": [],
      "stateMutability": "payable",
      "type": "function"
    },
    {
      "inputs": [],
      "name": "withdraw",
      "outputs": [],
      "stateMutability": "nonpayable",
      "type": "function"
    }
  ],
  "bytecode": "0x60a06040523073ffffffffffffffffffffffffffffffffffffffff1660809073ffffffffffffffffffffffffffffffffffffffff168152503480156200004457600080fd5b50620000556200005b60201b60201c565b62000205565b600060019054906101000a900460ff1615620000ae576040517f08c379a0000000000000000000000000000000000000000000000000000000008152600401620000a590620001a8565b60405180910390fd5b60ff801660008054906101000a900460ff1660ff16146200011f5760ff6000806101000a81548160ff021916908360ff1602179055507f7f26b83ff96e1f2b6a682f133852f6798a09c465da95921460cefb384740249860ff604051620001169190620001e8565b60405180910390a15b565b600082825260208201905092915050565b7f496e697469616c697a61626c653a20636f6e747261637420697320696e69746960008201527f616c697a696e6700000000000000000000000000000000000000000000000000602082015250565b60006200019060278362000121565b91506200019d8262000132565b604082019050919050565b60006020820190508181036000830152620001c38162000181565b9050919050565b600060ff82169050919050565b620001e281620001ca565b82525050565b6000602082019050620001ff6000830184620001d7565b92915050565b608051613efc6200023d6000396000818161080a0152818161089801528181610bdf01528181610c6d0152610d1d0152613efc6000f3fe6080604052600436106101355760003560e01c80635c975abb116100ab5780638456cb591161006f5780638456cb59146103ae5780638da5cb5b146103c55780638f1d3776146103f0578063f25a6ed714610432578063f2fde38b1461045b578063f7fed02c1461048457610135565b80635c975abb146102fc578063715018a61461032757806371cc14801461033e5780637f1a1a4e1461037b5780638129fc1c1461039757610135565b80633ccfd60b116100fd5780633ccfd60b1461021e5780633f4ba83a1461023557806346c7c1261461024c5780634f1ef2861461027757806352d1902d146102935780635c12cd4b146102be57610135565b806311a5800d1461013a578063147851b31461016357806315c6aee21461018c5780631ea1380c146101c95780633659cfe6146101f5575b600080fd5b34801561014657600080fd5b50610161600480360381019061015c919061239f565b6104af565b005b34801561016f57600080fd5b5061018a60048036038101906101859190612431565b61056f565b005b34801561019857600080fd5b506101b360048036038101906101ae919061239f565b610616565b6040516101c091906124bf565b60405180910390f35b3480156101d557600080fd5b506101de610656565b6040516101ec929190612656565b60405180910390f35b34801561020157600080fd5b5061021c600480360381019061021791906126b9565b610808565b005b34801561022a57600080fd5b50610233610990565b005b34801561024157600080fd5b5061024a610a31565b005b34801561025857600080fd5b50610261610a43565b60405161026e91906128f6565b60405180910390f35b610291600480360381019061028c9190612a48565b610bdd565b005b34801561029f57600080fd5b506102a8610d19565b6040516102b59190612ab3565b60405180910390f35b3480156102ca57600080fd5b506102e560048036038101906102e091906126b9565b610dd2565b6040516102f3929190612b27565b60405180910390f35b34801561030857600080fd5b50610311610ef2565b60405161031e9190612b72565b60405180910390f35b34801561033357600080fd5b5061033c610f09565b005b34801561034a57600080fd5b5061036560048036038101906103609190612b8d565b610f1d565b6040516103729190612b72565b60405180910390f35b61039560048036038101906103909190612bcd565b610f89565b005b3480156103a357600080fd5b506103ac6113a5565b005b3480156103ba57600080fd5b506103c36114fb565b005b3480156103d157600080fd5b506103da61150d565b6040516103e791906124bf565b60405180910390f35b3480156103fc57600080fd5b506104176004803603810190610412919061239f565b611537565b60405161042996959493929190612c3c565b60405180910390f35b34801561043e57600080fd5b5061045960048036038101906104549190612cfc565b611609565b005b34801561046757600080fd5b50610482600480360381019061047d91906126b9565b6117ff565b005b34801561049057600080fd5b50610499611882565b6040516104a69190612d96565b60405180910390f35b6104b7611889565b600061012e60008381526020019081526020016000206002015411610511576040517f08c379a000000000000000000000000000000000000000000000000000000000815260040161050890612dfd565b60405180910390fd5b61012e60008281526020019081526020016000206000808201600090556001820160009055600282016000905560038201600061054e91906122bc565b6004820160006101000a81549060ff02191690556005820160009055505050565b818161012f60003373ffffffffffffffffffffffffffffffffffffffff1673ffffffffffffffffffffffffffffffffffffffff16815260200190815260200160002060030191826105c1929190613034565b503373ffffffffffffffffffffffffffffffffffffffff167f4065fa66156ee33e13397293f7c2fd228a7a5106fc5d5663b1b14014f09d0405838360405161060a929190613131565b60405180910390a25050565b610130818154811061062757600080fd5b906000526020600020016000915054906101000a900473ffffffffffffffffffffffffffffffffffffffff1681565b60608060006101308054905067ffffffffffffffff81111561067b5761067a61291d565b5b6040519080825280602002602001820160405280156106a95781602001602082028036833780820191505090505b50905060005b610130805490508110156107725761012f600061013083815481106106d7576106d6613155565b5b9060005260206000200160009054906101000a900473ffffffffffffffffffffffffffffffffffffffff1673ffffffffffffffffffffffffffffffffffffffff1673ffffffffffffffffffffffffffffffffffffffff1681526020019081526020016000206001015482828151811061075357610752613155565b5b602002602001018181525050808061076a906131b3565b9150506106af565b5061013081818054806020026020016040519081016040528092919081815260200182805480156107f857602002820191906000526020600020905b8160009054906101000a900473ffffffffffffffffffffffffffffffffffffffff1673ffffffffffffffffffffffffffffffffffffffff16815260200190600101908083116107ae575b5050505050915092509250509091565b7f000000000000000000000000000000000000000000000000000000000000000073ffffffffffffffffffffffffffffffffffffffff163073ffffffffffffffffffffffffffffffffffffffff1603610896576040517f08c379a000000000000000000000000000000000000000000000000000000000815260040161088d9061326d565b60405180910390fd5b7f000000000000000000000000000000000000000000000000000000000000000073ffffffffffffffffffffffffffffffffffffffff166108d5611907565b73ffffffffffffffffffffffffffffffffffffffff161461092b576040517f08c379a0000000000000000000000000000000000000000000000000000000008152600401610922906132ff565b60405180910390fd5b6109348161195e565b61098d81600067ffffffffffffffff8111156109535761095261291d565b5b6040519080825280601f01601f1916602001820160405280156109855781602001600182028036833780820191505090505b506000611969565b50565b610998611889565b6000479050600081116109e0576040517f08c379a00000000000000000000000000000000000000000000000000000000081526004016109d79061336b565b60405180910390fd5b6109e861150d565b73ffffffffffffffffffffffffffffffffffffffff166108fc829081150290604051600060405180830381858888f19350505050158015610a2d573d6000803e3d6000fd5b5050565b610a39611889565b610a41611ad7565b565b6060600061012d5467ffffffffffffffff811115610a6457610a6361291d565b5b604051908082528060200260200182016040528015610a9d57816020015b610a8a6122fc565b815260200190600190039081610a825790505b50905060005b61012d54811015610bd55761012e60008281526020019081526020016000206040518060c0016040529081600082015481526020016001820154815260200160028201548152602001600382018054610afb90612e57565b80601f0160208091040260200160405190810160405280929190818152602001828054610b2790612e57565b8015610b745780601f10610b4957610100808354040283529160200191610b74565b820191906000526020600020905b815481529060010190602001808311610b5757829003601f168201915b505050505081526020016004820160009054906101000a900460ff1660ff1660ff168152602001600582015481525050828281518110610bb757610bb6613155565b5b60200260200101819052508080610bcd906131b3565b915050610aa3565b508091505090565b7f000000000000000000000000000000000000000000000000000000000000000073ffffffffffffffffffffffffffffffffffffffff163073ffffffffffffffffffffffffffffffffffffffff1603610c6b576040517f08c379a0000000000000000000000000000000000000000000000000000000008152600401610c629061326d565b60405180910390fd5b7f000000000000000000000000000000000000000000000000000000000000000073ffffffffffffffffffffffffffffffffffffffff16610caa611907565b73ffffffffffffffffffffffffffffffffffffffff1614610d00576040517f08c379a0000000000000000000000000000000000000000000000000000000008152600401610cf7906132ff565b60405180910390fd5b610d098261195e565b610d1582826001611969565b5050565b60007f000000000000000000000000000000000000000000000000000000000000000073ffffffffffffffffffffffffffffffffffffffff163073ffffffffffffffffffffffffffffffffffffffff1614610da9576040517f08c379a0000000000000000000000000000000000000000000000000000000008152600401610da0906133fd565b60405180910390fd5b7f360894a13ba1a3210667c828492db98dca3e2076cc3735a920a3ca505d382bbc60001b905090565b6000606061012f60008473ffffffffffffffffffffffffffffffffffffffff1673ffffffffffffffffffffffffffffffffffffffff1681526020019081526020016000206001015461012f60008573ffffffffffffffffffffffffffffffffffffffff1673ffffffffffffffffffffffffffffffffffffffff168152602001908152602001600020600301808054610e6990612e57565b80601f0160208091040260200160405190810160405280929190818152602001828054610e9590612e57565b8015610ee25780601f10610eb757610100808354040283529160200191610ee2565b820191906000526020600020905b815481529060010190602001808311610ec557829003601f168201915b5050505050905091509150915091565b600060c960009054906101000a900460ff16905090565b610f11611889565b610f1b6000611b3a565b565b600061012f60008473ffffffffffffffffffffffffffffffffffffffff1673ffffffffffffffffffffffffffffffffffffffff168152602001908152602001600020600201600083815260200190815260200160002060009054906101000a900460ff16905092915050565b610f91611c00565b610f99611c4a565b600061012e600085815260200190815260200160002090508060050154341015610ff8576040517f08c379a0000000000000000000000000000000000000000000000000000000008152600401610fef90613469565b60405180910390fd5b6000838390501161103e576040517f08c379a0000000000000000000000000000000000000000000000000000000008152600401611035906134d5565b60405180910390fd5b61012f60003373ffffffffffffffffffffffffffffffffffffffff1673ffffffffffffffffffffffffffffffffffffffff168152602001908152602001600020600201600085815260200190815260200160002060009054906101000a900460ff16156110e0576040517f08c379a00000000000000000000000000000000000000000000000000000000081526004016110d790613541565b60405180910390fd5b6000816001015484846040516020016110fa929190613591565b6040516020818303038152906040528051906020012014905080156113465761012f60003373ffffffffffffffffffffffffffffffffffffffff1673ffffffffffffffffffffffffffffffffffffffff16815260200190815260200160002060000160009054906101000a900460ff1661122f57600161012f60003373ffffffffffffffffffffffffffffffffffffffff1673ffffffffffffffffffffffffffffffffffffffff16815260200190815260200160002060000160006101000a81548160ff021916908315150217905550610130339080600181540180825580915050600190039060005260206000200160009091909190916101000a81548173ffffffffffffffffffffffffffffffffffffffff021916908373ffffffffffffffffffffffffffffffffffffffff1602179055505b600161012f60003373ffffffffffffffffffffffffffffffffffffffff1673ffffffffffffffffffffffffffffffffffffffff168152602001908152602001600020600201600087815260200190815260200160002060006101000a81548160ff021916908315150217905550816002015461012f60003373ffffffffffffffffffffffffffffffffffffffff1673ffffffffffffffffffffffffffffffffffffffff16815260200190815260200160002060010160008282546112f391906135aa565b925050819055503373ffffffffffffffffffffffffffffffffffffffff166108fc83600201549081150290604051600060405180830381858888f19350505050158015611344573d6000803e3d6000fd5b505b3373ffffffffffffffffffffffffffffffffffffffff167f99ff60502ac5007f259fabfd2c017ecb4fce1819ff4ea41c339a03a6534b9193868360405161138e9291906135de565b60405180910390a250506113a0611c99565b505050565b60008060019054906101000a900460ff161590508080156113d65750600160008054906101000a900460ff1660ff16105b8061140357506113e530611ca3565b1580156114025750600160008054906101000a900460ff1660ff16145b5b611442576040517f08c379a000000000000000000000000000000000000000000000000000000000815260040161143990613679565b60405180910390fd5b60016000806101000a81548160ff021916908360ff160217905550801561147f576001600060016101000a81548160ff0219169083151502179055505b611487611cc6565b61148f611d1f565b611497611d70565b61149f611dc9565b80156114f85760008060016101000a81548160ff0219169083151502179055507f7f26b83ff96e1f2b6a682f133852f6798a09c465da95921460cefb384740249860016040516114ef91906136d4565b60405180910390a15b50565b611503611889565b61150b611e22565b565b6000603360009054906101000a900473ffffffffffffffffffffffffffffffffffffffff16905090565b61012e60205280600052604060002060009150905080600001549080600101549080600201549080600301805461156d90612e57565b80601f016020809104026020016040519081016040528092919081815260200182805461159990612e57565b80156115e65780601f106115bb576101008083540402835291602001916115e6565b820191906000526020600020905b8154815290600101906020018083116115c957829003601f168201915b5050505050908060040160009054906101000a900460ff16908060050154905086565b611611611889565b60008511611654576040517f08c379a000000000000000000000000000000000000000000000000000000000815260040161164b9061373b565b60405180910390fd5b60018260ff161015801561166c575060058260ff1611155b6116ab576040517f08c379a00000000000000000000000000000000000000000000000000000000081526004016116a2906137a7565b60405180910390fd5b6040518060c0016040528061012d54815260200187815260200186815260200185858080601f016020809104026020016040519081016040528093929190818152602001838380828437600081840152601f19601f8201169050808301925050505050505081526020018360ff1681526020018281525061012e600061012d548152602001908152602001600020600082015181600001556020820151816001015560408201518160020155606082015181600301908161176c91906137c7565b5060808201518160040160006101000a81548160ff021916908360ff16021790555060a0820151816005015590505061012d547f767b04b6d502be6af8ac3efa8f208829cad714a56ed13f0e2c518f09f68dfe8487878787876040516117d6959493929190613899565b60405180910390a261012d60008154809291906117f2906131b3565b9190505550505050505050565b611807611889565b600073ffffffffffffffffffffffffffffffffffffffff168173ffffffffffffffffffffffffffffffffffffffff1603611876576040517f08c379a000000000000000000000000000000000000000000000000000000000815260040161186d90613959565b60405180910390fd5b61187f81611b3a565b50565b61012d5481565b611891611e85565b73ffffffffffffffffffffffffffffffffffffffff166118af61150d565b73ffffffffffffffffffffffffffffffffffffffff1614611905576040517f08c379a00000000000000000000000000000000000000000000000000000000081526004016118fc906139c5565b60405180910390fd5b565b60006119357f360894a13ba1a3210667c828492db98dca3e2076cc3735a920a3ca505d382bbc60001b611e8d565b60000160009054906101000a900473ffffffffffffffffffffffffffffffffffffffff16905090565b611966611889565b50565b6119957f4910fdfa16fed3260ed0e7147f7cc6da11a60208b5b9406d12a635614ffd914360001b611e97565b60000160009054906101000a900460ff16156119b9576119b483611ea1565b611ad2565b8273ffffffffffffffffffffffffffffffffffffffff166352d1902d6040518163ffffffff1660e01b8152600401602060405180830381865afa925050508015611a2157506040513d601f19601f82011682018060405250810190611a1e91906139fa565b60015b611a60576040517f08c379a0000000000000000000000000000000000000000000000000000000008152600401611a5790613a99565b60405180910390fd5b7f360894a13ba1a3210667c828492db98dca3e2076cc3735a920a3ca505d382bbc60001b8114611ac5576040517f08c379a0000000000000000000000000000000000000000000000000000000008152600401611abc90613b2b565b60405180910390fd5b50611ad1838383611f5a565b5b505050565b611adf611f86565b600060c960006101000a81548160ff0219169083151502179055507f5db9ee0a495bf2e6ff9c91a7834c1ba4fdd244a5e8aa4e537bd38aeae4b073aa611b23611e85565b604051611b3091906124bf565b60405180910390a1565b6000603360009054906101000a900473ffffffffffffffffffffffffffffffffffffffff16905081603360006101000a81548173ffffffffffffffffffffffffffffffffffffffff021916908373ffffffffffffffffffffffffffffffffffffffff1602179055508173ffffffffffffffffffffffffffffffffffffffff168173ffffffffffffffffffffffffffffffffffffffff167f8be0079c531659141344cd1fd0a4f28419497f9722a3daafe3b4186f6b6457e060405160405180910390a35050565b611c08610ef2565b15611c48576040517f08c379a0000000000000000000000000000000000000000000000000000000008152600401611c3f90613b97565b60405180910390fd5b565b600260fb5403611c8f576040517f08c379a0000000000000000000000000000000000000000000000000000000008152600401611c8690613c03565b60405180910390fd5b600260fb81905550565b600160fb81905550565b6000808273ffffffffffffffffffffffffffffffffffffffff163b119050919050565b600060019054906101000a900460ff16611d15576040517f08c379a0000000000000000000000000000000000000000000000000000000008152600401611d0c90613c95565b60405180910390fd5b611d1d611fcf565b565b600060019054906101000a900460ff16611d6e576040517f08c379a0000000000000000000000000000000000000000000000000000000008152600401611d6590613c95565b60405180910390fd5b565b600060019054906101000a900460ff16611dbf576040517f08c379a0000000000000000000000000000000000000000000000000000000008152600401611db690613c95565b60405180910390fd5b611dc7612030565b565b600060019054906101000a900460ff16611e18576040517f08c379a0000000000000000000000000000000000000000000000000000000008152600401611e0f90613c95565b60405180910390fd5b611e2061209c565b565b611e2a611c00565b600160c960006101000a81548160ff0219169083151502179055507f62e78cea01bee320cd4e420270b5ea74000d11b0c9f74754ebdbfc544b05a258611e6e611e85565b604051611e7b91906124bf565b60405180910390a1565b600033905090565b6000819050919050565b6000819050919050565b611eaa81611ca3565b611ee9576040517f08c379a0000000000000000000000000000000000000000000000000000000008152600401611ee090613d27565b60405180910390fd5b80611f167f360894a13ba1a3210667c828492db98dca3e2076cc3735a920a3ca505d382bbc60001b611e8d565b60000160006101000a81548173ffffffffffffffffffffffffffffffffffffffff021916908373ffffffffffffffffffffffffffffffffffffffff16021790555050565b611f63836120f5565b600082511180611f705750805b15611f8157611f7f8383612144565b505b505050565b611f8e610ef2565b611fcd576040517f08c379a0000000000000000000000000000000000000000000000000000000008152600401611fc490613d93565b60405180910390fd5b565b600060019054906101000a900460ff1661201e576040517f08c379a000000000000000000000000000000000000000000000000000000000815260040161201590613c95565b60405180910390fd5b61202e612029611e85565b611b3a565b565b600060019054906101000a900460ff1661207f576040517f08c379a000000000000000000000000000000000000000000000000000000000815260040161207690613c95565b60405180910390fd5b600060c960006101000a81548160ff021916908315150217905550565b600060019054906101000a900460ff166120eb576040517f08c379a00000000000000000000000000000000000000000000000000000000081526004016120e290613c95565b60405180910390fd5b600160fb81905550565b6120fe81611ea1565b8073ffffffffffffffffffffffffffffffffffffffff167fbc7cd75a20ee27fd9adebab32041f755214dbc6bffa90cc0225b39da2e5c2d3b60405160405180910390a250565b60606121698383604051806060016040528060278152602001613ea060279139612171565b905092915050565b60606000808573ffffffffffffffffffffffffffffffffffffffff168560405161219b9190613dfa565b600060405180830381855af49150503d80600081146121d6576040519150601f19603f3d011682016040523d82523d6000602084013e6121db565b606091505b50915091506121ec868383876121f7565b925050509392505050565b606083156122595760008351036122515761221185611ca3565b612250576040517f08c379a000000000000000000000000000000000000000000000000000000000815260040161224790613e5d565b60405180910390fd5b5b829050612264565b612263838361226c565b5b949350505050565b60008251111561227f5781518083602001fd5b806040517f08c379a00000000000000000000000000000000000000000000000000000000081526004016122b39190613e7d565b60405180910390fd5b5080546122c890612e57565b6000825580601f106122da57506122f9565b601f0160209004906000526020600020908101906122f89190612338565b5b50565b6040518060c0016040528060008152602001600080191681526020016000815260200160608152602001600060ff168152602001600081525090565b5b80821115612351576000816000905550600101612339565b5090565b6000604051905090565b600080fd5b600080fd5b6000819050919050565b61237c81612369565b811461238757600080fd5b50565b60008135905061239981612373565b92915050565b6000602082840312156123b5576123b461235f565b5b60006123c38482850161238a565b91505092915050565b600080fd5b600080fd5b600080fd5b60008083601f8401126123f1576123f06123cc565b5b8235905067ffffffffffffffff81111561240e5761240d6123d1565b5b60208301915083600182028301111561242a576124296123d6565b5b9250929050565b600080602083850312156124485761244761235f565b5b600083013567ffffffffffffffff81111561246657612465612364565b5b612472858286016123db565b92509250509250929050565b600073ffffffffffffffffffffffffffffffffffffffff82169050919050565b60006124a98261247e565b9050919050565b6124b98161249e565b82525050565b60006020820190506124d460008301846124b0565b92915050565b600081519050919050565b600082825260208201905092915050565b6000819050602082019050919050565b61250f8161249e565b82525050565b60006125218383612506565b60208301905092915050565b6000602082019050919050565b6000612545826124da565b61254f81856124e5565b935061255a836124f6565b8060005b8381101561258b5781516125728882612515565b975061257d8361252d565b92505060018101905061255e565b5085935050505092915050565b600081519050919050565b600082825260208201905092915050565b6000819050602082019050919050565b6125cd81612369565b82525050565b60006125df83836125c4565b60208301905092915050565b6000602082019050919050565b600061260382612598565b61260d81856125a3565b9350612618836125b4565b8060005b8381101561264957815161263088826125d3565b975061263b836125eb565b92505060018101905061261c565b5085935050505092915050565b60006040820190508181036000830152612670818561253a565b9050818103602083015261268481846125f8565b90509392505050565b6126968161249e565b81146126a157600080fd5b50565b6000813590506126b38161268d565b92915050565b6000602082840312156126cf576126ce61235f565b5b60006126dd848285016126a4565b91505092915050565b600081519050919050565b600082825260208201905092915050565b6000819050602082019050919050565b6000819050919050565b61272581612712565b82525050565b600081519050919050565b600082825260208201905092915050565b60005b8381101561276557808201518184015260208101905061274a565b60008484015250505050565b6000601f19601f8301169050919050565b600061278d8261272b565b6127978185612736565b93506127a7818560208601612747565b6127b081612771565b840191505092915050565b600060ff82169050919050565b6127d1816127bb565b82525050565b600060c0830160008301516127ef60008601826125c4565b506020830151612802602086018261271c565b50604083015161281560408601826125c4565b506060830151848203606086015261282d8282612782565b915050608083015161284260808601826127c8565b5060a083015161285560a08601826125c4565b508091505092915050565b600061286c83836127d7565b905092915050565b6000602082019050919050565b600061288c826126e6565b61289681856126f1565b9350836020820285016128a885612702565b8060005b858110156128e457848403895281516128c58582612860565b94506128d083612874565b925060208a019950506001810190506128ac565b50829750879550505050505092915050565b600060208201905081810360008301526129108184612881565b905092915050565b600080fd5b7f4e487b7100000000000000000000000000000000000000000000000000000000600052604160045260246000fd5b61295582612771565b810181811067ffffffffffffffff821117156129745761297361291d565b5b80604052505050565b6000612987612355565b9050612993828261294c565b919050565b600067ffffffffffffffff8211156129b3576129b261291d565b5b6129bc82612771565b9050602081019050919050565b82818337600083830152505050565b60006129eb6129e684612998565b61297d565b905082815260208101848484011115612a0757612a06612918565b5b612a128482856129c9565b509392505050565b600082601f830112612a2f57612a2e6123cc565b5b8135612a3f8482602086016129d8565b91505092915050565b60008060408385031215612a5f57612a5e61235f565b5b6000612a6d858286016126a4565b925050602083013567ffffffffffffffff811115612a8e57612a8d612364565b5b612a9a85828601612a1a565b9150509250929050565b612aad81612712565b82525050565b6000602082019050612ac86000830184612aa4565b92915050565b612ad781612369565b82525050565b600082825260208201905092915050565b6000612af98261272b565b612b038185612add565b9350612b13818560208601612747565b612b1c81612771565b840191505092915050565b6000604082019050612b3c6000830185612ace565b8181036020830152612b4e8184612aee565b90509392505050565b60008115159050919050565b612b6c81612b57565b82525050565b6000602082019050612b876000830184612b63565b92915050565b60008060408385031215612ba457612ba361235f565b5b6000612bb2858286016126a4565b9250506020612bc38582860161238a565b9150509250929050565b600080600060408486031215612be657612be561235f565b5b6000612bf48682870161238a565b935050602084013567ffffffffffffffff811115612c1557612c14612364565b5b612c21868287016123db565b92509250509250925092565b612c36816127bb565b82525050565b600060c082019050612c516000830189612ace565b612c5e6020830188612aa4565b612c6b6040830187612ace565b8181036060830152612c7d8186612aee565b9050612c8c6080830185612c2d565b612c9960a0830184612ace565b979650505050505050565b612cad81612712565b8114612cb857600080fd5b50565b600081359050612cca81612ca4565b92915050565b612cd9816127bb565b8114612ce457600080fd5b50565b600081359050612cf681612cd0565b92915050565b60008060008060008060a08789031215612d1957612d1861235f565b5b6000612d2789828a01612cbb565b9650506020612d3889828a0161238a565b955050604087013567ffffffffffffffff811115612d5957612d58612364565b5b612d6589828a016123db565b94509450506060612d7889828a01612ce7565b9250506080612d8989828a0161238a565b9150509295509295509295565b6000602082019050612dab6000830184612ace565b92915050565b7f4368616c6c656e676520646f6573206e6f742065786973740000000000000000600082015250565b6000612de7601883612add565b9150612df282612db1565b602082019050919050565b60006020820190508181036000830152612e1681612dda565b9050919050565b600082905092915050565b7f4e487b7100000000000000000000000000000000000000000000000000000000600052602260045260246000fd5b60006002820490506001821680612e6f57607f821691505b602082108103612e8257612e81612e28565b5b50919050565b60008190508160005260206000209050919050565b60006020601f8301049050919050565b600082821b905092915050565b600060088302612eea7fffffffffffffffffffffffffffffffffffffffffffffffffffffffffffffffff82612ead565b612ef48683612ead565b95508019841693508086168417925050509392505050565b6000819050919050565b6000612f31612f2c612f2784612369565b612f0c565b612369565b9050919050565b6000819050919050565b612f4b83612f16565b612f5f612f5782612f38565b848454612eba565b825550505050565b600090565b612f74612f67565b612f7f818484612f42565b505050565b5b81811015612fa357612f98600082612f6c565b600181019050612f85565b5050565b601f821115612fe857612fb981612e88565b612fc284612e9d565b81016020851015612fd1578190505b612fe5612fdd85612e9d565b830182612f84565b50505b505050565b600082821c905092915050565b600061300b60001984600802612fed565b1980831691505092915050565b60006130248383612ffa565b9150826002028217905092915050565b61303e8383612e1d565b67ffffffffffffffff8111156130575761305661291d565b5b6130618254612e57565b61306c828285612fa7565b6000601f83116001811461309b5760008415613089578287013590505b6130938582613018565b8655506130fb565b601f1984166130a986612e88565b60005b828110156130d1578489013582556001820191506020850194506020810190506130ac565b868310156130ee57848901356130ea601f891682612ffa565b8355505b6001600288020188555050505b50505050505050565b60006131108385612add565b935061311d8385846129c9565b61312683612771565b840190509392505050565b6000602082019050818103600083015261314c818486613104565b90509392505050565b7f4e487b7100000000000000000000000000000000000000000000000000000000600052603260045260246000fd5b7f4e487b7100000000000000000000000000000000000000000000000000000000600052601160045260246000fd5b60006131be82612369565b91507fffffffffffffffffffffffffffffffffffffffffffffffffffffffffffffffff82036131f0576131ef613184565b5b600182019050919050565b7f46756e6374696f6e206d7573742062652063616c6c6564207468726f7567682060008201527f64656c656761746563616c6c0000000000000000000000000000000000000000602082015250565b6000613257602c83612add565b9150613262826131fb565b604082019050919050565b600060208201905081810360008301526132868161324a565b9050919050565b7f46756e6374696f6e206d7573742062652063616c6c6564207468726f7567682060008201527f6163746976652070726f78790000000000000000000000000000000000000000602082015250565b60006132e9602c83612add565b91506132f48261328d565b604082019050919050565b60006020820190508181036000830152613318816132dc565b9050919050565b7f4e6f2062616c616e636520746f20776974686472617700000000000000000000600082015250565b6000613355601683612add565b91506133608261331f565b602082019050919050565b6000602082019050818103600083015261338481613348565b9050919050565b7f555550535570677261646561626c653a206d757374206e6f742062652063616c60008201527f6c6564207468726f7567682064656c656761746563616c6c0000000000000000602082015250565b60006133e7603883612add565b91506133f28261338b565b604082019050919050565b60006020820190508181036000830152613416816133da565b9050919050565b7f496e73756666696369656e742066656500000000000000000000000000000000600082015250565b6000613453601083612add565b915061345e8261341d565b602082019050919050565b6000602082019050818103600083015261348281613446565b9050919050565b7f466c616720697320656d70747900000000000000000000000000000000000000600082015250565b60006134bf600d83612add565b91506134ca82613489565b602082019050919050565b600060208201905081810360008301526134ee816134b2565b9050919050565b7f416c726561647920736f6c766564000000000000000000000000000000000000600082015250565b600061352b600e83612add565b9150613536826134f5565b602082019050919050565b6000602082019050818103600083015261355a8161351e565b9050919050565b600081905092915050565b60006135788385613561565b93506135858385846129c9565b82840190509392505050565b600061359e82848661356c565b91508190509392505050565b60006135b582612369565b91506135c083612369565b92508282019050808211156135d8576135d7613184565b5b92915050565b60006040820190506135f36000830185612ace565b6136006020830184612b63565b9392505050565b7f496e697469616c697a61626c653a20636f6e747261637420697320616c72656160008201527f647920696e697469616c697a6564000000000000000000000000000000000000602082015250565b6000613663602e83612add565b915061366e82613607565b604082019050919050565b6000602082019050818103600083015261369281613656565b9050919050565b6000819050919050565b60006136be6136b96136b484613699565b612f0c565b6127bb565b9050919050565b6136ce816136a3565b82525050565b60006020820190506136e960008301846136c5565b92915050565b7f526577617264206d757374206265203e20300000000000000000000000000000600082015250565b6000613725601283612add565b9150613730826136ef565b602082019050919050565b6000602082019050818103600083015261375481613718565b9050919050565b7f496e76616c696420646966666963756c74790000000000000000000000000000600082015250565b6000613791601283612add565b915061379c8261375b565b602082019050919050565b600060208201905081810360008301526137c081613784565b9050919050565b6137d08261272b565b67ffffffffffffffff8111156137e9576137e861291d565b5b6137f38254612e57565b6137fe828285612fa7565b600060209050601f831160018114613831576000841561381f578287015190505b6138298582613018565b865550613891565b601f19841661383f86612e88565b60005b8281101561386757848901518255600182019150602085019450602081019050613842565b868310156138845784890151613880601f891682612ffa565b8355505b6001600288020188555050505b505050505050565b60006080820190506138ae6000830188612aa4565b6138bb6020830187612ace565b81810360408301526138ce818587613104565b90506138dd6060830184612c2d565b9695505050505050565b7f4f776e61626c653a206e6577206f776e657220697320746865207a65726f206160008201527f6464726573730000000000000000000000000000000000000000000000000000602082015250565b6000613943602683612add565b915061394e826138e7565b604082019050919050565b6000602082019050818103600083015261397281613936565b9050919050565b7f4f776e61626c653a2063616c6c6572206973206e6f7420746865206f776e6572600082015250565b60006139af602083612add565b91506139ba82613979565b602082019050919050565b600060208201905081810360008301526139de816139a2565b9050919050565b6000815190506139f481612ca4565b92915050565b600060208284031215613a1057613a0f61235f565b5b6000613a1e848285016139e5565b91505092915050565b7f45524331393637557067726164653a206e657720696d706c656d656e7461746960008201527f6f6e206973206e6f742055555053000000000000000000000000000000000000602082015250565b6000613a83602e83612add565b9150613a8e82613a27565b604082019050919050565b60006020820190508181036000830152613ab281613a76565b9050919050565b7f45524331393637557067726164653a20756e737570706f727465642070726f7860008201527f6961626c65555549440000000000000000000000000000000000000000000000602082015250565b6000613b15602983612add565b9150613b2082613ab9565b604082019050919050565b60006020820190508181036000830152613b4481613b08565b9050919050565b7f5061757361626c653a2070617573656400000000000000000000000000000000600082015250565b6000613b81601083612add565b9150613b8c82613b4b565b602082019050919050565b60006020820190508181036000830152613bb081613b74565b9050919050565b7f5265656e7472616e637947756172643a207265656e7472616e742063616c6c00600082015250565b6000613bed601f83612add565b9150613bf882613bb7565b602082019050919050565b60006020820190508181036000830152613c1c81613be0565b9050919050565b7f496e697469616c697a61626c653a20636f6e7472616374206973206e6f74206960008201527f6e697469616c697a696e67000000000000000000000000000000000000000000602082015250565b6000613c7f602b83612add565b9150613c8a82613c23565b604082019050919050565b60006020820190508181036000830152613cae81613c72565b9050919050565b7f455243313936373a206e657720696d706c656d656e746174696f6e206973206e60008201527f6f74206120636f6e747261637400000000000000000000000000000000000000602082015250565b6000613d11602d83612add565b9150613d1c82613cb5565b604082019050919050565b60006020820190508181036000830152613d4081613d04565b9050919050565b7f5061757361626c653a206e6f7420706175736564000000000000000000000000600082015250565b6000613d7d601483612add565b9150613d8882613d47565b602082019050919050565b60006020820190508181036000830152613dac81613d70565b9050919050565b600081519050919050565b600081905092915050565b6000613dd482613db3565b613dde8185613dbe565b9350613dee818560208601612747565b80840191505092915050565b6000613e068284613dc9565b915081905092915050565b7f416464726573733a2063616c6c20746f206e6f6e2d636f6e7472616374000000600082015250565b6000613e47601d83612add565b9150613e5282613e11565b602082019050919050565b60006020820190508181036000830152613e7681613e3a565b9050919050565b60006020820190508181036000830152613e978184612aee565b90509291505056fe416464726573733a206c6f772d6c6576656c2064656c65676174652063616c6c206661696c6564a2646970667358221220a7797092115d611d128d4f38594c6d364344827b8d6ae8a432c5b1fa8e8148dd64736f6c63430008140033",
  "linkReferences": {},
  "deployedLinkReferences": {}
}