{
  "_format": "hh-sol-artifact-1",
  "contractName": "SmartChallengeUpgradeable",
  "sourceName": "contracts/SmartChallengeUpgradeable.sol",
  "abi": [
    {
      "inputs": [],
      "stateMutability": "nonpayable",
      "type": "constructor"
    },
    {
      "anonymous": false,
      "inputs": [
        {
          "indexed": false,
          "internalType": "address",
          "name": "previousAdmin",
          "type": "address"
        },
        {
          "indexed": false,
          "internalType": "address",
          "name": "newAdmin",
          "type": "address"
        }
      ],
      "name": "AdminChanged",
      "type": "event"
    },
    {
      "anonymous": false,
      "inputs": [
        {
          "indexed": true,
          "internalType": "address",
          "name": "beacon",
          "type": "address"
        }
      ],
      "name": "BeaconUpgraded",
      "type": "event"
    },
    {
      "anonymous": false,
      "inputs": [
        {
          "indexed": true,
          "internalType": "uint256",
          "name": "challengeId",
          "type": "uint256"
        },
        {
          "indexed": false,
          "internalType": "bytes32",
          "name": "flagHash",
          "type": "bytes32"
        },
        {
          "indexed": false,
          "internalType": "uint256",
          "name": "reward",
          "type": "uint256"
        },
        {
          "indexed": false,
          "internalType": "string",
          "name": "ipfsHash",
          "type": "string"
        },
        {
          "indexed": false,
          "internalType": "uint8",
          "name": "difficulty",
          "type": "uint8"
        }
      ],
      "name": "ChallengeAdded",
      "type": "event"
    },
    {
      "anonymous": false,
      "inputs": [
        {
          "indexed": true,
          "internalType": "address",
          "name": "player",
          "type": "address"
        },
        {
          "indexed": false,
          "internalType": "uint256",
          "name": "challengeId",
          "type": "uint256"
        },
        {
          "indexed": false,
          "internalType": "bool",
          "name": "correct",
          "type": "bool"
        }
      ],
      "name": "ChallengeSubmitted",
      "type": "event"
    },
    {
      "anonymous": false,
      "inputs": [
        {
          "indexed": true,
          "internalType": "address",
          "name": "from",
          "type": "address"
        },
        {
          "indexed": false,
          "internalType": "uint256",
          "name": "amount",
          "type": "uint256"
        }
      ],
      "name": "Funded",
      "type": "event"
    },
    {
      "anonymous": false,
      "inputs": [
        {
          "indexed": false,
          "internalType": "uint8",
          "name": "version",
          "type": "uint8"
        }
      ],
      "name": "Initialized",
      "type": "event"
    },
    {
      "anonymous": false,
      "inputs": [
        {
          "indexed": true,
          "internalType": "address",
          "name": "previousOwner",
          "type": "address"
        },
        {
          "indexed": true,
          "internalType": "address",
          "name": "newOwner",
          "type": "address"
        }
      ],
      "name": "OwnershipTransferred",
      "type": "event"
    },
    {
      "anonymous": false,
      "inputs": [
        {
          "indexed": false,
          "internalType": "address",
          "name": "account",
          "type": "address"
        }
      ],
      "name": "Paused",
      "type": "event"
    },
    {
      "anonymous": false,
      "inputs": [
        {
          "indexed": false,
          "internalType": "address",
          "name": "account",
          "type": "address"
        }
      ],
      "name": "Unpaused",
      "type": "event"
    },
    {
      "anonymous": false,
      "inputs": [
        {
          "indexed": true,
          "internalType": "address",
          "name": "implementation",
          "type": "address"
        }
      ],
      "name": "Upgraded",
      "type": "event"
    },
    {
      "inputs": [
        {
          "internalType": "uint256",
          "name": "",
          "type": "uint256"
        }
      ],
      "name": "activeChallengeIds",
      "outputs": [
        {
          "internalType": "uint256",
          "name": "",
          "type": "uint256"
        }
      ],
      "stateMutability": "view",
      "type": "function"
    },
    {
      "inputs": [
        {
          "internalType": "bytes32",
          "name": "_flagHash",
          "type": "bytes32"
        },
        {
          "internalType": "uint256",
          "name": "_reward",
          "type": "uint256"
        },
        {
          "internalType": "string",
          "name": "_ipfsHash",
          "type": "string"
        },
        {
          "internalType": "uint8",
          "name": "_difficulty",
          "type": "uint8"
        },
        {
          "internalType": "uint256",
          "name": "_submissionFee",
          "type": "uint256"
        }
      ],
      "name": "addChallenge",
      "outputs": [],
      "stateMutability": "nonpayable",
      "type": "function"
    },
    {
      "inputs": [],
      "name": "challengeCounter",
      "outputs": [
        {
          "internalType": "uint256",
          "name": "",
          "type": "uint256"
        }
      ],
      "stateMutability": "view",
      "type": "function"
    },
    {
      "inputs": [
        {
          "internalType": "uint256",
          "name": "",
          "type": "uint256"
        }
      ],
      "name": "challenges",
      "outputs": [
        {
          "internalType": "uint256",
          "name": "challengeId",
          "type": "uint256"
        },
        {
          "internalType": "bytes32",
          "name": "flagHash",
          "type": "bytes32"
        },
        {
          "internalType": "uint256",
          "name": "reward",
          "type": "uint256"
        },
        {
          "internalType": "string",
          "name": "ipfsHash",
          "type": "string"
        },
        {
          "internalType": "uint8",
          "name": "difficulty",
          "type": "uint8"
        },
        {
          "internalType": "uint256",
          "name": "submissionFee",
          "type": "uint256"
        }
      ],
      "stateMutability": "view",
      "type": "function"
    },
    {
      "inputs": [
        {
          "internalType": "uint256",
          "name": "challengeId",
          "type": "uint256"
        }
      ],
      "name": "deleteChallenge",
      "outputs": [],
      "stateMutability": "nonpayable",
      "type": "function"
    },
    {
      "inputs": [],
      "name": "fund",
      "outputs": [],
      "stateMutability": "payable",
      "type": "function"
    },
    {
      "inputs": [],
      "name": "getActiveChallengeIds",
      "outputs": [
        {
          "internalType": "uint256[]",
          "name": "",
          "type": "uint256[]"
        }
      ],
      "stateMutability": "view",
      "type": "function"
    },
    {
      "inputs": [],
      "name": "getChallenges",
      "outputs": [
        {
          "components": [
            {
              "internalType": "uint256",
              "name": "challengeId",
              "type": "uint256"
            },
            {
              "internalType": "bytes32",
              "name": "flagHash",
              "type": "bytes32"
            },
            {
              "internalType": "uint256",
              "name": "reward",
              "type": "uint256"
            },
            {
              "internalType": "string",
              "name": "ipfsHash",
              "type": "string"
            },
            {
              "internalType": "uint8",
              "name": "difficulty",
              "type": "uint8"
            },
            {
              "internalType": "uint256",
              "name": "submissionFee",
              "type": "uint256"
            }
          ],
          "internalType": "struct SmartChallengeUpgradeable.Challenge[]",
          "name": "",
          "type": "tuple[]"
        }
      ],
      "stateMutability": "view",
      "type": "function"
    },
    {
      "inputs": [
        {
          "internalType": "address",
          "name": "_player",
          "type": "address"
        }
      ],
      "name": "getPlayer",
      "outputs": [
        {
          "internalType": "uint256",
          "name": "score",
          "type": "uint256"
        }
      ],
      "stateMutability": "view",
      "type": "function"
    },
    {
      "inputs": [],
      "name": "getPlayerAddresses",
      "outputs": [
        {
          "internalType": "address[]",
          "name": "",
          "type": "address[]"
        }
      ],
      "stateMutability": "view",
      "type": "function"
    },
    {
      "inputs": [],
      "name": "getScores",
      "outputs": [
        {
          "internalType": "address[]",
          "name": "",
          "type": "address[]"
        },
        {
          "internalType": "uint256[]",
          "name": "",
          "type": "uint256[]"
        }
      ],
      "stateMutability": "view",
      "type": "function"
    },
    {
      "inputs": [],
      "name": "initialize",
      "outputs": [],
      "stateMutability": "nonpayable",
      "type": "function"
    },
    {
      "inputs": [
        {
          "internalType": "address",
          "name": "_player",
          "type": "address"
        },
        {
          "internalType": "uint256",
          "name": "_challengeId",
          "type": "uint256"
        }
      ],
      "name": "isChallengeSolved",
      "outputs": [
        {
          "internalType": "bool",
          "name": "",
          "type": "bool"
        }
      ],
      "stateMutability": "view",
      "type": "function"
    },
    {
      "inputs": [],
      "name": "owner",
      "outputs": [
        {
          "internalType": "address",
          "name": "",
          "type": "address"
        }
      ],
      "stateMutability": "view",
      "type": "function"
    },
    {
      "inputs": [],
      "name": "pause",
      "outputs": [],
      "stateMutability": "nonpayable",
      "type": "function"
    },
    {
      "inputs": [],
      "name": "paused",
      "outputs": [
        {
          "internalType": "bool",
          "name": "",
          "type": "bool"
        }
      ],
      "stateMutability": "view",
      "type": "function"
    },
    {
      "inputs": [
        {
          "internalType": "uint256",
          "name": "",
          "type": "uint256"
        }
      ],
      "name": "playerAddresses",
      "outputs": [
        {
          "internalType": "address",
          "name": "",
          "type": "address"
        }
      ],
      "stateMutability": "view",
      "type": "function"
    },
    {
      "inputs": [],
      "name": "proxiableUUID",
      "outputs": [
        {
          "internalType": "bytes32",
          "name": "",
          "type": "bytes32"
        }
      ],
      "stateMutability": "view",
      "type": "function"
    },
    {
      "inputs": [],
      "name": "renounceOwnership",
      "outputs": [],
      "stateMutability": "nonpayable",
      "type": "function"
    },
    {
      "inputs": [
        {
          "internalType": "uint256",
          "name": "_challengeId",
          "type": "uint256"
        },
        {
          "internalType": "string",
          "name": "_flag",
          "type": "string"
        }
      ],
      "name": "submitFlag",
      "outputs": [],
      "stateMutability": "payable",
      "type": "function"
    },
    {
      "inputs": [
        {
          "internalType": "address",
          "name": "newOwner",
          "type": "address"
        }
      ],
      "name": "transferOwnership",
      "outputs": [],
      "stateMutability": "nonpayable",
      "type": "function"
    },
    {
      "inputs": [],
      "name": "unpause",
      "outputs": [],
      "stateMutability": "nonpayable",
      "type": "function"
    },
    {
      "inputs": [
        {
          "internalType": "uint256",
          "name": "challengeId",
          "type": "uint256"
        },
        {
          "internalType": "bytes32",
          "name": "newFlagHash",
          "type": "bytes32"
        },
        {
          "internalType": "uint256",
          "name": "newReward",
          "type": "uint256"
        },
        {
          "internalType": "string",
          "name": "newIpfsHash",
          "type": "string"
        },
        {
          "internalType": "uint8",
          "name": "newDifficulty",
          "type": "uint8"
        },
        {
          "internalType": "uint256",
          "name": "newSubmissionFee",
          "type": "uint256"
        }
      ],
      "name": "updateChallenge",
      "outputs": [],
      "stateMutability": "nonpayable",
      "type": "function"
    },
    {
      "inputs": [
        {
          "internalType": "address",
          "name": "newImplementation",
          "type": "address"
        }
      ],
      "name": "upgradeTo",
      "outputs": [],
      "stateMutability": "nonpayable",
      "type": "function"
    },
    {
      "inputs": [
        {
          "internalType": "address",
          "name": "newImplementation",
          "type": "address"
        },
        {
          "internalType": "bytes",
          "name": "data",
          "type": "bytes"
        }
      ],
      "name": "upgradeToAndCall",
      "outputs": [],
      "stateMutability": "payable",
      "type": "function"
    },
    {
      "inputs": [],
      "name": "withdraw",
      "outputs": [],
      "stateMutability": "nonpayable",
      "type": "function"
    },
    {
      "stateMutability": "payable",
      "type": "receive"
    }
  ],
  "bytecode": "0x60a06040523073ffffffffffffffffffffffffffffffffffffffff1660809073ffffffffffffffffffffffffffffffffffffffff168152503480156200004457600080fd5b50620000556200005b60201b60201c565b62000205565b600060019054906101000a900460ff1615620000ae576040517f08c379a0000000000000000000000000000000000000000000000000000000008152600401620000a590620001a8565b60405180910390fd5b60ff801660008054906101000a900460ff1660ff16146200011f5760ff6000806101000a81548160ff021916908360ff1602179055507f7f26b83ff96e1f2b6a682f133852f6798a09c465da95921460cefb384740249860ff604051620001169190620001e8565b60405180910390a15b565b600082825260208201905092915050565b7f496e697469616c697a61626c653a20636f6e747261637420697320696e69746960008201527f616c697a696e6700000000000000000000000000000000000000000000000000602082015250565b60006200019060278362000121565b91506200019d8262000132565b604082019050919050565b60006020820190508181036000830152620001c38162000181565b9050919050565b600060ff82169050919050565b620001e281620001ca565b82525050565b6000602082019050620001ff6000830184620001d7565b92915050565b6080516143fb6200023d600039600081816109cb01528181610a5901528181610dea01528181610e780152610f2801526143fb6000f3fe6080604052600436106101855760003560e01c8063715018a6116100d15780638da5cb5b1161008a578063c98c399a11610064578063c98c399a1461054a578063f25a6ed714610573578063f2fde38b1461059c578063f7fed02c146105c5576101da565b80638da5cb5b146104d35780638f1d3776146104fe578063b60d428814610540576101da565b8063715018a61461040a57806371cc148014610421578063724d49241461045e5780637f1a1a4e146104895780638129fc1c146104a55780638456cb59146104bc576101da565b80633ccfd60b1161013e5780634f1ef286116101185780634f1ef2861461035b57806352d1902d146103775780635c12cd4b146103a25780635c975abb146103df576101da565b80633ccfd60b146103025780633f4ba83a1461031957806346c7c12614610330576101da565b80630725ac00146101df57806311a5800d1461020a57806315c6aee2146102335780631ea1380c146102705780633659cfe61461029c5780633832b585146102c5576101da565b366101da573373ffffffffffffffffffffffffffffffffffffffff167f5af8184bef8e4b45eb9f6ed7734d04da38ced226495548f46e0c8ff8d7d9a524346040516101d0919061274c565b60405180910390a2005b600080fd5b3480156101eb57600080fd5b506101f46105f0565b6040516102019190612825565b60405180910390f35b34801561021657600080fd5b50610231600480360381019061022c9190612887565b610649565b005b34801561023f57600080fd5b5061025a60048036038101906102559190612887565b6107d7565b60405161026791906128f5565b60405180910390f35b34801561027c57600080fd5b50610285610817565b6040516102939291906129ce565b60405180910390f35b3480156102a857600080fd5b506102c360048036038101906102be9190612a31565b6109c9565b005b3480156102d157600080fd5b506102ec60048036038101906102e79190612887565b610b51565b6040516102f9919061274c565b60405180910390f35b34801561030e57600080fd5b50610317610b76565b005b34801561032557600080fd5b5061032e610c17565b005b34801561033c57600080fd5b50610345610c29565b6040516103529190612c6e565b60405180910390f35b61037560048036038101906103709190612dc5565b610de8565b005b34801561038357600080fd5b5061038c610f24565b6040516103999190612e30565b60405180910390f35b3480156103ae57600080fd5b506103c960048036038101906103c49190612a31565b610fdd565b6040516103d6919061274c565b60405180910390f35b3480156103eb57600080fd5b506103f461102a565b6040516104019190612e66565b60405180910390f35b34801561041657600080fd5b5061041f611041565b005b34801561042d57600080fd5b5061044860048036038101906104439190612e81565b611055565b6040516104559190612e66565b60405180910390f35b34801561046a57600080fd5b506104736110c1565b6040516104809190612ec1565b60405180910390f35b6104a3600480360381019061049e9190612f43565b611150565b005b3480156104b157600080fd5b506104ba61156c565b005b3480156104c857600080fd5b506104d16116c2565b005b3480156104df57600080fd5b506104e86116d4565b6040516104f591906128f5565b60405180910390f35b34801561050a57600080fd5b5061052560048036038101906105209190612887565b6116fe565b60405161053796959493929190612ffc565b60405180910390f35b6105486117d0565b005b34801561055657600080fd5b50610571600480360381019061056c91906130bc565b611863565b005b34801561057f57600080fd5b5061059a6004803603810190610595919061316b565b6119ba565b005b3480156105a857600080fd5b506105c360048036038101906105be9190612a31565b611bdd565b005b3480156105d157600080fd5b506105da611c60565b6040516105e7919061274c565b60405180910390f35b606061013180548060200260200160405190810160405280929190818152602001828054801561063f57602002820191906000526020600020905b81548152602001906001019080831161062b575b5050505050905090565b610651611c67565b600061012e600083815260200190815260200160002060020154116106ab576040517f08c379a00000000000000000000000000000000000000000000000000000000081526004016106a290613251565b60405180910390fd5b61012e6000828152602001908152602001600020600080820160009055600182016000905560028201600090556003820160006106e8919061269a565b6004820160006101000a81549060ff02191690556005820160009055505060005b610131805490508110156107d35781610131828154811061072d5761072c613271565b5b9060005260206000200154036107c05761013160016101318054905061075391906132cf565b8154811061076457610763613271565b5b9060005260206000200154610131828154811061078457610783613271565b5b90600052602060002001819055506101318054806107a5576107a4613303565b5b600190038181906000526020600020016000905590556107d3565b80806107cb90613332565b915050610709565b5050565b61013081815481106107e857600080fd5b906000526020600020016000915054906101000a900473ffffffffffffffffffffffffffffffffffffffff1681565b60608060006101308054905067ffffffffffffffff81111561083c5761083b612c9a565b5b60405190808252806020026020018201604052801561086a5781602001602082028036833780820191505090505b50905060005b610130805490508110156109335761012f6000610130838154811061089857610897613271565b5b9060005260206000200160009054906101000a900473ffffffffffffffffffffffffffffffffffffffff1673ffffffffffffffffffffffffffffffffffffffff1673ffffffffffffffffffffffffffffffffffffffff1681526020019081526020016000206001015482828151811061091457610913613271565b5b602002602001018181525050808061092b90613332565b915050610870565b5061013081818054806020026020016040519081016040528092919081815260200182805480156109b957602002820191906000526020600020905b8160009054906101000a900473ffffffffffffffffffffffffffffffffffffffff1673ffffffffffffffffffffffffffffffffffffffff168152602001906001019080831161096f575b5050505050915092509250509091565b7f000000000000000000000000000000000000000000000000000000000000000073ffffffffffffffffffffffffffffffffffffffff163073ffffffffffffffffffffffffffffffffffffffff1603610a57576040517f08c379a0000000000000000000000000000000000000000000000000000000008152600401610a4e906133ec565b60405180910390fd5b7f000000000000000000000000000000000000000000000000000000000000000073ffffffffffffffffffffffffffffffffffffffff16610a96611ce5565b73ffffffffffffffffffffffffffffffffffffffff1614610aec576040517f08c379a0000000000000000000000000000000000000000000000000000000008152600401610ae39061347e565b60405180910390fd5b610af581611d3c565b610b4e81600067ffffffffffffffff811115610b1457610b13612c9a565b5b6040519080825280601f01601f191660200182016040528015610b465781602001600182028036833780820191505090505b506000611d47565b50565b6101318181548110610b6257600080fd5b906000526020600020016000915090505481565b610b7e611c67565b600047905060008111610bc6576040517f08c379a0000000000000000000000000000000000000000000000000000000008152600401610bbd906134ea565b60405180910390fd5b610bce6116d4565b73ffffffffffffffffffffffffffffffffffffffff166108fc829081150290604051600060405180830381858888f19350505050158015610c13573d6000803e3d6000fd5b5050565b610c1f611c67565b610c27611eb5565b565b606060006101318054905067ffffffffffffffff811115610c4d57610c4c612c9a565b5b604051908082528060200260200182016040528015610c8657816020015b610c736126da565b815260200190600190039081610c6b5790505b50905060005b61013180549050811015610de05761012e60006101318381548110610cb457610cb3613271565b5b906000526020600020015481526020019081526020016000206040518060c0016040529081600082015481526020016001820154815260200160028201548152602001600382018054610d0690613539565b80601f0160208091040260200160405190810160405280929190818152602001828054610d3290613539565b8015610d7f5780601f10610d5457610100808354040283529160200191610d7f565b820191906000526020600020905b815481529060010190602001808311610d6257829003601f168201915b505050505081526020016004820160009054906101000a900460ff1660ff1660ff168152602001600582015481525050828281518110610dc257610dc1613271565b5b60200260200101819052508080610dd890613332565b915050610c8c565b508091505090565b7f000000000000000000000000000000000000000000000000000000000000000073ffffffffffffffffffffffffffffffffffffffff163073ffffffffffffffffffffffffffffffffffffffff1603610e76576040517f08c379a0000000000000000000000000000000000000000000000000000000008152600401610e6d906133ec565b60405180910390fd5b7f000000000000000000000000000000000000000000000000000000000000000073ffffffffffffffffffffffffffffffffffffffff16610eb5611ce5565b73ffffffffffffffffffffffffffffffffffffffff1614610f0b576040517f08c379a0000000000000000000000000000000000000000000000000000000008152600401610f029061347e565b60405180910390fd5b610f1482611d3c565b610f2082826001611d47565b5050565b60007f000000000000000000000000000000000000000000000000000000000000000073ffffffffffffffffffffffffffffffffffffffff163073ffffffffffffffffffffffffffffffffffffffff1614610fb4576040517f08c379a0000000000000000000000000000000000000000000000000000000008152600401610fab906135dc565b60405180910390fd5b7f360894a13ba1a3210667c828492db98dca3e2076cc3735a920a3ca505d382bbc60001b905090565b600061012f60008373ffffffffffffffffffffffffffffffffffffffff1673ffffffffffffffffffffffffffffffffffffffff168152602001908152602001600020600101549050919050565b600060c960009054906101000a900460ff16905090565b611049611c67565b6110536000611f18565b565b600061012f60008473ffffffffffffffffffffffffffffffffffffffff1673ffffffffffffffffffffffffffffffffffffffff168152602001908152602001600020600201600083815260200190815260200160002060009054906101000a900460ff16905092915050565b606061013080548060200260200160405190810160405280929190818152602001828054801561114657602002820191906000526020600020905b8160009054906101000a900473ffffffffffffffffffffffffffffffffffffffff1673ffffffffffffffffffffffffffffffffffffffff16815260200190600101908083116110fc575b5050505050905090565b611158611fde565b611160612028565b600061012e6000858152602001908152602001600020905080600501543410156111bf576040517f08c379a00000000000000000000000000000000000000000000000000000000081526004016111b690613648565b60405180910390fd5b60008383905011611205576040517f08c379a00000000000000000000000000000000000000000000000000000000081526004016111fc906136b4565b60405180910390fd5b61012f60003373ffffffffffffffffffffffffffffffffffffffff1673ffffffffffffffffffffffffffffffffffffffff168152602001908152602001600020600201600085815260200190815260200160002060009054906101000a900460ff16156112a7576040517f08c379a000000000000000000000000000000000000000000000000000000000815260040161129e90613720565b60405180910390fd5b6000816001015484846040516020016112c1929190613770565b60405160208183030381529060405280519060200120149050801561150d5761012f60003373ffffffffffffffffffffffffffffffffffffffff1673ffffffffffffffffffffffffffffffffffffffff16815260200190815260200160002060000160009054906101000a900460ff166113f657600161012f60003373ffffffffffffffffffffffffffffffffffffffff1673ffffffffffffffffffffffffffffffffffffffff16815260200190815260200160002060000160006101000a81548160ff021916908315150217905550610130339080600181540180825580915050600190039060005260206000200160009091909190916101000a81548173ffffffffffffffffffffffffffffffffffffffff021916908373ffffffffffffffffffffffffffffffffffffffff1602179055505b600161012f60003373ffffffffffffffffffffffffffffffffffffffff1673ffffffffffffffffffffffffffffffffffffffff168152602001908152602001600020600201600087815260200190815260200160002060006101000a81548160ff021916908315150217905550816002015461012f60003373ffffffffffffffffffffffffffffffffffffffff1673ffffffffffffffffffffffffffffffffffffffff16815260200190815260200160002060010160008282546114ba9190613789565b925050819055503373ffffffffffffffffffffffffffffffffffffffff166108fc83600201549081150290604051600060405180830381858888f1935050505015801561150b573d6000803e3d6000fd5b505b3373ffffffffffffffffffffffffffffffffffffffff167f99ff60502ac5007f259fabfd2c017ecb4fce1819ff4ea41c339a03a6534b919386836040516115559291906137bd565b60405180910390a25050611567612077565b505050565b60008060019054906101000a900460ff1615905080801561159d5750600160008054906101000a900460ff1660ff16105b806115ca57506115ac30612081565b1580156115c95750600160008054906101000a900460ff1660ff16145b5b611609576040517f08c379a000000000000000000000000000000000000000000000000000000000815260040161160090613858565b60405180910390fd5b60016000806101000a81548160ff021916908360ff1602179055508015611646576001600060016101000a81548160ff0219169083151502179055505b61164e6120a4565b6116566120fd565b61165e61214e565b6116666121a7565b80156116bf5760008060016101000a81548160ff0219169083151502179055507f7f26b83ff96e1f2b6a682f133852f6798a09c465da95921460cefb384740249860016040516116b691906138bd565b60405180910390a15b50565b6116ca611c67565b6116d2612200565b565b6000603360009054906101000a900473ffffffffffffffffffffffffffffffffffffffff16905090565b61012e60205280600052604060002060009150905080600001549080600101549080600201549080600301805461173490613539565b80601f016020809104026020016040519081016040528092919081815260200182805461176090613539565b80156117ad5780601f10611782576101008083540402835291602001916117ad565b820191906000526020600020905b81548152906001019060200180831161179057829003601f168201915b5050505050908060040160009054906101000a900460ff16908060050154905086565b60003411611813576040517f08c379a000000000000000000000000000000000000000000000000000000000815260040161180a90613924565b60405180910390fd5b3373ffffffffffffffffffffffffffffffffffffffff167f5af8184bef8e4b45eb9f6ed7734d04da38ced226495548f46e0c8ff8d7d9a52434604051611859919061274c565b60405180910390a2565b61186b611c67565b600085116118ae576040517f08c379a00000000000000000000000000000000000000000000000000000000081526004016118a590613990565b60405180910390fd5b60018260ff16101580156118c6575060058260ff1611155b611905576040517f08c379a00000000000000000000000000000000000000000000000000000000081526004016118fc906139fc565b60405180910390fd5b600061012e600089815260200190815260200160002090506000816002015411611964576040517f08c379a000000000000000000000000000000000000000000000000000000000815260040161195b90613251565b60405180910390fd5b8681600101819055508581600201819055508484826003019182611989929190613bc9565b50828160040160006101000a81548160ff021916908360ff1602179055508181600501819055505050505050505050565b6119c2611c67565b60008511611a05576040517f08c379a00000000000000000000000000000000000000000000000000000000081526004016119fc90613990565b60405180910390fd5b60018260ff1610158015611a1d575060058260ff1611155b611a5c576040517f08c379a0000000000000000000000000000000000000000000000000000000008152600401611a53906139fc565b60405180910390fd5b6040518060c0016040528061012d54815260200187815260200186815260200185858080601f016020809104026020016040519081016040528093929190818152602001838380828437600081840152601f19601f8201169050808301925050505050505081526020018360ff1681526020018281525061012e600061012d5481526020019081526020016000206000820151816000015560208201518160010155604082015181600201556060820151816003019081611b1d9190613c99565b5060808201518160040160006101000a81548160ff021916908360ff16021790555060a0820151816005015590505061013161012d54908060018154018082558091505060019003906000526020600020016000909190919091505561012d547f767b04b6d502be6af8ac3efa8f208829cad714a56ed13f0e2c518f09f68dfe848787878787604051611bb4959493929190613d98565b60405180910390a261012d6000815480929190611bd090613332565b9190505550505050505050565b611be5611c67565b600073ffffffffffffffffffffffffffffffffffffffff168173ffffffffffffffffffffffffffffffffffffffff1603611c54576040517f08c379a0000000000000000000000000000000000000000000000000000000008152600401611c4b90613e58565b60405180910390fd5b611c5d81611f18565b50565b61012d5481565b611c6f612263565b73ffffffffffffffffffffffffffffffffffffffff16611c8d6116d4565b73ffffffffffffffffffffffffffffffffffffffff1614611ce3576040517f08c379a0000000000000000000000000000000000000000000000000000000008152600401611cda90613ec4565b60405180910390fd5b565b6000611d137f360894a13ba1a3210667c828492db98dca3e2076cc3735a920a3ca505d382bbc60001b61226b565b60000160009054906101000a900473ffffffffffffffffffffffffffffffffffffffff16905090565b611d44611c67565b50565b611d737f4910fdfa16fed3260ed0e7147f7cc6da11a60208b5b9406d12a635614ffd914360001b612275565b60000160009054906101000a900460ff1615611d9757611d928361227f565b611eb0565b8273ffffffffffffffffffffffffffffffffffffffff166352d1902d6040518163ffffffff1660e01b8152600401602060405180830381865afa925050508015611dff57506040513d601f19601f82011682018060405250810190611dfc9190613ef9565b60015b611e3e576040517f08c379a0000000000000000000000000000000000000000000000000000000008152600401611e3590613f98565b60405180910390fd5b7f360894a13ba1a3210667c828492db98dca3e2076cc3735a920a3ca505d382bbc60001b8114611ea3576040517f08c379a0000000000000000000000000000000000000000000000000000000008152600401611e9a9061402a565b60405180910390fd5b50611eaf838383612338565b5b505050565b611ebd612364565b600060c960006101000a81548160ff0219169083151502179055507f5db9ee0a495bf2e6ff9c91a7834c1ba4fdd244a5e8aa4e537bd38aeae4b073aa611f01612263565b604051611f0e91906128f5565b60405180910390a1565b6000603360009054906101000a900473ffffffffffffffffffffffffffffffffffffffff16905081603360006101000a81548173ffffffffffffffffffffffffffffffffffffffff021916908373ffffffffffffffffffffffffffffffffffffffff1602179055508173ffffffffffffffffffffffffffffffffffffffff168173ffffffffffffffffffffffffffffffffffffffff167f8be0079c531659141344cd1fd0a4f28419497f9722a3daafe3b4186f6b6457e060405160405180910390a35050565b611fe661102a565b15612026576040517f08c379a000000000000000000000000000000000000000000000000000000000815260040161201d90614096565b60405180910390fd5b565b600260fb540361206d576040517f08c379a000000000000000000000000000000000000000000000000000000000815260040161206490614102565b60405180910390fd5b600260fb81905550565b600160fb81905550565b6000808273ffffffffffffffffffffffffffffffffffffffff163b119050919050565b600060019054906101000a900460ff166120f3576040517f08c379a00000000000000000000000000000000000000000000000000000000081526004016120ea90614194565b60405180910390fd5b6120fb6123ad565b565b600060019054906101000a900460ff1661214c576040517f08c379a000000000000000000000000000000000000000000000000000000000815260040161214390614194565b60405180910390fd5b565b600060019054906101000a900460ff1661219d576040517f08c379a000000000000000000000000000000000000000000000000000000000815260040161219490614194565b60405180910390fd5b6121a561240e565b565b600060019054906101000a900460ff166121f6576040517f08c379a00000000000000000000000000000000000000000000000000000000081526004016121ed90614194565b60405180910390fd5b6121fe61247a565b565b612208611fde565b600160c960006101000a81548160ff0219169083151502179055507f62e78cea01bee320cd4e420270b5ea74000d11b0c9f74754ebdbfc544b05a25861224c612263565b60405161225991906128f5565b60405180910390a1565b600033905090565b6000819050919050565b6000819050919050565b61228881612081565b6122c7576040517f08c379a00000000000000000000000000000000000000000000000000000000081526004016122be90614226565b60405180910390fd5b806122f47f360894a13ba1a3210667c828492db98dca3e2076cc3735a920a3ca505d382bbc60001b61226b565b60000160006101000a81548173ffffffffffffffffffffffffffffffffffffffff021916908373ffffffffffffffffffffffffffffffffffffffff16021790555050565b612341836124d3565b60008251118061234e5750805b1561235f5761235d8383612522565b505b505050565b61236c61102a565b6123ab576040517f08c379a00000000000000000000000000000000000000000000000000000000081526004016123a290614292565b60405180910390fd5b565b600060019054906101000a900460ff166123fc576040517f08c379a00000000000000000000000000000000000000000000000000000000081526004016123f390614194565b60405180910390fd5b61240c612407612263565b611f18565b565b600060019054906101000a900460ff1661245d576040517f08c379a000000000000000000000000000000000000000000000000000000000815260040161245490614194565b60405180910390fd5b600060c960006101000a81548160ff021916908315150217905550565b600060019054906101000a900460ff166124c9576040517f08c379a00000000000000000000000000000000000000000000000000000000081526004016124c090614194565b60405180910390fd5b600160fb81905550565b6124dc8161227f565b8073ffffffffffffffffffffffffffffffffffffffff167fbc7cd75a20ee27fd9adebab32041f755214dbc6bffa90cc0225b39da2e5c2d3b60405160405180910390a250565b6060612547838360405180606001604052806027815260200161439f6027913961254f565b905092915050565b60606000808573ffffffffffffffffffffffffffffffffffffffff168560405161257991906142f9565b600060405180830381855af49150503d80600081146125b4576040519150601f19603f3d011682016040523d82523d6000602084013e6125b9565b606091505b50915091506125ca868383876125d5565b925050509392505050565b6060831561263757600083510361262f576125ef85612081565b61262e576040517f08c379a00000000000000000000000000000000000000000000000000000000081526004016126259061435c565b60405180910390fd5b5b829050612642565b612641838361264a565b5b949350505050565b60008251111561265d5781518083602001fd5b806040517f08c379a0000000000000000000000000000000000000000000000000000000008152600401612691919061437c565b60405180910390fd5b5080546126a690613539565b6000825580601f106126b857506126d7565b601f0160209004906000526020600020908101906126d69190612716565b5b50565b6040518060c0016040528060008152602001600080191681526020016000815260200160608152602001600060ff168152602001600081525090565b5b8082111561272f576000816000905550600101612717565b5090565b6000819050919050565b61274681612733565b82525050565b6000602082019050612761600083018461273d565b92915050565b600081519050919050565b600082825260208201905092915050565b6000819050602082019050919050565b61279c81612733565b82525050565b60006127ae8383612793565b60208301905092915050565b6000602082019050919050565b60006127d282612767565b6127dc8185612772565b93506127e783612783565b8060005b838110156128185781516127ff88826127a2565b975061280a836127ba565b9250506001810190506127eb565b5085935050505092915050565b6000602082019050818103600083015261283f81846127c7565b905092915050565b6000604051905090565b600080fd5b600080fd5b61286481612733565b811461286f57600080fd5b50565b6000813590506128818161285b565b92915050565b60006020828403121561289d5761289c612851565b5b60006128ab84828501612872565b91505092915050565b600073ffffffffffffffffffffffffffffffffffffffff82169050919050565b60006128df826128b4565b9050919050565b6128ef816128d4565b82525050565b600060208201905061290a60008301846128e6565b92915050565b600081519050919050565b600082825260208201905092915050565b6000819050602082019050919050565b612945816128d4565b82525050565b6000612957838361293c565b60208301905092915050565b6000602082019050919050565b600061297b82612910565b612985818561291b565b93506129908361292c565b8060005b838110156129c15781516129a8888261294b565b97506129b383612963565b925050600181019050612994565b5085935050505092915050565b600060408201905081810360008301526129e88185612970565b905081810360208301526129fc81846127c7565b90509392505050565b612a0e816128d4565b8114612a1957600080fd5b50565b600081359050612a2b81612a05565b92915050565b600060208284031215612a4757612a46612851565b5b6000612a5584828501612a1c565b91505092915050565b600081519050919050565b600082825260208201905092915050565b6000819050602082019050919050565b6000819050919050565b612a9d81612a8a565b82525050565b600081519050919050565b600082825260208201905092915050565b60005b83811015612add578082015181840152602081019050612ac2565b60008484015250505050565b6000601f19601f8301169050919050565b6000612b0582612aa3565b612b0f8185612aae565b9350612b1f818560208601612abf565b612b2881612ae9565b840191505092915050565b600060ff82169050919050565b612b4981612b33565b82525050565b600060c083016000830151612b676000860182612793565b506020830151612b7a6020860182612a94565b506040830151612b8d6040860182612793565b5060608301518482036060860152612ba58282612afa565b9150506080830151612bba6080860182612b40565b5060a0830151612bcd60a0860182612793565b508091505092915050565b6000612be48383612b4f565b905092915050565b6000602082019050919050565b6000612c0482612a5e565b612c0e8185612a69565b935083602082028501612c2085612a7a565b8060005b85811015612c5c5784840389528151612c3d8582612bd8565b9450612c4883612bec565b925060208a01995050600181019050612c24565b50829750879550505050505092915050565b60006020820190508181036000830152612c888184612bf9565b905092915050565b600080fd5b600080fd5b7f4e487b7100000000000000000000000000000000000000000000000000000000600052604160045260246000fd5b612cd282612ae9565b810181811067ffffffffffffffff82111715612cf157612cf0612c9a565b5b80604052505050565b6000612d04612847565b9050612d108282612cc9565b919050565b600067ffffffffffffffff821115612d3057612d2f612c9a565b5b612d3982612ae9565b9050602081019050919050565b82818337600083830152505050565b6000612d68612d6384612d15565b612cfa565b905082815260208101848484011115612d8457612d83612c95565b5b612d8f848285612d46565b509392505050565b600082601f830112612dac57612dab612c90565b5b8135612dbc848260208601612d55565b91505092915050565b60008060408385031215612ddc57612ddb612851565b5b6000612dea85828601612a1c565b925050602083013567ffffffffffffffff811115612e0b57612e0a612856565b5b612e1785828601612d97565b9150509250929050565b612e2a81612a8a565b82525050565b6000602082019050612e456000830184612e21565b92915050565b60008115159050919050565b612e6081612e4b565b82525050565b6000602082019050612e7b6000830184612e57565b92915050565b60008060408385031215612e9857612e97612851565b5b6000612ea685828601612a1c565b9250506020612eb785828601612872565b9150509250929050565b60006020820190508181036000830152612edb8184612970565b905092915050565b600080fd5b600080fd5b60008083601f840112612f0357612f02612c90565b5b8235905067ffffffffffffffff811115612f2057612f1f612ee3565b5b602083019150836001820283011115612f3c57612f3b612ee8565b5b9250929050565b600080600060408486031215612f5c57612f5b612851565b5b6000612f6a86828701612872565b935050602084013567ffffffffffffffff811115612f8b57612f8a612856565b5b612f9786828701612eed565b92509250509250925092565b600082825260208201905092915050565b6000612fbf82612aa3565b612fc98185612fa3565b9350612fd9818560208601612abf565b612fe281612ae9565b840191505092915050565b612ff681612b33565b82525050565b600060c082019050613011600083018961273d565b61301e6020830188612e21565b61302b604083018761273d565b818103606083015261303d8186612fb4565b905061304c6080830185612fed565b61305960a083018461273d565b979650505050505050565b61306d81612a8a565b811461307857600080fd5b50565b60008135905061308a81613064565b92915050565b61309981612b33565b81146130a457600080fd5b50565b6000813590506130b681613090565b92915050565b600080600080600080600060c0888a0312156130db576130da612851565b5b60006130e98a828b01612872565b97505060206130fa8a828b0161307b565b965050604061310b8a828b01612872565b955050606088013567ffffffffffffffff81111561312c5761312b612856565b5b6131388a828b01612eed565b9450945050608061314b8a828b016130a7565b92505060a061315c8a828b01612872565b91505092959891949750929550565b60008060008060008060a0878903121561318857613187612851565b5b600061319689828a0161307b565b96505060206131a789828a01612872565b955050604087013567ffffffffffffffff8111156131c8576131c7612856565b5b6131d489828a01612eed565b945094505060606131e789828a016130a7565b92505060806131f889828a01612872565b9150509295509295509295565b7f4368616c6c656e676520646f6573206e6f742065786973740000000000000000600082015250565b600061323b601883612fa3565b915061324682613205565b602082019050919050565b6000602082019050818103600083015261326a8161322e565b9050919050565b7f4e487b7100000000000000000000000000000000000000000000000000000000600052603260045260246000fd5b7f4e487b7100000000000000000000000000000000000000000000000000000000600052601160045260246000fd5b60006132da82612733565b91506132e583612733565b92508282039050818111156132fd576132fc6132a0565b5b92915050565b7f4e487b7100000000000000000000000000000000000000000000000000000000600052603160045260246000fd5b600061333d82612733565b91507fffffffffffffffffffffffffffffffffffffffffffffffffffffffffffffffff820361336f5761336e6132a0565b5b600182019050919050565b7f46756e6374696f6e206d7573742062652063616c6c6564207468726f7567682060008201527f64656c656761746563616c6c0000000000000000000000000000000000000000602082015250565b60006133d6602c83612fa3565b91506133e18261337a565b604082019050919050565b60006020820190508181036000830152613405816133c9565b9050919050565b7f46756e6374696f6e206d7573742062652063616c6c6564207468726f7567682060008201527f6163746976652070726f78790000000000000000000000000000000000000000602082015250565b6000613468602c83612fa3565b91506134738261340c565b604082019050919050565b600060208201905081810360008301526134978161345b565b9050919050565b7f4e6f2062616c616e636520746f20776974686472617700000000000000000000600082015250565b60006134d4601683612fa3565b91506134df8261349e565b602082019050919050565b60006020820190508181036000830152613503816134c7565b9050919050565b7f4e487b7100000000000000000000000000000000000000000000000000000000600052602260045260246000fd5b6000600282049050600182168061355157607f821691505b6020821081036135645761356361350a565b5b50919050565b7f555550535570677261646561626c653a206d757374206e6f742062652063616c60008201527f6c6564207468726f7567682064656c656761746563616c6c0000000000000000602082015250565b60006135c6603883612fa3565b91506135d18261356a565b604082019050919050565b600060208201905081810360008301526135f5816135b9565b9050919050565b7f496e73756666696369656e742066656500000000000000000000000000000000600082015250565b6000613632601083612fa3565b915061363d826135fc565b602082019050919050565b6000602082019050818103600083015261366181613625565b9050919050565b7f466c616720697320656d70747900000000000000000000000000000000000000600082015250565b600061369e600d83612fa3565b91506136a982613668565b602082019050919050565b600060208201905081810360008301526136cd81613691565b9050919050565b7f416c726561647920736f6c766564000000000000000000000000000000000000600082015250565b600061370a600e83612fa3565b9150613715826136d4565b602082019050919050565b60006020820190508181036000830152613739816136fd565b9050919050565b600081905092915050565b60006137578385613740565b9350613764838584612d46565b82840190509392505050565b600061377d82848661374b565b91508190509392505050565b600061379482612733565b915061379f83612733565b92508282019050808211156137b7576137b66132a0565b5b92915050565b60006040820190506137d2600083018561273d565b6137df6020830184612e57565b9392505050565b7f496e697469616c697a61626c653a20636f6e747261637420697320616c72656160008201527f647920696e697469616c697a6564000000000000000000000000000000000000602082015250565b6000613842602e83612fa3565b915061384d826137e6565b604082019050919050565b6000602082019050818103600083015261387181613835565b9050919050565b6000819050919050565b6000819050919050565b60006138a76138a261389d84613878565b613882565b612b33565b9050919050565b6138b78161388c565b82525050565b60006020820190506138d260008301846138ae565b92915050565b7f4d7573742073656e642045544820746f2066756e640000000000000000000000600082015250565b600061390e601583612fa3565b9150613919826138d8565b602082019050919050565b6000602082019050818103600083015261393d81613901565b9050919050565b7f526577617264206d757374206265203e20300000000000000000000000000000600082015250565b600061397a601283612fa3565b915061398582613944565b602082019050919050565b600060208201905081810360008301526139a98161396d565b9050919050565b7f496e76616c696420646966666963756c74790000000000000000000000000000600082015250565b60006139e6601283612fa3565b91506139f1826139b0565b602082019050919050565b60006020820190508181036000830152613a15816139d9565b9050919050565b600082905092915050565b60008190508160005260206000209050919050565b60006020601f8301049050919050565b600082821b905092915050565b600060088302613a897fffffffffffffffffffffffffffffffffffffffffffffffffffffffffffffffff82613a4c565b613a938683613a4c565b95508019841693508086168417925050509392505050565b6000613ac6613ac1613abc84612733565b613882565b612733565b9050919050565b6000819050919050565b613ae083613aab565b613af4613aec82613acd565b848454613a59565b825550505050565b600090565b613b09613afc565b613b14818484613ad7565b505050565b5b81811015613b3857613b2d600082613b01565b600181019050613b1a565b5050565b601f821115613b7d57613b4e81613a27565b613b5784613a3c565b81016020851015613b66578190505b613b7a613b7285613a3c565b830182613b19565b50505b505050565b600082821c905092915050565b6000613ba060001984600802613b82565b1980831691505092915050565b6000613bb98383613b8f565b9150826002028217905092915050565b613bd38383613a1c565b67ffffffffffffffff811115613bec57613beb612c9a565b5b613bf68254613539565b613c01828285613b3c565b6000601f831160018114613c305760008415613c1e578287013590505b613c288582613bad565b865550613c90565b601f198416613c3e86613a27565b60005b82811015613c6657848901358255600182019150602085019450602081019050613c41565b86831015613c835784890135613c7f601f891682613b8f565b8355505b6001600288020188555050505b50505050505050565b613ca282612aa3565b67ffffffffffffffff811115613cbb57613cba612c9a565b5b613cc58254613539565b613cd0828285613b3c565b600060209050601f831160018114613d035760008415613cf1578287015190505b613cfb8582613bad565b865550613d63565b601f198416613d1186613a27565b60005b82811015613d3957848901518255600182019150602085019450602081019050613d14565b86831015613d565784890151613d52601f891682613b8f565b8355505b6001600288020188555050505b505050505050565b6000613d778385612fa3565b9350613d84838584612d46565b613d8d83612ae9565b840190509392505050565b6000608082019050613dad6000830188612e21565b613dba602083018761273d565b8181036040830152613dcd818587613d6b565b9050613ddc6060830184612fed565b9695505050505050565b7f4f776e61626c653a206e6577206f776e657220697320746865207a65726f206160008201527f6464726573730000000000000000000000000000000000000000000000000000602082015250565b6000613e42602683612fa3565b9150613e4d82613de6565b604082019050919050565b60006020820190508181036000830152613e7181613e35565b9050919050565b7f4f776e61626c653a2063616c6c6572206973206e6f7420746865206f776e6572600082015250565b6000613eae602083612fa3565b9150613eb982613e78565b602082019050919050565b60006020820190508181036000830152613edd81613ea1565b9050919050565b600081519050613ef381613064565b92915050565b600060208284031215613f0f57613f0e612851565b5b6000613f1d84828501613ee4565b91505092915050565b7f45524331393637557067726164653a206e657720696d706c656d656e7461746960008201527f6f6e206973206e6f742055555053000000000000000000000000000000000000602082015250565b6000613f82602e83612fa3565b9150613f8d82613f26565b604082019050919050565b60006020820190508181036000830152613fb181613f75565b9050919050565b7f45524331393637557067726164653a20756e737570706f727465642070726f7860008201527f6961626c65555549440000000000000000000000000000000000000000000000602082015250565b6000614014602983612fa3565b915061401f82613fb8565b604082019050919050565b6000602082019050818103600083015261404381614007565b9050919050565b7f5061757361626c653a2070617573656400000000000000000000000000000000600082015250565b6000614080601083612fa3565b915061408b8261404a565b602082019050919050565b600060208201905081810360008301526140af81614073565b9050919050565b7f5265656e7472616e637947756172643a207265656e7472616e742063616c6c00600082015250565b60006140ec601f83612fa3565b91506140f7826140b6565b602082019050919050565b6000602082019050818103600083015261411b816140df565b9050919050565b7f496e697469616c697a61626c653a20636f6e7472616374206973206e6f74206960008201527f6e697469616c697a696e67000000000000000000000000000000000000000000602082015250565b600061417e602b83612fa3565b915061418982614122565b604082019050919050565b600060208201905081810360008301526141ad81614171565b9050919050565b7f455243313936373a206e657720696d706c656d656e746174696f6e206973206e60008201527f6f74206120636f6e747261637400000000000000000000000000000000000000602082015250565b6000614210602d83612fa3565b915061421b826141b4565b604082019050919050565b6000602082019050818103600083015261423f81614203565b9050919050565b7f5061757361626c653a206e6f7420706175736564000000000000000000000000600082015250565b600061427c601483612fa3565b915061428782614246565b602082019050919050565b600060208201905081810360008301526142ab8161426f565b9050919050565b600081519050919050565b600081905092915050565b60006142d3826142b2565b6142dd81856142bd565b93506142ed818560208601612abf565b80840191505092915050565b600061430582846142c8565b915081905092915050565b7f416464726573733a2063616c6c20746f206e6f6e2d636f6e7472616374000000600082015250565b6000614346601d83612fa3565b915061435182614310565b602082019050919050565b6000602082019050818103600083015261437581614339565b9050919050565b600060208201905081810360008301526143968184612fb4565b90509291505056fe416464726573733a206c6f772d6c6576656c2064656c65676174652063616c6c206661696c6564a2646970667358221220aba30fb3f51d334dc1c00574c24cc5ec39dabc3dff6d46ee0c2778d3367dbf8164736f6c63430008140033",
  "linkReferences": {},
  "deployedLinkReferences": {}
}