{
  "_format": "hh-sol-artifact-1",
  "contractName": "SmartChallengeUpgradeable",
  "sourceName": "contracts/SmartChallengeUpgradeable.sol",
  "abi": [
    {
      "inputs": [],
      "stateMutability": "nonpayable",
      "type": "constructor"
    },
    {
      "anonymous": false,
      "inputs": [
        {
          "indexed": false,
          "internalType": "address",
          "name": "previousAdmin",
          "type": "address"
        },
        {
          "indexed": false,
          "internalType": "address",
          "name": "newAdmin",
          "type": "address"
        }
      ],
      "name": "AdminChanged",
      "type": "event"
    },
    {
      "anonymous": false,
      "inputs": [
        {
          "indexed": true,
          "internalType": "address",
          "name": "beacon",
          "type": "address"
        }
      ],
      "name": "BeaconUpgraded",
      "type": "event"
    },
    {
      "anonymous": false,
      "inputs": [
        {
          "indexed": true,
          "internalType": "uint256",
          "name": "challengeId",
          "type": "uint256"
        },
        {
          "indexed": false,
          "internalType": "bytes32",
          "name": "flagHash",
          "type": "bytes32"
        },
        {
          "indexed": false,
          "internalType": "uint256",
          "name": "reward",
          "type": "uint256"
        },
        {
          "indexed": false,
          "internalType": "string",
          "name": "ipfsHash",
          "type": "string"
        },
        {
          "indexed": false,
          "internalType": "uint8",
          "name": "difficulty",
          "type": "uint8"
        }
      ],
      "name": "ChallengeAdded",
      "type": "event"
    },
    {
      "anonymous": false,
      "inputs": [
        {
          "indexed": true,
          "internalType": "address",
          "name": "player",
          "type": "address"
        },
        {
          "indexed": false,
          "internalType": "uint256",
          "name": "challengeId",
          "type": "uint256"
        },
        {
          "indexed": false,
          "internalType": "bool",
          "name": "correct",
          "type": "bool"
        }
      ],
      "name": "ChallengeSubmitted",
      "type": "event"
    },
    {
      "anonymous": false,
      "inputs": [
        {
          "indexed": true,
          "internalType": "address",
          "name": "from",
          "type": "address"
        },
        {
          "indexed": false,
          "internalType": "uint256",
          "name": "amount",
          "type": "uint256"
        }
      ],
      "name": "Funded",
      "type": "event"
    },
    {
      "anonymous": false,
      "inputs": [
        {
          "indexed": false,
          "internalType": "uint8",
          "name": "version",
          "type": "uint8"
        }
      ],
      "name": "Initialized",
      "type": "event"
    },
    {
      "anonymous": false,
      "inputs": [
        {
          "indexed": true,
          "internalType": "address",
          "name": "previousOwner",
          "type": "address"
        },
        {
          "indexed": true,
          "internalType": "address",
          "name": "newOwner",
          "type": "address"
        }
      ],
      "name": "OwnershipTransferred",
      "type": "event"
    },
    {
      "anonymous": false,
      "inputs": [
        {
          "indexed": false,
          "internalType": "address",
          "name": "account",
          "type": "address"
        }
      ],
      "name": "Paused",
      "type": "event"
    },
    {
      "anonymous": false,
      "inputs": [
        {
          "indexed": true,
          "internalType": "address",
          "name": "player",
          "type": "address"
        },
        {
          "indexed": false,
          "internalType": "string",
          "name": "profileHash",
          "type": "string"
        }
      ],
      "name": "PlayerUpdated",
      "type": "event"
    },
    {
      "anonymous": false,
      "inputs": [
        {
          "indexed": false,
          "internalType": "address",
          "name": "account",
          "type": "address"
        }
      ],
      "name": "Unpaused",
      "type": "event"
    },
    {
      "anonymous": false,
      "inputs": [
        {
          "indexed": true,
          "internalType": "address",
          "name": "implementation",
          "type": "address"
        }
      ],
      "name": "Upgraded",
      "type": "event"
    },
    {
      "inputs": [
        {
          "internalType": "bytes32",
          "name": "_flagHash",
          "type": "bytes32"
        },
        {
          "internalType": "uint256",
          "name": "_reward",
          "type": "uint256"
        },
        {
          "internalType": "string",
          "name": "_ipfsHash",
          "type": "string"
        },
        {
          "internalType": "uint8",
          "name": "_difficulty",
          "type": "uint8"
        },
        {
          "internalType": "uint256",
          "name": "_submissionFee",
          "type": "uint256"
        }
      ],
      "name": "addChallenge",
      "outputs": [],
      "stateMutability": "nonpayable",
      "type": "function"
    },
    {
      "inputs": [],
      "name": "challengeCounter",
      "outputs": [
        {
          "internalType": "uint256",
          "name": "",
          "type": "uint256"
        }
      ],
      "stateMutability": "view",
      "type": "function"
    },
    {
      "inputs": [
        {
          "internalType": "uint256",
          "name": "",
          "type": "uint256"
        }
      ],
      "name": "challenges",
      "outputs": [
        {
          "internalType": "uint256",
          "name": "challengeId",
          "type": "uint256"
        },
        {
          "internalType": "bytes32",
          "name": "flagHash",
          "type": "bytes32"
        },
        {
          "internalType": "uint256",
          "name": "reward",
          "type": "uint256"
        },
        {
          "internalType": "string",
          "name": "ipfsHash",
          "type": "string"
        },
        {
          "internalType": "uint8",
          "name": "difficulty",
          "type": "uint8"
        },
        {
          "internalType": "uint256",
          "name": "submissionFee",
          "type": "uint256"
        }
      ],
      "stateMutability": "view",
      "type": "function"
    },
    {
      "inputs": [
        {
          "internalType": "uint256",
          "name": "challengeId",
          "type": "uint256"
        }
      ],
      "name": "deleteChallenge",
      "outputs": [],
      "stateMutability": "nonpayable",
      "type": "function"
    },
    {
      "inputs": [],
      "name": "fund",
      "outputs": [],
      "stateMutability": "payable",
      "type": "function"
    },
    {
      "inputs": [],
      "name": "getChallenges",
      "outputs": [
        {
          "components": [
            {
              "internalType": "uint256",
              "name": "challengeId",
              "type": "uint256"
            },
            {
              "internalType": "bytes32",
              "name": "flagHash",
              "type": "bytes32"
            },
            {
              "internalType": "uint256",
              "name": "reward",
              "type": "uint256"
            },
            {
              "internalType": "string",
              "name": "ipfsHash",
              "type": "string"
            },
            {
              "internalType": "uint8",
              "name": "difficulty",
              "type": "uint8"
            },
            {
              "internalType": "uint256",
              "name": "submissionFee",
              "type": "uint256"
            }
          ],
          "internalType": "struct SmartChallengeUpgradeable.Challenge[]",
          "name": "",
          "type": "tuple[]"
        }
      ],
      "stateMutability": "view",
      "type": "function"
    },
    {
      "inputs": [
        {
          "internalType": "address",
          "name": "_player",
          "type": "address"
        }
      ],
      "name": "getPlayer",
      "outputs": [
        {
          "internalType": "uint256",
          "name": "score",
          "type": "uint256"
        },
        {
          "internalType": "string",
          "name": "profileHash",
          "type": "string"
        }
      ],
      "stateMutability": "view",
      "type": "function"
    },
    {
      "inputs": [],
      "name": "getScores",
      "outputs": [
        {
          "internalType": "address[]",
          "name": "",
          "type": "address[]"
        },
        {
          "internalType": "uint256[]",
          "name": "",
          "type": "uint256[]"
        }
      ],
      "stateMutability": "view",
      "type": "function"
    },
    {
      "inputs": [],
      "name": "initialize",
      "outputs": [],
      "stateMutability": "nonpayable",
      "type": "function"
    },
    {
      "inputs": [
        {
          "internalType": "address",
          "name": "_player",
          "type": "address"
        },
        {
          "internalType": "uint256",
          "name": "_challengeId",
          "type": "uint256"
        }
      ],
      "name": "isChallengeSolved",
      "outputs": [
        {
          "internalType": "bool",
          "name": "",
          "type": "bool"
        }
      ],
      "stateMutability": "view",
      "type": "function"
    },
    {
      "inputs": [],
      "name": "owner",
      "outputs": [
        {
          "internalType": "address",
          "name": "",
          "type": "address"
        }
      ],
      "stateMutability": "view",
      "type": "function"
    },
    {
      "inputs": [],
      "name": "pause",
      "outputs": [],
      "stateMutability": "nonpayable",
      "type": "function"
    },
    {
      "inputs": [],
      "name": "paused",
      "outputs": [
        {
          "internalType": "bool",
          "name": "",
          "type": "bool"
        }
      ],
      "stateMutability": "view",
      "type": "function"
    },
    {
      "inputs": [
        {
          "internalType": "uint256",
          "name": "",
          "type": "uint256"
        }
      ],
      "name": "playerAddresses",
      "outputs": [
        {
          "internalType": "address",
          "name": "",
          "type": "address"
        }
      ],
      "stateMutability": "view",
      "type": "function"
    },
    {
      "inputs": [],
      "name": "proxiableUUID",
      "outputs": [
        {
          "internalType": "bytes32",
          "name": "",
          "type": "bytes32"
        }
      ],
      "stateMutability": "view",
      "type": "function"
    },
    {
      "inputs": [],
      "name": "renounceOwnership",
      "outputs": [],
      "stateMutability": "nonpayable",
      "type": "function"
    },
    {
      "inputs": [
        {
          "internalType": "uint256",
          "name": "_challengeId",
          "type": "uint256"
        },
        {
          "internalType": "string",
          "name": "_flag",
          "type": "string"
        }
      ],
      "name": "submitFlag",
      "outputs": [],
      "stateMutability": "payable",
      "type": "function"
    },
    {
      "inputs": [
        {
          "internalType": "address",
          "name": "newOwner",
          "type": "address"
        }
      ],
      "name": "transferOwnership",
      "outputs": [],
      "stateMutability": "nonpayable",
      "type": "function"
    },
    {
      "inputs": [],
      "name": "unpause",
      "outputs": [],
      "stateMutability": "nonpayable",
      "type": "function"
    },
    {
      "inputs": [
        {
          "internalType": "uint256",
          "name": "challengeId",
          "type": "uint256"
        },
        {
          "internalType": "bytes32",
          "name": "newFlagHash",
          "type": "bytes32"
        },
        {
          "internalType": "uint256",
          "name": "newReward",
          "type": "uint256"
        },
        {
          "internalType": "string",
          "name": "newIpfsHash",
          "type": "string"
        },
        {
          "internalType": "uint8",
          "name": "newDifficulty",
          "type": "uint8"
        },
        {
          "internalType": "uint256",
          "name": "newSubmissionFee",
          "type": "uint256"
        }
      ],
      "name": "updateChallenge",
      "outputs": [],
      "stateMutability": "nonpayable",
      "type": "function"
    },
    {
      "inputs": [
        {
          "internalType": "string",
          "name": "_profileHash",
          "type": "string"
        }
      ],
      "name": "updatePlayerProfile",
      "outputs": [],
      "stateMutability": "nonpayable",
      "type": "function"
    },
    {
      "inputs": [
        {
          "internalType": "address",
          "name": "newImplementation",
          "type": "address"
        }
      ],
      "name": "upgradeTo",
      "outputs": [],
      "stateMutability": "nonpayable",
      "type": "function"
    },
    {
      "inputs": [
        {
          "internalType": "address",
          "name": "newImplementation",
          "type": "address"
        },
        {
          "internalType": "bytes",
          "name": "data",
          "type": "bytes"
        }
      ],
      "name": "upgradeToAndCall",
      "outputs": [],
      "stateMutability": "payable",
      "type": "function"
    },
    {
      "inputs": [],
      "name": "withdraw",
      "outputs": [],
      "stateMutability": "nonpayable",
      "type": "function"
    },
    {
      "stateMutability": "payable",
      "type": "receive"
    }
  ],
  "bytecode": "0x60a06040523073ffffffffffffffffffffffffffffffffffffffff1660809073ffffffffffffffffffffffffffffffffffffffff168152503480156200004457600080fd5b50620000556200005b60201b60201c565b62000205565b600060019054906101000a900460ff1615620000ae576040517f08c379a0000000000000000000000000000000000000000000000000000000008152600401620000a590620001a8565b60405180910390fd5b60ff801660008054906101000a900460ff1660ff16146200011f5760ff6000806101000a81548160ff021916908360ff1602179055507f7f26b83ff96e1f2b6a682f133852f6798a09c465da95921460cefb384740249860ff604051620001169190620001e8565b60405180910390a15b565b600082825260208201905092915050565b7f496e697469616c697a61626c653a20636f6e747261637420697320696e69746960008201527f616c697a696e6700000000000000000000000000000000000000000000000000602082015250565b60006200019060278362000121565b91506200019d8262000132565b604082019050919050565b60006020820190508181036000830152620001c38162000181565b9050919050565b600060ff82169050919050565b620001e281620001ca565b82525050565b6000602082019050620001ff6000830184620001d7565b92915050565b6080516142a36200023d600039600081816108ac0152818161093a01528181610c8101528181610d0f0152610dbf01526142a36000f3fe60806040526004361061014f5760003560e01c8063715018a6116100b65780638f1d37761161006f5780638f1d37761461045f578063b60d4288146104a1578063c98c399a146104ab578063f25a6ed7146104d4578063f2fde38b146104fd578063f7fed02c14610526576101a4565b8063715018a61461039657806371cc1480146103ad5780637f1a1a4e146103ea5780638129fc1c146104065780638456cb591461041d5780638da5cb5b14610434576101a4565b80633f4ba83a116101085780633f4ba83a146102a457806346c7c126146102bb5780634f1ef286146102e657806352d1902d146103025780635c12cd4b1461032d5780635c975abb1461036b576101a4565b806311a5800d146101a9578063147851b3146101d257806315c6aee2146101fb5780631ea1380c146102385780633659cfe6146102645780633ccfd60b1461028d576101a4565b366101a4573373ffffffffffffffffffffffffffffffffffffffff167f5af8184bef8e4b45eb9f6ed7734d04da38ced226495548f46e0c8ff8d7d9a5243460405161019a91906125fa565b60405180910390a2005b600080fd5b3480156101b557600080fd5b506101d060048036038101906101cb9190612655565b610551565b005b3480156101de57600080fd5b506101f960048036038101906101f491906126e7565b610611565b005b34801561020757600080fd5b50610222600480360381019061021d9190612655565b6106b8565b60405161022f9190612775565b60405180910390f35b34801561024457600080fd5b5061024d6106f8565b60405161025b92919061290c565b60405180910390f35b34801561027057600080fd5b5061028b6004803603810190610286919061296f565b6108aa565b005b34801561029957600080fd5b506102a2610a32565b005b3480156102b057600080fd5b506102b9610ad3565b005b3480156102c757600080fd5b506102d0610ae5565b6040516102dd9190612bac565b60405180910390f35b61030060048036038101906102fb9190612cfe565b610c7f565b005b34801561030e57600080fd5b50610317610dbb565b6040516103249190612d69565b60405180910390f35b34801561033957600080fd5b50610354600480360381019061034f919061296f565b610e74565b604051610362929190612dce565b60405180910390f35b34801561037757600080fd5b50610380610f94565b60405161038d9190612e19565b60405180910390f35b3480156103a257600080fd5b506103ab610fab565b005b3480156103b957600080fd5b506103d460048036038101906103cf9190612e34565b610fbf565b6040516103e19190612e19565b60405180910390f35b61040460048036038101906103ff9190612e74565b61102b565b005b34801561041257600080fd5b5061041b611447565b005b34801561042957600080fd5b5061043261159d565b005b34801561044057600080fd5b506104496115af565b6040516104569190612775565b60405180910390f35b34801561046b57600080fd5b5061048660048036038101906104819190612655565b6115d9565b60405161049896959493929190612ee3565b60405180910390f35b6104a96116ab565b005b3480156104b757600080fd5b506104d260048036038101906104cd9190612fa3565b61173e565b005b3480156104e057600080fd5b506104fb60048036038101906104f69190613052565b611895565b005b34801561050957600080fd5b50610524600480360381019061051f919061296f565b611a8b565b005b34801561053257600080fd5b5061053b611b0e565b60405161054891906125fa565b60405180910390f35b610559611b15565b600061012e600083815260200190815260200160002060020154116105b3576040517f08c379a00000000000000000000000000000000000000000000000000000000081526004016105aa90613138565b60405180910390fd5b61012e6000828152602001908152602001600020600080820160009055600182016000905560028201600090556003820160006105f09190612548565b6004820160006101000a81549060ff02191690556005820160009055505050565b818161012f60003373ffffffffffffffffffffffffffffffffffffffff1673ffffffffffffffffffffffffffffffffffffffff168152602001908152602001600020600301918261066392919061336f565b503373ffffffffffffffffffffffffffffffffffffffff167f4065fa66156ee33e13397293f7c2fd228a7a5106fc5d5663b1b14014f09d040583836040516106ac92919061346c565b60405180910390a25050565b61013081815481106106c957600080fd5b906000526020600020016000915054906101000a900473ffffffffffffffffffffffffffffffffffffffff1681565b60608060006101308054905067ffffffffffffffff81111561071d5761071c612bd3565b5b60405190808252806020026020018201604052801561074b5781602001602082028036833780820191505090505b50905060005b610130805490508110156108145761012f6000610130838154811061077957610778613490565b5b9060005260206000200160009054906101000a900473ffffffffffffffffffffffffffffffffffffffff1673ffffffffffffffffffffffffffffffffffffffff1673ffffffffffffffffffffffffffffffffffffffff168152602001908152602001600020600101548282815181106107f5576107f4613490565b5b602002602001018181525050808061080c906134ee565b915050610751565b50610130818180548060200260200160405190810160405280929190818152602001828054801561089a57602002820191906000526020600020905b8160009054906101000a900473ffffffffffffffffffffffffffffffffffffffff1673ffffffffffffffffffffffffffffffffffffffff1681526020019060010190808311610850575b5050505050915092509250509091565b7f000000000000000000000000000000000000000000000000000000000000000073ffffffffffffffffffffffffffffffffffffffff163073ffffffffffffffffffffffffffffffffffffffff1603610938576040517f08c379a000000000000000000000000000000000000000000000000000000000815260040161092f906135a8565b60405180910390fd5b7f000000000000000000000000000000000000000000000000000000000000000073ffffffffffffffffffffffffffffffffffffffff16610977611b93565b73ffffffffffffffffffffffffffffffffffffffff16146109cd576040517f08c379a00000000000000000000000000000000000000000000000000000000081526004016109c49061363a565b60405180910390fd5b6109d681611bea565b610a2f81600067ffffffffffffffff8111156109f5576109f4612bd3565b5b6040519080825280601f01601f191660200182016040528015610a275781602001600182028036833780820191505090505b506000611bf5565b50565b610a3a611b15565b600047905060008111610a82576040517f08c379a0000000000000000000000000000000000000000000000000000000008152600401610a79906136a6565b60405180910390fd5b610a8a6115af565b73ffffffffffffffffffffffffffffffffffffffff166108fc829081150290604051600060405180830381858888f19350505050158015610acf573d6000803e3d6000fd5b5050565b610adb611b15565b610ae3611d63565b565b6060600061012d5467ffffffffffffffff811115610b0657610b05612bd3565b5b604051908082528060200260200182016040528015610b3f57816020015b610b2c612588565b815260200190600190039081610b245790505b50905060005b61012d54811015610c775761012e60008281526020019081526020016000206040518060c0016040529081600082015481526020016001820154815260200160028201548152602001600382018054610b9d90613192565b80601f0160208091040260200160405190810160405280929190818152602001828054610bc990613192565b8015610c165780601f10610beb57610100808354040283529160200191610c16565b820191906000526020600020905b815481529060010190602001808311610bf957829003601f168201915b505050505081526020016004820160009054906101000a900460ff1660ff1660ff168152602001600582015481525050828281518110610c5957610c58613490565b5b60200260200101819052508080610c6f906134ee565b915050610b45565b508091505090565b7f000000000000000000000000000000000000000000000000000000000000000073ffffffffffffffffffffffffffffffffffffffff163073ffffffffffffffffffffffffffffffffffffffff1603610d0d576040517f08c379a0000000000000000000000000000000000000000000000000000000008152600401610d04906135a8565b60405180910390fd5b7f000000000000000000000000000000000000000000000000000000000000000073ffffffffffffffffffffffffffffffffffffffff16610d4c611b93565b73ffffffffffffffffffffffffffffffffffffffff1614610da2576040517f08c379a0000000000000000000000000000000000000000000000000000000008152600401610d999061363a565b60405180910390fd5b610dab82611bea565b610db782826001611bf5565b5050565b60007f000000000000000000000000000000000000000000000000000000000000000073ffffffffffffffffffffffffffffffffffffffff163073ffffffffffffffffffffffffffffffffffffffff1614610e4b576040517f08c379a0000000000000000000000000000000000000000000000000000000008152600401610e4290613738565b60405180910390fd5b7f360894a13ba1a3210667c828492db98dca3e2076cc3735a920a3ca505d382bbc60001b905090565b6000606061012f60008473ffffffffffffffffffffffffffffffffffffffff1673ffffffffffffffffffffffffffffffffffffffff1681526020019081526020016000206001015461012f60008573ffffffffffffffffffffffffffffffffffffffff1673ffffffffffffffffffffffffffffffffffffffff168152602001908152602001600020600301808054610f0b90613192565b80601f0160208091040260200160405190810160405280929190818152602001828054610f3790613192565b8015610f845780601f10610f5957610100808354040283529160200191610f84565b820191906000526020600020905b815481529060010190602001808311610f6757829003601f168201915b5050505050905091509150915091565b600060c960009054906101000a900460ff16905090565b610fb3611b15565b610fbd6000611dc6565b565b600061012f60008473ffffffffffffffffffffffffffffffffffffffff1673ffffffffffffffffffffffffffffffffffffffff168152602001908152602001600020600201600083815260200190815260200160002060009054906101000a900460ff16905092915050565b611033611e8c565b61103b611ed6565b600061012e60008581526020019081526020016000209050806005015434101561109a576040517f08c379a0000000000000000000000000000000000000000000000000000000008152600401611091906137a4565b60405180910390fd5b600083839050116110e0576040517f08c379a00000000000000000000000000000000000000000000000000000000081526004016110d790613810565b60405180910390fd5b61012f60003373ffffffffffffffffffffffffffffffffffffffff1673ffffffffffffffffffffffffffffffffffffffff168152602001908152602001600020600201600085815260200190815260200160002060009054906101000a900460ff1615611182576040517f08c379a00000000000000000000000000000000000000000000000000000000081526004016111799061387c565b60405180910390fd5b60008160010154848460405160200161119c9291906138cc565b6040516020818303038152906040528051906020012014905080156113e85761012f60003373ffffffffffffffffffffffffffffffffffffffff1673ffffffffffffffffffffffffffffffffffffffff16815260200190815260200160002060000160009054906101000a900460ff166112d157600161012f60003373ffffffffffffffffffffffffffffffffffffffff1673ffffffffffffffffffffffffffffffffffffffff16815260200190815260200160002060000160006101000a81548160ff021916908315150217905550610130339080600181540180825580915050600190039060005260206000200160009091909190916101000a81548173ffffffffffffffffffffffffffffffffffffffff021916908373ffffffffffffffffffffffffffffffffffffffff1602179055505b600161012f60003373ffffffffffffffffffffffffffffffffffffffff1673ffffffffffffffffffffffffffffffffffffffff168152602001908152602001600020600201600087815260200190815260200160002060006101000a81548160ff021916908315150217905550816002015461012f60003373ffffffffffffffffffffffffffffffffffffffff1673ffffffffffffffffffffffffffffffffffffffff168152602001908152602001600020600101600082825461139591906138e5565b925050819055503373ffffffffffffffffffffffffffffffffffffffff166108fc83600201549081150290604051600060405180830381858888f193505050501580156113e6573d6000803e3d6000fd5b505b3373ffffffffffffffffffffffffffffffffffffffff167f99ff60502ac5007f259fabfd2c017ecb4fce1819ff4ea41c339a03a6534b91938683604051611430929190613919565b60405180910390a25050611442611f25565b505050565b60008060019054906101000a900460ff161590508080156114785750600160008054906101000a900460ff1660ff16105b806114a5575061148730611f2f565b1580156114a45750600160008054906101000a900460ff1660ff16145b5b6114e4576040517f08c379a00000000000000000000000000000000000000000000000000000000081526004016114db906139b4565b60405180910390fd5b60016000806101000a81548160ff021916908360ff1602179055508015611521576001600060016101000a81548160ff0219169083151502179055505b611529611f52565b611531611fab565b611539611ffc565b611541612055565b801561159a5760008060016101000a81548160ff0219169083151502179055507f7f26b83ff96e1f2b6a682f133852f6798a09c465da95921460cefb384740249860016040516115919190613a0f565b60405180910390a15b50565b6115a5611b15565b6115ad6120ae565b565b6000603360009054906101000a900473ffffffffffffffffffffffffffffffffffffffff16905090565b61012e60205280600052604060002060009150905080600001549080600101549080600201549080600301805461160f90613192565b80601f016020809104026020016040519081016040528092919081815260200182805461163b90613192565b80156116885780601f1061165d57610100808354040283529160200191611688565b820191906000526020600020905b81548152906001019060200180831161166b57829003601f168201915b5050505050908060040160009054906101000a900460ff16908060050154905086565b600034116116ee576040517f08c379a00000000000000000000000000000000000000000000000000000000081526004016116e590613a76565b60405180910390fd5b3373ffffffffffffffffffffffffffffffffffffffff167f5af8184bef8e4b45eb9f6ed7734d04da38ced226495548f46e0c8ff8d7d9a5243460405161173491906125fa565b60405180910390a2565b611746611b15565b60008511611789576040517f08c379a000000000000000000000000000000000000000000000000000000000815260040161178090613ae2565b60405180910390fd5b60018260ff16101580156117a1575060058260ff1611155b6117e0576040517f08c379a00000000000000000000000000000000000000000000000000000000081526004016117d790613b4e565b60405180910390fd5b600061012e60008981526020019081526020016000209050600081600201541161183f576040517f08c379a000000000000000000000000000000000000000000000000000000000815260040161183690613138565b60405180910390fd5b868160010181905550858160020181905550848482600301918261186492919061336f565b50828160040160006101000a81548160ff021916908360ff1602179055508181600501819055505050505050505050565b61189d611b15565b600085116118e0576040517f08c379a00000000000000000000000000000000000000000000000000000000081526004016118d790613ae2565b60405180910390fd5b60018260ff16101580156118f8575060058260ff1611155b611937576040517f08c379a000000000000000000000000000000000000000000000000000000000815260040161192e90613b4e565b60405180910390fd5b6040518060c0016040528061012d54815260200187815260200186815260200185858080601f016020809104026020016040519081016040528093929190818152602001838380828437600081840152601f19601f8201169050808301925050505050505081526020018360ff1681526020018281525061012e600061012d54815260200190815260200160002060008201518160000155602082015181600101556040820151816002015560608201518160030190816119f89190613b6e565b5060808201518160040160006101000a81548160ff021916908360ff16021790555060a0820151816005015590505061012d547f767b04b6d502be6af8ac3efa8f208829cad714a56ed13f0e2c518f09f68dfe848787878787604051611a62959493929190613c40565b60405180910390a261012d6000815480929190611a7e906134ee565b9190505550505050505050565b611a93611b15565b600073ffffffffffffffffffffffffffffffffffffffff168173ffffffffffffffffffffffffffffffffffffffff1603611b02576040517f08c379a0000000000000000000000000000000000000000000000000000000008152600401611af990613d00565b60405180910390fd5b611b0b81611dc6565b50565b61012d5481565b611b1d612111565b73ffffffffffffffffffffffffffffffffffffffff16611b3b6115af565b73ffffffffffffffffffffffffffffffffffffffff1614611b91576040517f08c379a0000000000000000000000000000000000000000000000000000000008152600401611b8890613d6c565b60405180910390fd5b565b6000611bc17f360894a13ba1a3210667c828492db98dca3e2076cc3735a920a3ca505d382bbc60001b612119565b60000160009054906101000a900473ffffffffffffffffffffffffffffffffffffffff16905090565b611bf2611b15565b50565b611c217f4910fdfa16fed3260ed0e7147f7cc6da11a60208b5b9406d12a635614ffd914360001b612123565b60000160009054906101000a900460ff1615611c4557611c408361212d565b611d5e565b8273ffffffffffffffffffffffffffffffffffffffff166352d1902d6040518163ffffffff1660e01b8152600401602060405180830381865afa925050508015611cad57506040513d601f19601f82011682018060405250810190611caa9190613da1565b60015b611cec576040517f08c379a0000000000000000000000000000000000000000000000000000000008152600401611ce390613e40565b60405180910390fd5b7f360894a13ba1a3210667c828492db98dca3e2076cc3735a920a3ca505d382bbc60001b8114611d51576040517f08c379a0000000000000000000000000000000000000000000000000000000008152600401611d4890613ed2565b60405180910390fd5b50611d5d8383836121e6565b5b505050565b611d6b612212565b600060c960006101000a81548160ff0219169083151502179055507f5db9ee0a495bf2e6ff9c91a7834c1ba4fdd244a5e8aa4e537bd38aeae4b073aa611daf612111565b604051611dbc9190612775565b60405180910390a1565b6000603360009054906101000a900473ffffffffffffffffffffffffffffffffffffffff16905081603360006101000a81548173ffffffffffffffffffffffffffffffffffffffff021916908373ffffffffffffffffffffffffffffffffffffffff1602179055508173ffffffffffffffffffffffffffffffffffffffff168173ffffffffffffffffffffffffffffffffffffffff167f8be0079c531659141344cd1fd0a4f28419497f9722a3daafe3b4186f6b6457e060405160405180910390a35050565b611e94610f94565b15611ed4576040517f08c379a0000000000000000000000000000000000000000000000000000000008152600401611ecb90613f3e565b60405180910390fd5b565b600260fb5403611f1b576040517f08c379a0000000000000000000000000000000000000000000000000000000008152600401611f1290613faa565b60405180910390fd5b600260fb81905550565b600160fb81905550565b6000808273ffffffffffffffffffffffffffffffffffffffff163b119050919050565b600060019054906101000a900460ff16611fa1576040517f08c379a0000000000000000000000000000000000000000000000000000000008152600401611f989061403c565b60405180910390fd5b611fa961225b565b565b600060019054906101000a900460ff16611ffa576040517f08c379a0000000000000000000000000000000000000000000000000000000008152600401611ff19061403c565b60405180910390fd5b565b600060019054906101000a900460ff1661204b576040517f08c379a00000000000000000000000000000000000000000000000000000000081526004016120429061403c565b60405180910390fd5b6120536122bc565b565b600060019054906101000a900460ff166120a4576040517f08c379a000000000000000000000000000000000000000000000000000000000815260040161209b9061403c565b60405180910390fd5b6120ac612328565b565b6120b6611e8c565b600160c960006101000a81548160ff0219169083151502179055507f62e78cea01bee320cd4e420270b5ea74000d11b0c9f74754ebdbfc544b05a2586120fa612111565b6040516121079190612775565b60405180910390a1565b600033905090565b6000819050919050565b6000819050919050565b61213681611f2f565b612175576040517f08c379a000000000000000000000000000000000000000000000000000000000815260040161216c906140ce565b60405180910390fd5b806121a27f360894a13ba1a3210667c828492db98dca3e2076cc3735a920a3ca505d382bbc60001b612119565b60000160006101000a81548173ffffffffffffffffffffffffffffffffffffffff021916908373ffffffffffffffffffffffffffffffffffffffff16021790555050565b6121ef83612381565b6000825111806121fc5750805b1561220d5761220b83836123d0565b505b505050565b61221a610f94565b612259576040517f08c379a00000000000000000000000000000000000000000000000000000000081526004016122509061413a565b60405180910390fd5b565b600060019054906101000a900460ff166122aa576040517f08c379a00000000000000000000000000000000000000000000000000000000081526004016122a19061403c565b60405180910390fd5b6122ba6122b5612111565b611dc6565b565b600060019054906101000a900460ff1661230b576040517f08c379a00000000000000000000000000000000000000000000000000000000081526004016123029061403c565b60405180910390fd5b600060c960006101000a81548160ff021916908315150217905550565b600060019054906101000a900460ff16612377576040517f08c379a000000000000000000000000000000000000000000000000000000000815260040161236e9061403c565b60405180910390fd5b600160fb81905550565b61238a8161212d565b8073ffffffffffffffffffffffffffffffffffffffff167fbc7cd75a20ee27fd9adebab32041f755214dbc6bffa90cc0225b39da2e5c2d3b60405160405180910390a250565b60606123f58383604051806060016040528060278152602001614247602791396123fd565b905092915050565b60606000808573ffffffffffffffffffffffffffffffffffffffff168560405161242791906141a1565b600060405180830381855af49150503d8060008114612462576040519150601f19603f3d011682016040523d82523d6000602084013e612467565b606091505b509150915061247886838387612483565b925050509392505050565b606083156124e55760008351036124dd5761249d85611f2f565b6124dc576040517f08c379a00000000000000000000000000000000000000000000000000000000081526004016124d390614204565b60405180910390fd5b5b8290506124f0565b6124ef83836124f8565b5b949350505050565b60008251111561250b5781518083602001fd5b806040517f08c379a000000000000000000000000000000000000000000000000000000000815260040161253f9190614224565b60405180910390fd5b50805461255490613192565b6000825580601f106125665750612585565b601f01602090049060005260206000209081019061258491906125c4565b5b50565b6040518060c0016040528060008152602001600080191681526020016000815260200160608152602001600060ff168152602001600081525090565b5b808211156125dd5760008160009055506001016125c5565b5090565b6000819050919050565b6125f4816125e1565b82525050565b600060208201905061260f60008301846125eb565b92915050565b6000604051905090565b600080fd5b600080fd5b612632816125e1565b811461263d57600080fd5b50565b60008135905061264f81612629565b92915050565b60006020828403121561266b5761266a61261f565b5b600061267984828501612640565b91505092915050565b600080fd5b600080fd5b600080fd5b60008083601f8401126126a7576126a6612682565b5b8235905067ffffffffffffffff8111156126c4576126c3612687565b5b6020830191508360018202830111156126e0576126df61268c565b5b9250929050565b600080602083850312156126fe576126fd61261f565b5b600083013567ffffffffffffffff81111561271c5761271b612624565b5b61272885828601612691565b92509250509250929050565b600073ffffffffffffffffffffffffffffffffffffffff82169050919050565b600061275f82612734565b9050919050565b61276f81612754565b82525050565b600060208201905061278a6000830184612766565b92915050565b600081519050919050565b600082825260208201905092915050565b6000819050602082019050919050565b6127c581612754565b82525050565b60006127d783836127bc565b60208301905092915050565b6000602082019050919050565b60006127fb82612790565b612805818561279b565b9350612810836127ac565b8060005b8381101561284157815161282888826127cb565b9750612833836127e3565b925050600181019050612814565b5085935050505092915050565b600081519050919050565b600082825260208201905092915050565b6000819050602082019050919050565b612883816125e1565b82525050565b6000612895838361287a565b60208301905092915050565b6000602082019050919050565b60006128b98261284e565b6128c38185612859565b93506128ce8361286a565b8060005b838110156128ff5781516128e68882612889565b97506128f1836128a1565b9250506001810190506128d2565b5085935050505092915050565b6000604082019050818103600083015261292681856127f0565b9050818103602083015261293a81846128ae565b90509392505050565b61294c81612754565b811461295757600080fd5b50565b60008135905061296981612943565b92915050565b6000602082840312156129855761298461261f565b5b60006129938482850161295a565b91505092915050565b600081519050919050565b600082825260208201905092915050565b6000819050602082019050919050565b6000819050919050565b6129db816129c8565b82525050565b600081519050919050565b600082825260208201905092915050565b60005b83811015612a1b578082015181840152602081019050612a00565b60008484015250505050565b6000601f19601f8301169050919050565b6000612a43826129e1565b612a4d81856129ec565b9350612a5d8185602086016129fd565b612a6681612a27565b840191505092915050565b600060ff82169050919050565b612a8781612a71565b82525050565b600060c083016000830151612aa5600086018261287a565b506020830151612ab860208601826129d2565b506040830151612acb604086018261287a565b5060608301518482036060860152612ae38282612a38565b9150506080830151612af86080860182612a7e565b5060a0830151612b0b60a086018261287a565b508091505092915050565b6000612b228383612a8d565b905092915050565b6000602082019050919050565b6000612b428261299c565b612b4c81856129a7565b935083602082028501612b5e856129b8565b8060005b85811015612b9a5784840389528151612b7b8582612b16565b9450612b8683612b2a565b925060208a01995050600181019050612b62565b50829750879550505050505092915050565b60006020820190508181036000830152612bc68184612b37565b905092915050565b600080fd5b7f4e487b7100000000000000000000000000000000000000000000000000000000600052604160045260246000fd5b612c0b82612a27565b810181811067ffffffffffffffff82111715612c2a57612c29612bd3565b5b80604052505050565b6000612c3d612615565b9050612c498282612c02565b919050565b600067ffffffffffffffff821115612c6957612c68612bd3565b5b612c7282612a27565b9050602081019050919050565b82818337600083830152505050565b6000612ca1612c9c84612c4e565b612c33565b905082815260208101848484011115612cbd57612cbc612bce565b5b612cc8848285612c7f565b509392505050565b600082601f830112612ce557612ce4612682565b5b8135612cf5848260208601612c8e565b91505092915050565b60008060408385031215612d1557612d1461261f565b5b6000612d238582860161295a565b925050602083013567ffffffffffffffff811115612d4457612d43612624565b5b612d5085828601612cd0565b9150509250929050565b612d63816129c8565b82525050565b6000602082019050612d7e6000830184612d5a565b92915050565b600082825260208201905092915050565b6000612da0826129e1565b612daa8185612d84565b9350612dba8185602086016129fd565b612dc381612a27565b840191505092915050565b6000604082019050612de360008301856125eb565b8181036020830152612df58184612d95565b90509392505050565b60008115159050919050565b612e1381612dfe565b82525050565b6000602082019050612e2e6000830184612e0a565b92915050565b60008060408385031215612e4b57612e4a61261f565b5b6000612e598582860161295a565b9250506020612e6a85828601612640565b9150509250929050565b600080600060408486031215612e8d57612e8c61261f565b5b6000612e9b86828701612640565b935050602084013567ffffffffffffffff811115612ebc57612ebb612624565b5b612ec886828701612691565b92509250509250925092565b612edd81612a71565b82525050565b600060c082019050612ef860008301896125eb565b612f056020830188612d5a565b612f1260408301876125eb565b8181036060830152612f248186612d95565b9050612f336080830185612ed4565b612f4060a08301846125eb565b979650505050505050565b612f54816129c8565b8114612f5f57600080fd5b50565b600081359050612f7181612f4b565b92915050565b612f8081612a71565b8114612f8b57600080fd5b50565b600081359050612f9d81612f77565b92915050565b600080600080600080600060c0888a031215612fc257612fc161261f565b5b6000612fd08a828b01612640565b9750506020612fe18a828b01612f62565b9650506040612ff28a828b01612640565b955050606088013567ffffffffffffffff81111561301357613012612624565b5b61301f8a828b01612691565b945094505060806130328a828b01612f8e565b92505060a06130438a828b01612640565b91505092959891949750929550565b60008060008060008060a0878903121561306f5761306e61261f565b5b600061307d89828a01612f62565b965050602061308e89828a01612640565b955050604087013567ffffffffffffffff8111156130af576130ae612624565b5b6130bb89828a01612691565b945094505060606130ce89828a01612f8e565b92505060806130df89828a01612640565b9150509295509295509295565b7f4368616c6c656e676520646f6573206e6f742065786973740000000000000000600082015250565b6000613122601883612d84565b915061312d826130ec565b602082019050919050565b6000602082019050818103600083015261315181613115565b9050919050565b600082905092915050565b7f4e487b7100000000000000000000000000000000000000000000000000000000600052602260045260246000fd5b600060028204905060018216806131aa57607f821691505b6020821081036131bd576131bc613163565b5b50919050565b60008190508160005260206000209050919050565b60006020601f8301049050919050565b600082821b905092915050565b6000600883026132257fffffffffffffffffffffffffffffffffffffffffffffffffffffffffffffffff826131e8565b61322f86836131e8565b95508019841693508086168417925050509392505050565b6000819050919050565b600061326c613267613262846125e1565b613247565b6125e1565b9050919050565b6000819050919050565b61328683613251565b61329a61329282613273565b8484546131f5565b825550505050565b600090565b6132af6132a2565b6132ba81848461327d565b505050565b5b818110156132de576132d36000826132a7565b6001810190506132c0565b5050565b601f821115613323576132f4816131c3565b6132fd846131d8565b8101602085101561330c578190505b613320613318856131d8565b8301826132bf565b50505b505050565b600082821c905092915050565b600061334660001984600802613328565b1980831691505092915050565b600061335f8383613335565b9150826002028217905092915050565b6133798383613158565b67ffffffffffffffff81111561339257613391612bd3565b5b61339c8254613192565b6133a78282856132e2565b6000601f8311600181146133d657600084156133c4578287013590505b6133ce8582613353565b865550613436565b601f1984166133e4866131c3565b60005b8281101561340c578489013582556001820191506020850194506020810190506133e7565b868310156134295784890135613425601f891682613335565b8355505b6001600288020188555050505b50505050505050565b600061344b8385612d84565b9350613458838584612c7f565b61346183612a27565b840190509392505050565b6000602082019050818103600083015261348781848661343f565b90509392505050565b7f4e487b7100000000000000000000000000000000000000000000000000000000600052603260045260246000fd5b7f4e487b7100000000000000000000000000000000000000000000000000000000600052601160045260246000fd5b60006134f9826125e1565b91507fffffffffffffffffffffffffffffffffffffffffffffffffffffffffffffffff820361352b5761352a6134bf565b5b600182019050919050565b7f46756e6374696f6e206d7573742062652063616c6c6564207468726f7567682060008201527f64656c656761746563616c6c0000000000000000000000000000000000000000602082015250565b6000613592602c83612d84565b915061359d82613536565b604082019050919050565b600060208201905081810360008301526135c181613585565b9050919050565b7f46756e6374696f6e206d7573742062652063616c6c6564207468726f7567682060008201527f6163746976652070726f78790000000000000000000000000000000000000000602082015250565b6000613624602c83612d84565b915061362f826135c8565b604082019050919050565b6000602082019050818103600083015261365381613617565b9050919050565b7f4e6f2062616c616e636520746f20776974686472617700000000000000000000600082015250565b6000613690601683612d84565b915061369b8261365a565b602082019050919050565b600060208201905081810360008301526136bf81613683565b9050919050565b7f555550535570677261646561626c653a206d757374206e6f742062652063616c60008201527f6c6564207468726f7567682064656c656761746563616c6c0000000000000000602082015250565b6000613722603883612d84565b915061372d826136c6565b604082019050919050565b6000602082019050818103600083015261375181613715565b9050919050565b7f496e73756666696369656e742066656500000000000000000000000000000000600082015250565b600061378e601083612d84565b915061379982613758565b602082019050919050565b600060208201905081810360008301526137bd81613781565b9050919050565b7f466c616720697320656d70747900000000000000000000000000000000000000600082015250565b60006137fa600d83612d84565b9150613805826137c4565b602082019050919050565b60006020820190508181036000830152613829816137ed565b9050919050565b7f416c726561647920736f6c766564000000000000000000000000000000000000600082015250565b6000613866600e83612d84565b915061387182613830565b602082019050919050565b6000602082019050818103600083015261389581613859565b9050919050565b600081905092915050565b60006138b3838561389c565b93506138c0838584612c7f565b82840190509392505050565b60006138d98284866138a7565b91508190509392505050565b60006138f0826125e1565b91506138fb836125e1565b9250828201905080821115613913576139126134bf565b5b92915050565b600060408201905061392e60008301856125eb565b61393b6020830184612e0a565b9392505050565b7f496e697469616c697a61626c653a20636f6e747261637420697320616c72656160008201527f647920696e697469616c697a6564000000000000000000000000000000000000602082015250565b600061399e602e83612d84565b91506139a982613942565b604082019050919050565b600060208201905081810360008301526139cd81613991565b9050919050565b6000819050919050565b60006139f96139f46139ef846139d4565b613247565b612a71565b9050919050565b613a09816139de565b82525050565b6000602082019050613a246000830184613a00565b92915050565b7f4d7573742073656e642045544820746f2066756e640000000000000000000000600082015250565b6000613a60601583612d84565b9150613a6b82613a2a565b602082019050919050565b60006020820190508181036000830152613a8f81613a53565b9050919050565b7f526577617264206d757374206265203e20300000000000000000000000000000600082015250565b6000613acc601283612d84565b9150613ad782613a96565b602082019050919050565b60006020820190508181036000830152613afb81613abf565b9050919050565b7f496e76616c696420646966666963756c74790000000000000000000000000000600082015250565b6000613b38601283612d84565b9150613b4382613b02565b602082019050919050565b60006020820190508181036000830152613b6781613b2b565b9050919050565b613b77826129e1565b67ffffffffffffffff811115613b9057613b8f612bd3565b5b613b9a8254613192565b613ba58282856132e2565b600060209050601f831160018114613bd85760008415613bc6578287015190505b613bd08582613353565b865550613c38565b601f198416613be6866131c3565b60005b82811015613c0e57848901518255600182019150602085019450602081019050613be9565b86831015613c2b5784890151613c27601f891682613335565b8355505b6001600288020188555050505b505050505050565b6000608082019050613c556000830188612d5a565b613c6260208301876125eb565b8181036040830152613c7581858761343f565b9050613c846060830184612ed4565b9695505050505050565b7f4f776e61626c653a206e6577206f776e657220697320746865207a65726f206160008201527f6464726573730000000000000000000000000000000000000000000000000000602082015250565b6000613cea602683612d84565b9150613cf582613c8e565b604082019050919050565b60006020820190508181036000830152613d1981613cdd565b9050919050565b7f4f776e61626c653a2063616c6c6572206973206e6f7420746865206f776e6572600082015250565b6000613d56602083612d84565b9150613d6182613d20565b602082019050919050565b60006020820190508181036000830152613d8581613d49565b9050919050565b600081519050613d9b81612f4b565b92915050565b600060208284031215613db757613db661261f565b5b6000613dc584828501613d8c565b91505092915050565b7f45524331393637557067726164653a206e657720696d706c656d656e7461746960008201527f6f6e206973206e6f742055555053000000000000000000000000000000000000602082015250565b6000613e2a602e83612d84565b9150613e3582613dce565b604082019050919050565b60006020820190508181036000830152613e5981613e1d565b9050919050565b7f45524331393637557067726164653a20756e737570706f727465642070726f7860008201527f6961626c65555549440000000000000000000000000000000000000000000000602082015250565b6000613ebc602983612d84565b9150613ec782613e60565b604082019050919050565b60006020820190508181036000830152613eeb81613eaf565b9050919050565b7f5061757361626c653a2070617573656400000000000000000000000000000000600082015250565b6000613f28601083612d84565b9150613f3382613ef2565b602082019050919050565b60006020820190508181036000830152613f5781613f1b565b9050919050565b7f5265656e7472616e637947756172643a207265656e7472616e742063616c6c00600082015250565b6000613f94601f83612d84565b9150613f9f82613f5e565b602082019050919050565b60006020820190508181036000830152613fc381613f87565b9050919050565b7f496e697469616c697a61626c653a20636f6e7472616374206973206e6f74206960008201527f6e697469616c697a696e67000000000000000000000000000000000000000000602082015250565b6000614026602b83612d84565b915061403182613fca565b604082019050919050565b6000602082019050818103600083015261405581614019565b9050919050565b7f455243313936373a206e657720696d706c656d656e746174696f6e206973206e60008201527f6f74206120636f6e747261637400000000000000000000000000000000000000602082015250565b60006140b8602d83612d84565b91506140c38261405c565b604082019050919050565b600060208201905081810360008301526140e7816140ab565b9050919050565b7f5061757361626c653a206e6f7420706175736564000000000000000000000000600082015250565b6000614124601483612d84565b915061412f826140ee565b602082019050919050565b6000602082019050818103600083015261415381614117565b9050919050565b600081519050919050565b600081905092915050565b600061417b8261415a565b6141858185614165565b93506141958185602086016129fd565b80840191505092915050565b60006141ad8284614170565b915081905092915050565b7f416464726573733a2063616c6c20746f206e6f6e2d636f6e7472616374000000600082015250565b60006141ee601d83612d84565b91506141f9826141b8565b602082019050919050565b6000602082019050818103600083015261421d816141e1565b9050919050565b6000602082019050818103600083015261423e8184612d95565b90509291505056fe416464726573733a206c6f772d6c6576656c2064656c65676174652063616c6c206661696c6564a2646970667358221220a8a02a52d85be939d754d1a913c1237304e9a1f0d82737a88e27fb8d9a750af264736f6c63430008140033",
  "linkReferences": {},
  "deployedLinkReferences": {}
}